{
  "contractName": "Counter",
  "abi": [
    {
      "inputs": [
        {
          "internalType": "uint256",
          "name": "_value",
          "type": "uint256"
        }
      ],
      "stateMutability": "nonpayable",
      "type": "constructor"
    },
    {
      "inputs": [],
      "name": "owner",
      "outputs": [
        {
          "internalType": "address",
          "name": "",
          "type": "address"
        }
      ],
      "stateMutability": "view",
      "type": "function",
      "constant": true
    },
    {
      "inputs": [],
      "name": "value",
      "outputs": [
        {
          "internalType": "uint256",
          "name": "",
          "type": "uint256"
        }
      ],
      "stateMutability": "view",
      "type": "function",
      "constant": true
    },
    {
      "inputs": [
        {
          "internalType": "uint256",
          "name": "step",
          "type": "uint256"
        }
      ],
      "name": "inc",
      "outputs": [],
      "stateMutability": "nonpayable",
      "type": "function"
    }
  ],
  "bytecode": "0x6080604052336000806101000a81548173ffffffffffffffffffffffffffffffffffffffff021916908373ffffffffffffffffffffffffffffffffffffffff16021790555034801561005057600080fd5b5060405161046c38038061046c833981810160405281019061007291906100ba565b80600181905550506100e7565b600080fd5b6000819050919050565b61009781610084565b81146100a257600080fd5b50565b6000815190506100b48161008e565b92915050565b6000602082840312156100d0576100cf61007f565b5b60006100de848285016100a5565b91505092915050565b610376806100f66000396000f3fe608060405234801561001057600080fd5b50600436106100415760003560e01c80633fa4f24514610046578063812600df146100645780638da5cb5b14610080575b600080fd5b61004e61009e565b60405161005b919061018b565b60405180910390f35b61007e600480360381019061007991906101d7565b6100a4565b005b61008861014e565b6040516100959190610245565b60405180910390f35b60015481565b60008054906101000a900473ffffffffffffffffffffffffffffffffffffffff1673ffffffffffffffffffffffffffffffffffffffff163373ffffffffffffffffffffffffffffffffffffffff1614610132576040517f08c379a0000000000000000000000000000000000000000000000000000000008152600401610129906102bd565b60405180910390fd5b8060016000828254610144919061030c565b9250508190555050565b60008054906101000a900473ffffffffffffffffffffffffffffffffffffffff1681565b6000819050919050565b61018581610172565b82525050565b60006020820190506101a0600083018461017c565b92915050565b600080fd5b6101b481610172565b81146101bf57600080fd5b50565b6000813590506101d1816101ab565b92915050565b6000602082840312156101ed576101ec6101a6565b5b60006101fb848285016101c2565b91505092915050565b600073ffffffffffffffffffffffffffffffffffffffff82169050919050565b600061022f82610204565b9050919050565b61023f81610224565b82525050565b600060208201905061025a6000830184610236565b92915050565b600082825260208201905092915050565b7f6e6f74206f776e65720000000000000000000000000000000000000000000000600082015250565b60006102a7600983610260565b91506102b282610271565b602082019050919050565b600060208201905081810360008301526102d68161029a565b9050919050565b7f4e487b7100000000000000000000000000000000000000000000000000000000600052601160045260246000fd5b600061031782610172565b915061032283610172565b925082820190508082111561033a576103396102dd565b5b9291505056fea26469706673582212206323e533477d0ceff1859b6a2c994f6825a2c5501f9dfd8f7933067276ca1b6264736f6c63430008130033",
  "immutableReferences": {},
  "source": "// SPDX-License-Identifier: MIT\r\npragma solidity >= 0.4.22 < 0.9.0;\r\n\r\ncontract Counter {\r\n    address public owner = msg.sender;\r\n    uint256 public value;\r\n\r\n    constructor (uint256 _value) {\r\n        value = _value;\r\n    }\r\n\r\n    function inc(uint256 step) public {\r\n        require (msg.sender == owner, \"not owner\");\r\n        value += step;\r\n    }\r\n}",
  "sourcePath": "D:\\OtherDocuments\\Github_repos\\solidity_projects\\4_solid_txhash_test\\contracts\\Solid.sol",
  "compiler": {
    "name": "solc",
    "version": "0.8.19+commit.7dd6d404.Emscripten.clang"
  },
  "schemaVersion": "3.4.13",
  "updatedAt": "2023-04-10T23:39:54.453Z",
  "networkType": "ethereum",
  "devdoc": {
    "kind": "dev",
    "methods": {},
    "version": 1
  },
  "userdoc": {
    "kind": "user",
    "methods": {},
    "version": 1
  }
}