{
  "contractName": "HelloWorld",
  "abi": [
    {
      "inputs": [
        {
          "internalType": "string",
          "name": "greet",
          "type": "string"
        }
      ],
      "name": "sayHello",
      "outputs": [
        {
          "internalType": "string",
          "name": "",
          "type": "string"
        }
      ],
      "stateMutability": "pure",
      "type": "function",
      "constant": true
    }
  ],
  "bytecode": "0x608060405234801561001057600080fd5b506103a0806100206000396000f3fe608060405234801561001057600080fd5b506004361061002b5760003560e01c8063c3a9b1c514610030575b600080fd5b61004a60048036038101906100459190610220565b610060565b60405161005791906102e8565b60405180910390f35b606060006040518060400160405280600681526020017f48656c6c6f200000000000000000000000000000000000000000000000000000815250905080836040516020016100af929190610346565b604051602081830303815290604052915050919050565b6000604051905090565b600080fd5b600080fd5b600080fd5b600080fd5b6000601f19601f8301169050919050565b7f4e487b7100000000000000000000000000000000000000000000000000000000600052604160045260246000fd5b61012d826100e4565b810181811067ffffffffffffffff8211171561014c5761014b6100f5565b5b80604052505050565b600061015f6100c6565b905061016b8282610124565b919050565b600067ffffffffffffffff82111561018b5761018a6100f5565b5b610194826100e4565b9050602081019050919050565b82818337600083830152505050565b60006101c36101be84610170565b610155565b9050828152602081018484840111156101df576101de6100df565b5b6101ea8482856101a1565b509392505050565b600082601f830112610207576102066100da565b5b81356102178482602086016101b0565b91505092915050565b600060208284031215610236576102356100d0565b5b600082013567ffffffffffffffff811115610254576102536100d5565b5b610260848285016101f2565b91505092915050565b600081519050919050565b600082825260208201905092915050565b60005b838110156102a3578082015181840152602081019050610288565b60008484015250505050565b60006102ba82610269565b6102c48185610274565b93506102d4818560208601610285565b6102dd816100e4565b840191505092915050565b6000602082019050818103600083015261030281846102af565b905092915050565b600081905092915050565b600061032082610269565b61032a818561030a565b935061033a818560208601610285565b80840191505092915050565b60006103528285610315565b915061035e8284610315565b9150819050939250505056fea2646970667358221220c1f0a633d5c63630c32ff27bc5088ece2e98ed66453228503598d817ba9aef7b64736f6c63430008130033",
  "immutableReferences": {},
  "source": "// SPDX-License-Identifier: MIT\r\npragma solidity ^0.8.17;\r\n\r\ncontract HelloWorld {\r\n    function sayHello(string memory greet) public pure returns (string memory) {\r\n        string memory hello = \"Hello \";\r\n        \r\n        return string.concat(hello, greet);\r\n    }\r\n}",
  "sourcePath": "D:\\OtherDocuments\\Github_repos\\solidity_projects\\1_hello_world\\contracts\\HelloWorld.sol",
  "compiler": {
    "name": "solc",
    "version": "0.8.19+commit.7dd6d404.Emscripten.clang"
  },
  "schemaVersion": "3.4.13",
  "updatedAt": "2023-04-26T15:36:28.881Z",
  "networkType": "ethereum",
  "devdoc": {
    "kind": "dev",
    "methods": {},
    "version": 1
  },
  "userdoc": {
    "kind": "user",
    "methods": {},
    "version": 1
  }
}