{
  "contractName": "Fibonacci",
  "abi": [
    {
      "inputs": [
        {
          "internalType": "uint256",
          "name": "n",
          "type": "uint256"
        }
      ],
      "name": "generateFib",
      "outputs": [],
      "stateMutability": "nonpayable",
      "type": "function"
    }
  ],
  "bytecode": "0x608060405234801561001057600080fd5b506102f9806100206000396000f3fe608060405234801561001057600080fd5b506004361061002b5760003560e01c80632ddec39b14610030575b600080fd5b61004a60048036038101906100459190610188565b61004c565b005b6000600190806001815401808255809150506001900390600052602060002001600090919091909150556000600190806001815401808255809150506001900390600052602060002001600090919091909150556000600190505b81811015610149576000806002836100bf91906101e4565b815481106100d0576100cf610218565b5b906000526020600020015460006001846100ea91906101e4565b815481106100fb576100fa610218565b5b90600052602060002001546101109190610247565b908060018154018082558091505060019003906000526020600020016000909190919091505580806101419061027b565b9150506100a7565b5050565b600080fd5b6000819050919050565b61016581610152565b811461017057600080fd5b50565b6000813590506101828161015c565b92915050565b60006020828403121561019e5761019d61014d565b5b60006101ac84828501610173565b91505092915050565b7f4e487b7100000000000000000000000000000000000000000000000000000000600052601160045260246000fd5b60006101ef82610152565b91506101fa83610152565b9250828203905081811115610212576102116101b5565b5b92915050565b7f4e487b7100000000000000000000000000000000000000000000000000000000600052603260045260246000fd5b600061025282610152565b915061025d83610152565b9250828201905080821115610275576102746101b5565b5b92915050565b600061028682610152565b91507fffffffffffffffffffffffffffffffffffffffffffffffffffffffffffffffff82036102b8576102b76101b5565b5b60018201905091905056fea2646970667358221220dfda97150d60b54438514640a2749bf83e28bc042a14cffdf31c97be2cda880964736f6c63430008130033",
  "immutableReferences": {},
  "source": "pragma solidity ^0.8.19;\r\n\r\ncontract Fibonacci {\r\n    uint[] fibseries;\r\n\r\n    // n = how many in the series to return\r\n    function generateFib(uint n) public {\r\n        // set 1st and 2nd entries\r\n        fibseries.push(1);\r\n        fibseries.push(1);\r\n\r\n        // Generate subsequent entries\r\n        for (uint i = 1; i < n; i++) {\r\n            fibseries.push(fibseries[i - 1] + fibseries[i - 2]);\r\n        }\r\n    }\r\n\r\n    // function getSeries() view public returns (uint[]) {\r\n    //     return fibseries;\r\n    // }\r\n}",
  "sourcePath": "D:\\OtherDocuments\\Github_repos\\solidity_projects\\5_fibonacci\\contracts\\Fibonacci.sol",
  "compiler": {
    "name": "solc",
    "version": "0.8.19+commit.7dd6d404.Emscripten.clang"
  },
  "schemaVersion": "3.4.13",
  "updatedAt": "2023-04-15T16:53:47.760Z",
  "networkType": "ethereum",
  "devdoc": {
    "kind": "dev",
    "methods": {},
    "version": 1
  },
  "userdoc": {
    "kind": "user",
    "methods": {},
    "version": 1
  }
}