{
  "address": "0xe7f1725E7734CE288F8367e1Bb143E90bb3F0512",
  "abi": [
    {
      "inputs": [
        {
          "internalType": "address",
          "name": "priceFeedAddress",
          "type": "address"
        }
      ],
      "stateMutability": "nonpayable",
      "type": "constructor"
    },
    {
      "inputs": [],
      "name": "FundMe__CallFailed",
      "type": "error"
    },
    {
      "inputs": [
        {
          "internalType": "uint256",
          "name": "ethProvided",
          "type": "uint256"
        },
        {
          "internalType": "uint256",
          "name": "minEth",
          "type": "uint256"
        }
      ],
      "name": "FundMe__NotEnoughETH",
      "type": "error"
    },
    {
      "inputs": [],
      "name": "FundMe__NotOwner",
      "type": "error"
    },
    {
      "stateMutability": "payable",
      "type": "fallback"
    },
    {
      "inputs": [],
      "name": "MINIMUM_USD",
      "outputs": [
        {
          "internalType": "uint256",
          "name": "",
          "type": "uint256"
        }
      ],
      "stateMutability": "view",
      "type": "function"
    },
    {
      "inputs": [],
      "name": "cheaperWithdraw",
      "outputs": [],
      "stateMutability": "payable",
      "type": "function"
    },
    {
      "inputs": [],
      "name": "fund",
      "outputs": [],
      "stateMutability": "payable",
      "type": "function"
    },
    {
      "inputs": [
        {
          "internalType": "address",
          "name": "founder",
          "type": "address"
        }
      ],
      "name": "getAddressToAmountFunded",
      "outputs": [
        {
          "internalType": "uint256",
          "name": "",
          "type": "uint256"
        }
      ],
      "stateMutability": "view",
      "type": "function"
    },
    {
      "inputs": [
        {
          "internalType": "uint256",
          "name": "index",
          "type": "uint256"
        }
      ],
      "name": "getFounder",
      "outputs": [
        {
          "internalType": "address",
          "name": "",
          "type": "address"
        }
      ],
      "stateMutability": "view",
      "type": "function"
    },
    {
      "inputs": [],
      "name": "getOwner",
      "outputs": [
        {
          "internalType": "address",
          "name": "",
          "type": "address"
        }
      ],
      "stateMutability": "view",
      "type": "function"
    },
    {
      "inputs": [],
      "name": "getPriceFeed",
      "outputs": [
        {
          "internalType": "contract AggregatorV3Interface",
          "name": "",
          "type": "address"
        }
      ],
      "stateMutability": "view",
      "type": "function"
    },
    {
      "inputs": [],
      "name": "getVersion",
      "outputs": [
        {
          "internalType": "uint256",
          "name": "",
          "type": "uint256"
        }
      ],
      "stateMutability": "view",
      "type": "function"
    },
    {
      "inputs": [],
      "name": "withdraw",
      "outputs": [],
      "stateMutability": "nonpayable",
      "type": "function"
    },
    {
      "stateMutability": "payable",
      "type": "receive"
    }
  ],
  "transactionHash": "0x88bc49fc4ee91a967ad5ed53b87f5e159ccb7b482dd05a70d1443e43de9104bf",
  "args": [
    "0x5FbDB2315678afecb367f032d93F642f64180aa3"
  ],
  "numDeployments": 1,
  "solcInputHash": "43c90d2083f2bbf627942a12480d73c4",
  "bytecode": "0x60a06040523480156200001157600080fd5b506040516200160f3803806200160f83398181016040528101906200003791906200011d565b3373ffffffffffffffffffffffffffffffffffffffff1660808173ffffffffffffffffffffffffffffffffffffffff168152505080600260006101000a81548173ffffffffffffffffffffffffffffffffffffffff021916908373ffffffffffffffffffffffffffffffffffffffff160217905550506200014f565b600080fd5b600073ffffffffffffffffffffffffffffffffffffffff82169050919050565b6000620000e582620000b8565b9050919050565b620000f781620000d8565b81146200010357600080fd5b50565b6000815190506200011781620000ec565b92915050565b600060208284031215620001365762000135620000b3565b5b6000620001468482850162000106565b91505092915050565b608051611496620001796000396000818161058d015281816107cd015261081d01526114966000f3fe60806040526004361061008a5760003560e01c80636b69a592116100595780636b69a5921461015f578063893d20e81461018a5780639e87a5cd146101b5578063b60d4288146101e0578063be2693f0146101ea57610099565b80630343fb25146100a35780630d8e6e2c146100e05780633bcb43f31461010b5780633ccfd60b1461014857610099565b36610099576100976101f4565b005b6100a16101f4565b005b3480156100af57600080fd5b506100ca60048036038101906100c59190610ea2565b610425565b6040516100d79190610ee8565b60405180910390f35b3480156100ec57600080fd5b506100f561046d565b6040516101029190610ee8565b60405180910390f35b34801561011757600080fd5b50610132600480360381019061012d9190610f2f565b610543565b60405161013f9190610f6b565b60405180910390f35b34801561015457600080fd5b5061015d61058b565b005b34801561016b57600080fd5b506101746107bc565b6040516101819190610ee8565b60405180910390f35b34801561019657600080fd5b5061019f6107c9565b6040516101ac9190610f6b565b60405180910390f35b3480156101c157600080fd5b506101ca6107f1565b6040516101d79190610fe5565b60405180910390f35b6101e86101f4565b005b6101f261081b565b005b600061022b600260009054906101000a900473ffffffffffffffffffffffffffffffffffffffff1634610ab090919063ffffffff16565b90506802b5e3af16b1880000811161028557806802b5e3af16b18800006040517ffcf3949900000000000000000000000000000000000000000000000000000000815260040161027c929190611000565b60405180910390fd5b346000803373ffffffffffffffffffffffffffffffffffffffff1673ffffffffffffffffffffffffffffffffffffffff16815260200190815260200160002060008282546102d39190611058565b925050819055506001339080600181540180825580915050600190039060005260206000200160009091909190916101000a81548173ffffffffffffffffffffffffffffffffffffffff021916908373ffffffffffffffffffffffffffffffffffffffff1602179055506000670de0b6b3a76400003461035391906110bb565b90506103936040518060400160405280600881526020017f4163636f756e7420000000000000000000000000000000000000000000000000815250610aec565b61039c33610b85565b6103da6040518060400160405280601b81526020017f2066756e646564207468697320636f6e74726163742077697468200000000000815250610aec565b6103e381610c1e565b6104216040518060400160405280600481526020017f2045544800000000000000000000000000000000000000000000000000000000815250610aec565b5050565b60008060008373ffffffffffffffffffffffffffffffffffffffff1673ffffffffffffffffffffffffffffffffffffffff168152602001908152602001600020549050919050565b60006104ad6040518060400160405280601c81526020017f67657456657273696f6e2066756e6374696f6e20696e766f6b65642100000000815250610aec565b600260009054906101000a900473ffffffffffffffffffffffffffffffffffffffff1673ffffffffffffffffffffffffffffffffffffffff166354fd4d506040518163ffffffff1660e01b8152600401602060405180830381865afa15801561051a573d6000803e3d6000fd5b505050506040513d601f19601f8201168201806040525081019061053e9190611101565b905090565b6000600182815481106105595761055861112e565b5b9060005260206000200160009054906101000a900473ffffffffffffffffffffffffffffffffffffffff169050919050565b7f000000000000000000000000000000000000000000000000000000000000000073ffffffffffffffffffffffffffffffffffffffff163373ffffffffffffffffffffffffffffffffffffffff1614610610576040517f579610db00000000000000000000000000000000000000000000000000000000815260040160405180910390fd5b60005b6001805490508110156106b5576000600182815481106106365761063561112e565b5b9060005260206000200160009054906101000a900473ffffffffffffffffffffffffffffffffffffffff16905060008060008373ffffffffffffffffffffffffffffffffffffffff1673ffffffffffffffffffffffffffffffffffffffff16815260200190815260200160002081905550508080600101915050610613565b50600067ffffffffffffffff8111156106d1576106d061115d565b5b6040519080825280602002602001820160405280156106ff5781602001602082028036833780820191505090505b5060019080519060200190610715929190610d8e565b5060003373ffffffffffffffffffffffffffffffffffffffff164760405161073c906111bd565b60006040518083038185875af1925050503d8060008114610779576040519150601f19603f3d011682016040523d82523d6000602084013e61077e565b606091505b50509050806107b9576040517fa6139a6400000000000000000000000000000000000000000000000000000000815260040160405180910390fd5b50565b6802b5e3af16b188000081565b60007f0000000000000000000000000000000000000000000000000000000000000000905090565b6000600260009054906101000a900473ffffffffffffffffffffffffffffffffffffffff16905090565b7f000000000000000000000000000000000000000000000000000000000000000073ffffffffffffffffffffffffffffffffffffffff163373ffffffffffffffffffffffffffffffffffffffff16146108a0576040517f579610db00000000000000000000000000000000000000000000000000000000815260040160405180910390fd5b6000600180548060200260200160405190810160405280929190818152602001828054801561092457602002820191906000526020600020905b8160009054906101000a900473ffffffffffffffffffffffffffffffffffffffff1673ffffffffffffffffffffffffffffffffffffffff16815260200190600101908083116108da575b5050505050905060005b81518110156109a857600082828151811061094c5761094b61112e565b5b6020026020010151905060008060008373ffffffffffffffffffffffffffffffffffffffff1673ffffffffffffffffffffffffffffffffffffffff1681526020019081526020016000208190555050808060010191505061092e565b50600067ffffffffffffffff8111156109c4576109c361115d565b5b6040519080825280602002602001820160405280156109f25781602001602082028036833780820191505090505b5060019080519060200190610a08929190610d8e565b5060003373ffffffffffffffffffffffffffffffffffffffff1647604051610a2f906111bd565b60006040518083038185875af1925050503d8060008114610a6c576040519150601f19603f3d011682016040523d82523d6000602084013e610a71565b606091505b5050905080610aac576040517fa6139a6400000000000000000000000000000000000000000000000000000000815260040160405180910390fd5b5050565b600080610abc83610cb7565b90506000670de0b6b3a76400008583610ad591906111d2565b610adf91906110bb565b9050809250505092915050565b610b8281604051602401610b0091906112a4565b6040516020818303038152906040527f41304fac000000000000000000000000000000000000000000000000000000007bffffffffffffffffffffffffffffffffffffffffffffffffffffffff19166020820180517bffffffffffffffffffffffffffffffffffffffffffffffffffffffff8381831617835250505050610d48565b50565b610c1b81604051602401610b999190610f6b565b6040516020818303038152906040527f2c2ecbc2000000000000000000000000000000000000000000000000000000007bffffffffffffffffffffffffffffffffffffffffffffffffffffffff19166020820180517bffffffffffffffffffffffffffffffffffffffffffffffffffffffff8381831617835250505050610d48565b50565b610cb481604051602401610c329190610ee8565b6040516020818303038152906040527ff82c50f1000000000000000000000000000000000000000000000000000000007bffffffffffffffffffffffffffffffffffffffffffffffffffffffff19166020820180517bffffffffffffffffffffffffffffffffffffffffffffffffffffffff8381831617835250505050610d48565b50565b6000808273ffffffffffffffffffffffffffffffffffffffff1663feaf968c6040518163ffffffff1660e01b815260040160a060405180830381865afa158015610d05573d6000803e3d6000fd5b505050506040513d601f19601f82011682018060405250810190610d29919061133e565b5050509150506402540be40081610d4091906113b9565b915050919050565b610d5f81610d57610d62610d83565b63ffffffff16565b50565b60006a636f6e736f6c652e6c6f679050600080835160208501845afa505050565b610e18819050919050565b828054828255906000526020600020908101928215610e07579160200282015b82811115610e065782518260006101000a81548173ffffffffffffffffffffffffffffffffffffffff021916908373ffffffffffffffffffffffffffffffffffffffff16021790555091602001919060010190610dae565b5b509050610e149190610e22565b5090565b610e20611431565b565b5b80821115610e3b576000816000905550600101610e23565b5090565b600080fd5b600073ffffffffffffffffffffffffffffffffffffffff82169050919050565b6000610e6f82610e44565b9050919050565b610e7f81610e64565b8114610e8a57600080fd5b50565b600081359050610e9c81610e76565b92915050565b600060208284031215610eb857610eb7610e3f565b5b6000610ec684828501610e8d565b91505092915050565b6000819050919050565b610ee281610ecf565b82525050565b6000602082019050610efd6000830184610ed9565b92915050565b610f0c81610ecf565b8114610f1757600080fd5b50565b600081359050610f2981610f03565b92915050565b600060208284031215610f4557610f44610e3f565b5b6000610f5384828501610f1a565b91505092915050565b610f6581610e64565b82525050565b6000602082019050610f806000830184610f5c565b92915050565b6000819050919050565b6000610fab610fa6610fa184610e44565b610f86565b610e44565b9050919050565b6000610fbd82610f90565b9050919050565b6000610fcf82610fb2565b9050919050565b610fdf81610fc4565b82525050565b6000602082019050610ffa6000830184610fd6565b92915050565b60006040820190506110156000830185610ed9565b6110226020830184610ed9565b9392505050565b7f4e487b7100000000000000000000000000000000000000000000000000000000600052601160045260246000fd5b600061106382610ecf565b915061106e83610ecf565b925082820190508082111561108657611085611029565b5b92915050565b7f4e487b7100000000000000000000000000000000000000000000000000000000600052601260045260246000fd5b60006110c682610ecf565b91506110d183610ecf565b9250826110e1576110e061108c565b5b828204905092915050565b6000815190506110fb81610f03565b92915050565b60006020828403121561111757611116610e3f565b5b6000611125848285016110ec565b91505092915050565b7f4e487b7100000000000000000000000000000000000000000000000000000000600052603260045260246000fd5b7f4e487b7100000000000000000000000000000000000000000000000000000000600052604160045260246000fd5b600081905092915050565b50565b60006111a760008361118c565b91506111b282611197565b600082019050919050565b60006111c88261119a565b9150819050919050565b60006111dd82610ecf565b91506111e883610ecf565b92508282026111f681610ecf565b9150828204841483151761120d5761120c611029565b5b5092915050565b600081519050919050565b600082825260208201905092915050565b60005b8381101561124e578082015181840152602081019050611233565b60008484015250505050565b6000601f19601f8301169050919050565b600061127682611214565b611280818561121f565b9350611290818560208601611230565b6112998161125a565b840191505092915050565b600060208201905081810360008301526112be818461126b565b905092915050565b600069ffffffffffffffffffff82169050919050565b6112e5816112c6565b81146112f057600080fd5b50565b600081519050611302816112dc565b92915050565b6000819050919050565b61131b81611308565b811461132657600080fd5b50565b60008151905061133881611312565b92915050565b600080600080600060a0868803121561135a57611359610e3f565b5b6000611368888289016112f3565b955050602061137988828901611329565b945050604061138a888289016110ec565b935050606061139b888289016110ec565b92505060806113ac888289016112f3565b9150509295509295909350565b60006113c482611308565b91506113cf83611308565b92508282026113dd81611308565b91507f8000000000000000000000000000000000000000000000000000000000000000841460008412161561141557611414611029565b5b828205841483151761142a57611429611029565b5b5092915050565b7f4e487b7100000000000000000000000000000000000000000000000000000000600052605160045260246000fdfea2646970667358221220abdf671eb452e3975bea625f5d6e12221fdcdcb7b471ccb851c16aaba6fc069264736f6c63430008180033",
  "devdoc": {
    "author": "Ricardo Almeida",
    "details": "This implements price feeds as our library",
    "errors": {
      "FundMe__NotEnoughETH(uint256,uint256)": [
        {
          "params": {
            "ethProvided": "The initial amount provided in the call",
            "minEth": "The minimum value expected"
          }
        }
      ]
    },
    "kind": "dev",
    "methods": {
      "fund()": {
        "details": "This implements price feed as our library"
      },
      "getVersion()": {
        "returns": {
          "_0": "uint256 The version of the price feed service in use"
        }
      }
    },
    "title": "A contract for crowd funding",
    "version": 1
  },
  "userdoc": {
    "errors": {
      "FundMe__CallFailed()": [
        {
          "notice": "Custom error for when a FundMe.withdraw call fails"
        }
      ],
      "FundMe__NotEnoughETH(uint256,uint256)": [
        {
          "notice": "Custom error for when a call to the FundMe.fund() function is placed with insufficient funds."
        }
      ],
      "FundMe__NotOwner()": [
        {
          "notice": "Custom error for whenever anyone other than the contract owner tries to take ownership of the resource"
        }
      ]
    },
    "kind": "user",
    "methods": {
      "fund()": {
        "notice": "This function funds this contract"
      },
      "getVersion()": {
        "notice": "This function returns the version of the price feed service."
      },
      "withdraw()": {
        "notice": "This function withdraws all the funds set so far into the owner's account."
      }
    },
    "notice": "This contract is to demo a sample funding contract",
    "version": 1
  },
  "storageLayout": {
    "storage": [
      {
        "astId": 77,
        "contract": "contracts/FundMe.sol:FundMe",
        "label": "s_addressToAmountFunded",
        "offset": 0,
        "slot": "0",
        "type": "t_mapping(t_address,t_uint256)"
      },
      {
        "astId": 80,
        "contract": "contracts/FundMe.sol:FundMe",
        "label": "s_founders",
        "offset": 0,
        "slot": "1",
        "type": "t_array(t_address)dyn_storage"
      },
      {
        "astId": 92,
        "contract": "contracts/FundMe.sol:FundMe",
        "label": "s_priceFeed",
        "offset": 0,
        "slot": "2",
        "type": "t_contract(AggregatorV3Interface)45"
      }
    ],
    "types": {
      "t_address": {
        "encoding": "inplace",
        "label": "address",
        "numberOfBytes": "20"
      },
      "t_array(t_address)dyn_storage": {
        "base": "t_address",
        "encoding": "dynamic_array",
        "label": "address[]",
        "numberOfBytes": "32"
      },
      "t_contract(AggregatorV3Interface)45": {
        "encoding": "inplace",
        "label": "contract AggregatorV3Interface",
        "numberOfBytes": "20"
      },
      "t_mapping(t_address,t_uint256)": {
        "encoding": "mapping",
        "key": "t_address",
        "label": "mapping(address => uint256)",
        "numberOfBytes": "32",
        "value": "t_uint256"
      },
      "t_uint256": {
        "encoding": "inplace",
        "label": "uint256",
        "numberOfBytes": "32"
      }
    }
  }
}