{
  "address": "0xa513E6E4b8f2a923D98304ec87F64353C4D5C853",
  "abi": [
    {
      "inputs": [
        {
          "internalType": "address",
          "name": "priceFeedAddress",
          "type": "address"
        }
      ],
      "stateMutability": "nonpayable",
      "type": "constructor"
    },
    {
      "inputs": [
        {
          "internalType": "uint256",
          "name": "fundProvided",
          "type": "uint256"
        },
        {
          "internalType": "uint256",
          "name": "minimumFunds",
          "type": "uint256"
        }
      ],
      "name": "FundMeHelper__InvalidFunds",
      "type": "error"
    },
    {
      "inputs": [],
      "name": "MINIMUM_ETH",
      "outputs": [
        {
          "internalType": "uint256",
          "name": "",
          "type": "uint256"
        }
      ],
      "stateMutability": "view",
      "type": "function"
    },
    {
      "inputs": [],
      "name": "fundMeContract",
      "outputs": [
        {
          "internalType": "contract FundMe",
          "name": "",
          "type": "address"
        }
      ],
      "stateMutability": "view",
      "type": "function"
    },
    {
      "inputs": [],
      "name": "helperWithdraw",
      "outputs": [],
      "stateMutability": "nonpayable",
      "type": "function"
    },
    {
      "inputs": [],
      "name": "initialFund",
      "outputs": [],
      "stateMutability": "payable",
      "type": "function"
    }
  ],
  "transactionHash": "0xe833a97399a3e0a327a6431f04b035d761b19326e971f2ce42ff2295c7fd79d0",
  "args": [
    "0x5FbDB2315678afecb367f032d93F642f64180aa3"
  ],
  "numDeployments": 2,
  "solcInputHash": "848efbfe81678774d5b7e779548f9a50",
  "bytecode": "0x608060405234801561001057600080fd5b506040516117743803806117748339818101604052810190610032919061011b565b8060405161003f906100ab565b6100499190610157565b604051809103906000f080158015610065573d6000803e3d6000fd5b506000806101000a81548173ffffffffffffffffffffffffffffffffffffffff021916908373ffffffffffffffffffffffffffffffffffffffff16021790555050610172565b6113018061047383390190565b600080fd5b600073ffffffffffffffffffffffffffffffffffffffff82169050919050565b60006100e8826100bd565b9050919050565b6100f8816100dd565b811461010357600080fd5b50565b600081519050610115816100ef565b92915050565b600060208284031215610131576101306100b8565b5b600061013f84828501610106565b91505092915050565b610151816100dd565b82525050565b600060208201905061016c6000830184610148565b92915050565b6102f2806101816000396000f3fe60806040526004361061003f5760003560e01c8063106ad23614610044578063965cc6c71461006f578063d5e3af4514610086578063e25c3f65146100b1575b600080fd5b34801561005057600080fd5b506100596100bb565b6040516100669190610244565b60405180910390f35b34801561007b57600080fd5b506100846100df565b005b34801561009257600080fd5b5061009b610161565b6040516100a89190610278565b60405180910390f35b6100b961016d565b005b60008054906101000a900473ffffffffffffffffffffffffffffffffffffffff1681565b60008054906101000a900473ffffffffffffffffffffffffffffffffffffffff1673ffffffffffffffffffffffffffffffffffffffff16633ccfd60b6040518163ffffffff1660e01b8152600401600060405180830381600087803b15801561014757600080fd5b505af115801561015b573d6000803e3d6000fd5b50505050565b6706f05b59d3b2000081565b6706f05b59d3b2000034116101c357346706f05b59d3b200006040517ff977a0e00000000000000000000000000000000000000000000000000000000081526004016101ba929190610293565b60405180910390fd5b565b600073ffffffffffffffffffffffffffffffffffffffff82169050919050565b6000819050919050565b600061020a610205610200846101c5565b6101e5565b6101c5565b9050919050565b600061021c826101ef565b9050919050565b600061022e82610211565b9050919050565b61023e81610223565b82525050565b60006020820190506102596000830184610235565b92915050565b6000819050919050565b6102728161025f565b82525050565b600060208201905061028d6000830184610269565b92915050565b60006040820190506102a86000830185610269565b6102b56020830184610269565b939250505056fea264697066735822122010c45f3595b38c54418c8444558928ee0d5656fa3bcf57c683e988df7948ffe764736f6c6343000818003360a06040523480156200001157600080fd5b50604051620013013803806200130183398181016040528101906200003791906200011d565b3373ffffffffffffffffffffffffffffffffffffffff1660808173ffffffffffffffffffffffffffffffffffffffff168152505080600260006101000a81548173ffffffffffffffffffffffffffffffffffffffff021916908373ffffffffffffffffffffffffffffffffffffffff160217905550506200014f565b600080fd5b600073ffffffffffffffffffffffffffffffffffffffff82169050919050565b6000620000e582620000b8565b9050919050565b620000f781620000d8565b81146200010357600080fd5b50565b6000815190506200011781620000ec565b92915050565b600060208284031215620001365762000135620000b3565b5b6000620001468482850162000106565b91505092915050565b60805161118f62000172600039600081816104cd01526104f1015261118f6000f3fe60806040526004361061007f5760003560e01c80636b69a5921161004e5780636b69a59214610142578063741bef1a1461016d578063b60d428814610198578063d8e75f62146101a25761008e565b80630d8e6e2c14610098578063117803e3146100c35780633ccfd60b146100ee5780633e47d6f3146101055761008e565b3661008e5761008c6101df565b005b6100966101df565b005b3480156100a457600080fd5b506100ad6103f5565b6040516100ba9190610b51565b60405180910390f35b3480156100cf57600080fd5b506100d86104cb565b6040516100e59190610bad565b60405180910390f35b3480156100fa57600080fd5b506101036104ef565b005b34801561011157600080fd5b5061012c60048036038101906101279190610bf9565b610720565b6040516101399190610b51565b60405180910390f35b34801561014e57600080fd5b50610157610738565b6040516101649190610b51565b60405180910390f35b34801561017957600080fd5b50610182610744565b60405161018f9190610c85565b60405180910390f35b6101a06101df565b005b3480156101ae57600080fd5b506101c960048036038101906101c49190610ccc565b61076a565b6040516101d69190610bad565b60405180910390f35b6000610216600260009054906101000a900473ffffffffffffffffffffffffffffffffffffffff16346107a990919063ffffffff16565b9050674563918244f40000811161026e5780674563918244f400006040517ffcf39499000000000000000000000000000000000000000000000000000000008152600401610265929190610cf9565b60405180910390fd5b346000803373ffffffffffffffffffffffffffffffffffffffff1673ffffffffffffffffffffffffffffffffffffffff16815260200190815260200160002060008282546102bc9190610d51565b925050819055506001339080600181540180825580915050600190039060005260206000200160009091909190916101000a81548173ffffffffffffffffffffffffffffffffffffffff021916908373ffffffffffffffffffffffffffffffffffffffff1602179055506103646040518060400160405280600881526020017f4163636f756e74200000000000000000000000000000000000000000000000008152506107e5565b61036d3361087e565b6103ab6040518060400160405280601b81526020017f2066756e646564207468697320636f6e747261637420776974682000000000008152506107e5565b6103b434610917565b6103f26040518060400160405280600481526020017f20455448000000000000000000000000000000000000000000000000000000008152506107e5565b50565b60006104356040518060400160405280601c81526020017f67657456657273696f6e2066756e6374696f6e20696e766f6b656421000000008152506107e5565b600260009054906101000a900473ffffffffffffffffffffffffffffffffffffffff1673ffffffffffffffffffffffffffffffffffffffff166354fd4d506040518163ffffffff1660e01b8152600401602060405180830381865afa1580156104a2573d6000803e3d6000fd5b505050506040513d601f19601f820116820180604052508101906104c69190610d9a565b905090565b7f000000000000000000000000000000000000000000000000000000000000000081565b7f000000000000000000000000000000000000000000000000000000000000000073ffffffffffffffffffffffffffffffffffffffff163373ffffffffffffffffffffffffffffffffffffffff1614610574576040517f579610db00000000000000000000000000000000000000000000000000000000815260040160405180910390fd5b60005b6001805490508110156106195760006001828154811061059a57610599610dc7565b5b9060005260206000200160009054906101000a900473ffffffffffffffffffffffffffffffffffffffff16905060008060008373ffffffffffffffffffffffffffffffffffffffff1673ffffffffffffffffffffffffffffffffffffffff16815260200190815260200160002081905550508080600101915050610577565b50600067ffffffffffffffff81111561063557610634610df6565b5b6040519080825280602002602001820160405280156106635781602001602082028036833780820191505090505b5060019080519060200190610679929190610a87565b5060003373ffffffffffffffffffffffffffffffffffffffff16476040516106a090610e56565b60006040518083038185875af1925050503d80600081146106dd576040519150601f19603f3d011682016040523d82523d6000602084013e6106e2565b606091505b505090508061071d576040517fa6139a6400000000000000000000000000000000000000000000000000000000815260040160405180910390fd5b50565b60006020528060005260406000206000915090505481565b674563918244f4000081565b600260009054906101000a900473ffffffffffffffffffffffffffffffffffffffff1681565b6001818154811061077a57600080fd5b906000526020600020016000915054906101000a900473ffffffffffffffffffffffffffffffffffffffff1681565b6000806107b5836109b0565b90506000670de0b6b3a764000085836107ce9190610e6b565b6107d89190610edc565b9050809250505092915050565b61087b816040516024016107f99190610f9d565b6040516020818303038152906040527f41304fac000000000000000000000000000000000000000000000000000000007bffffffffffffffffffffffffffffffffffffffffffffffffffffffff19166020820180517bffffffffffffffffffffffffffffffffffffffffffffffffffffffff8381831617835250505050610a41565b50565b610914816040516024016108929190610bad565b6040516020818303038152906040527f2c2ecbc2000000000000000000000000000000000000000000000000000000007bffffffffffffffffffffffffffffffffffffffffffffffffffffffff19166020820180517bffffffffffffffffffffffffffffffffffffffffffffffffffffffff8381831617835250505050610a41565b50565b6109ad8160405160240161092b9190610b51565b6040516020818303038152906040527ff82c50f1000000000000000000000000000000000000000000000000000000007bffffffffffffffffffffffffffffffffffffffffffffffffffffffff19166020820180517bffffffffffffffffffffffffffffffffffffffffffffffffffffffff8381831617835250505050610a41565b50565b6000808273ffffffffffffffffffffffffffffffffffffffff1663feaf968c6040518163ffffffff1660e01b815260040160a060405180830381865afa1580156109fe573d6000803e3d6000fd5b505050506040513d601f19601f82011682018060405250810190610a229190611037565b5050509150506402540be40081610a3991906110b2565b915050919050565b610a5881610a50610a5b610a7c565b63ffffffff16565b50565b60006a636f6e736f6c652e6c6f679050600080835160208501845afa505050565b610b11819050919050565b828054828255906000526020600020908101928215610b00579160200282015b82811115610aff5782518260006101000a81548173ffffffffffffffffffffffffffffffffffffffff021916908373ffffffffffffffffffffffffffffffffffffffff16021790555091602001919060010190610aa7565b5b509050610b0d9190610b1b565b5090565b610b1961112a565b565b5b80821115610b34576000816000905550600101610b1c565b5090565b6000819050919050565b610b4b81610b38565b82525050565b6000602082019050610b666000830184610b42565b92915050565b600073ffffffffffffffffffffffffffffffffffffffff82169050919050565b6000610b9782610b6c565b9050919050565b610ba781610b8c565b82525050565b6000602082019050610bc26000830184610b9e565b92915050565b600080fd5b610bd681610b8c565b8114610be157600080fd5b50565b600081359050610bf381610bcd565b92915050565b600060208284031215610c0f57610c0e610bc8565b5b6000610c1d84828501610be4565b91505092915050565b6000819050919050565b6000610c4b610c46610c4184610b6c565b610c26565b610b6c565b9050919050565b6000610c5d82610c30565b9050919050565b6000610c6f82610c52565b9050919050565b610c7f81610c64565b82525050565b6000602082019050610c9a6000830184610c76565b92915050565b610ca981610b38565b8114610cb457600080fd5b50565b600081359050610cc681610ca0565b92915050565b600060208284031215610ce257610ce1610bc8565b5b6000610cf084828501610cb7565b91505092915050565b6000604082019050610d0e6000830185610b42565b610d1b6020830184610b42565b9392505050565b7f4e487b7100000000000000000000000000000000000000000000000000000000600052601160045260246000fd5b6000610d5c82610b38565b9150610d6783610b38565b9250828201905080821115610d7f57610d7e610d22565b5b92915050565b600081519050610d9481610ca0565b92915050565b600060208284031215610db057610daf610bc8565b5b6000610dbe84828501610d85565b91505092915050565b7f4e487b7100000000000000000000000000000000000000000000000000000000600052603260045260246000fd5b7f4e487b7100000000000000000000000000000000000000000000000000000000600052604160045260246000fd5b600081905092915050565b50565b6000610e40600083610e25565b9150610e4b82610e30565b600082019050919050565b6000610e6182610e33565b9150819050919050565b6000610e7682610b38565b9150610e8183610b38565b9250828202610e8f81610b38565b91508282048414831517610ea657610ea5610d22565b5b5092915050565b7f4e487b7100000000000000000000000000000000000000000000000000000000600052601260045260246000fd5b6000610ee782610b38565b9150610ef283610b38565b925082610f0257610f01610ead565b5b828204905092915050565b600081519050919050565b600082825260208201905092915050565b60005b83811015610f47578082015181840152602081019050610f2c565b60008484015250505050565b6000601f19601f8301169050919050565b6000610f6f82610f0d565b610f798185610f18565b9350610f89818560208601610f29565b610f9281610f53565b840191505092915050565b60006020820190508181036000830152610fb78184610f64565b905092915050565b600069ffffffffffffffffffff82169050919050565b610fde81610fbf565b8114610fe957600080fd5b50565b600081519050610ffb81610fd5565b92915050565b6000819050919050565b61101481611001565b811461101f57600080fd5b50565b6000815190506110318161100b565b92915050565b600080600080600060a0868803121561105357611052610bc8565b5b600061106188828901610fec565b955050602061107288828901611022565b945050604061108388828901610d85565b935050606061109488828901610d85565b92505060806110a588828901610fec565b9150509295509295909350565b60006110bd82611001565b91506110c883611001565b92508282026110d681611001565b91507f8000000000000000000000000000000000000000000000000000000000000000841460008412161561110e5761110d610d22565b5b828205841483151761112357611122610d22565b5b5092915050565b7f4e487b7100000000000000000000000000000000000000000000000000000000600052605160045260246000fdfea2646970667358221220464f5e698e7e4af306c3cc4def113ede9f2fd43a4fc78605f80757f1c33c162364736f6c63430008180033",
  "devdoc": {
    "kind": "dev",
    "methods": {},
    "version": 1
  },
  "userdoc": {
    "kind": "user",
    "methods": {},
    "version": 1
  },
  "storageLayout": {
    "storage": [
      {
        "astId": 309,
        "contract": "contracts/FundMeHelper.sol:FundMeHelper",
        "label": "fundMeContract",
        "offset": 0,
        "slot": "0",
        "type": "t_contract(FundMe)289"
      }
    ],
    "types": {
      "t_contract(FundMe)289": {
        "encoding": "inplace",
        "label": "contract FundMe",
        "numberOfBytes": "20"
      }
    }
  }
}