{
  "contractName": "RentablePets",
  "abi": [
    {
      "inputs": [],
      "stateMutability": "nonpayable",
      "type": "constructor"
    },
    {
      "inputs": [
        {
          "internalType": "address",
          "name": "sender",
          "type": "address"
        },
        {
          "internalType": "uint256",
          "name": "tokenId",
          "type": "uint256"
        },
        {
          "internalType": "address",
          "name": "owner",
          "type": "address"
        }
      ],
      "name": "ERC721IncorrectOwner",
      "type": "error"
    },
    {
      "inputs": [
        {
          "internalType": "address",
          "name": "operator",
          "type": "address"
        },
        {
          "internalType": "uint256",
          "name": "tokenId",
          "type": "uint256"
        }
      ],
      "name": "ERC721InsufficientApproval",
      "type": "error"
    },
    {
      "inputs": [
        {
          "internalType": "address",
          "name": "approver",
          "type": "address"
        }
      ],
      "name": "ERC721InvalidApprover",
      "type": "error"
    },
    {
      "inputs": [
        {
          "internalType": "address",
          "name": "operator",
          "type": "address"
        }
      ],
      "name": "ERC721InvalidOperator",
      "type": "error"
    },
    {
      "inputs": [
        {
          "internalType": "address",
          "name": "owner",
          "type": "address"
        }
      ],
      "name": "ERC721InvalidOwner",
      "type": "error"
    },
    {
      "inputs": [
        {
          "internalType": "address",
          "name": "receiver",
          "type": "address"
        }
      ],
      "name": "ERC721InvalidReceiver",
      "type": "error"
    },
    {
      "inputs": [
        {
          "internalType": "address",
          "name": "sender",
          "type": "address"
        }
      ],
      "name": "ERC721InvalidSender",
      "type": "error"
    },
    {
      "inputs": [
        {
          "internalType": "uint256",
          "name": "tokenId",
          "type": "uint256"
        }
      ],
      "name": "ERC721NonexistentToken",
      "type": "error"
    },
    {
      "anonymous": false,
      "inputs": [
        {
          "indexed": true,
          "internalType": "address",
          "name": "owner",
          "type": "address"
        },
        {
          "indexed": true,
          "internalType": "address",
          "name": "approved",
          "type": "address"
        },
        {
          "indexed": true,
          "internalType": "uint256",
          "name": "tokenId",
          "type": "uint256"
        }
      ],
      "name": "Approval",
      "type": "event"
    },
    {
      "anonymous": false,
      "inputs": [
        {
          "indexed": true,
          "internalType": "address",
          "name": "owner",
          "type": "address"
        },
        {
          "indexed": true,
          "internalType": "address",
          "name": "operator",
          "type": "address"
        },
        {
          "indexed": false,
          "internalType": "bool",
          "name": "approved",
          "type": "bool"
        }
      ],
      "name": "ApprovalForAll",
      "type": "event"
    },
    {
      "anonymous": false,
      "inputs": [
        {
          "indexed": false,
          "internalType": "uint256",
          "name": "_fromTokenId",
          "type": "uint256"
        },
        {
          "indexed": false,
          "internalType": "uint256",
          "name": "_toTokenId",
          "type": "uint256"
        }
      ],
      "name": "BatchMetadataUpdate",
      "type": "event"
    },
    {
      "anonymous": false,
      "inputs": [
        {
          "indexed": false,
          "internalType": "uint256",
          "name": "_tokenId",
          "type": "uint256"
        }
      ],
      "name": "MetadataUpdate",
      "type": "event"
    },
    {
      "anonymous": false,
      "inputs": [
        {
          "indexed": true,
          "internalType": "address",
          "name": "from",
          "type": "address"
        },
        {
          "indexed": true,
          "internalType": "address",
          "name": "to",
          "type": "address"
        },
        {
          "indexed": true,
          "internalType": "uint256",
          "name": "tokenId",
          "type": "uint256"
        }
      ],
      "name": "Transfer",
      "type": "event"
    },
    {
      "anonymous": false,
      "inputs": [
        {
          "indexed": true,
          "internalType": "uint256",
          "name": "tokenId",
          "type": "uint256"
        },
        {
          "indexed": true,
          "internalType": "address",
          "name": "user",
          "type": "address"
        },
        {
          "indexed": false,
          "internalType": "uint64",
          "name": "expires",
          "type": "uint64"
        }
      ],
      "name": "UpdateUser",
      "type": "event"
    },
    {
      "inputs": [
        {
          "internalType": "address",
          "name": "to",
          "type": "address"
        },
        {
          "internalType": "uint256",
          "name": "tokenId",
          "type": "uint256"
        }
      ],
      "name": "approve",
      "outputs": [],
      "stateMutability": "nonpayable",
      "type": "function"
    },
    {
      "inputs": [
        {
          "internalType": "address",
          "name": "owner",
          "type": "address"
        }
      ],
      "name": "balanceOf",
      "outputs": [
        {
          "internalType": "uint256",
          "name": "",
          "type": "uint256"
        }
      ],
      "stateMutability": "view",
      "type": "function",
      "constant": true
    },
    {
      "inputs": [
        {
          "internalType": "uint256",
          "name": "tokenId",
          "type": "uint256"
        }
      ],
      "name": "getApproved",
      "outputs": [
        {
          "internalType": "address",
          "name": "",
          "type": "address"
        }
      ],
      "stateMutability": "view",
      "type": "function",
      "constant": true
    },
    {
      "inputs": [],
      "name": "getUserInfo",
      "outputs": [
        {
          "components": [
            {
              "internalType": "address",
              "name": "user",
              "type": "address"
            },
            {
              "internalType": "uint64",
              "name": "expires",
              "type": "uint64"
            }
          ],
          "internalType": "struct ERC4907.UserInfo[]",
          "name": "",
          "type": "tuple[]"
        }
      ],
      "stateMutability": "view",
      "type": "function",
      "constant": true
    },
    {
      "inputs": [
        {
          "internalType": "address",
          "name": "owner",
          "type": "address"
        },
        {
          "internalType": "address",
          "name": "operator",
          "type": "address"
        }
      ],
      "name": "isApprovedForAll",
      "outputs": [
        {
          "internalType": "bool",
          "name": "",
          "type": "bool"
        }
      ],
      "stateMutability": "view",
      "type": "function",
      "constant": true
    },
    {
      "inputs": [],
      "name": "name",
      "outputs": [
        {
          "internalType": "string",
          "name": "",
          "type": "string"
        }
      ],
      "stateMutability": "view",
      "type": "function",
      "constant": true
    },
    {
      "inputs": [
        {
          "internalType": "uint256",
          "name": "tokenId",
          "type": "uint256"
        }
      ],
      "name": "ownerOf",
      "outputs": [
        {
          "internalType": "address",
          "name": "",
          "type": "address"
        }
      ],
      "stateMutability": "view",
      "type": "function",
      "constant": true
    },
    {
      "inputs": [
        {
          "internalType": "address",
          "name": "from",
          "type": "address"
        },
        {
          "internalType": "address",
          "name": "to",
          "type": "address"
        },
        {
          "internalType": "uint256",
          "name": "tokenId",
          "type": "uint256"
        }
      ],
      "name": "safeTransferFrom",
      "outputs": [],
      "stateMutability": "nonpayable",
      "type": "function"
    },
    {
      "inputs": [
        {
          "internalType": "address",
          "name": "from",
          "type": "address"
        },
        {
          "internalType": "address",
          "name": "to",
          "type": "address"
        },
        {
          "internalType": "uint256",
          "name": "tokenId",
          "type": "uint256"
        },
        {
          "internalType": "bytes",
          "name": "data",
          "type": "bytes"
        }
      ],
      "name": "safeTransferFrom",
      "outputs": [],
      "stateMutability": "nonpayable",
      "type": "function"
    },
    {
      "inputs": [
        {
          "internalType": "address",
          "name": "operator",
          "type": "address"
        },
        {
          "internalType": "bool",
          "name": "approved",
          "type": "bool"
        }
      ],
      "name": "setApprovalForAll",
      "outputs": [],
      "stateMutability": "nonpayable",
      "type": "function"
    },
    {
      "inputs": [
        {
          "internalType": "uint256",
          "name": "tokenId",
          "type": "uint256"
        },
        {
          "internalType": "address",
          "name": "user",
          "type": "address"
        },
        {
          "internalType": "uint64",
          "name": "expires",
          "type": "uint64"
        }
      ],
      "name": "setUser",
      "outputs": [],
      "stateMutability": "nonpayable",
      "type": "function"
    },
    {
      "inputs": [
        {
          "internalType": "bytes4",
          "name": "interfaceId",
          "type": "bytes4"
        }
      ],
      "name": "supportsInterface",
      "outputs": [
        {
          "internalType": "bool",
          "name": "",
          "type": "bool"
        }
      ],
      "stateMutability": "view",
      "type": "function",
      "constant": true
    },
    {
      "inputs": [],
      "name": "symbol",
      "outputs": [
        {
          "internalType": "string",
          "name": "",
          "type": "string"
        }
      ],
      "stateMutability": "view",
      "type": "function",
      "constant": true
    },
    {
      "inputs": [
        {
          "internalType": "uint256",
          "name": "tokenId",
          "type": "uint256"
        }
      ],
      "name": "tokenURI",
      "outputs": [
        {
          "internalType": "string",
          "name": "",
          "type": "string"
        }
      ],
      "stateMutability": "view",
      "type": "function",
      "constant": true
    },
    {
      "inputs": [],
      "name": "totalSupply",
      "outputs": [
        {
          "internalType": "uint256",
          "name": "",
          "type": "uint256"
        }
      ],
      "stateMutability": "view",
      "type": "function",
      "constant": true
    },
    {
      "inputs": [
        {
          "internalType": "address",
          "name": "from",
          "type": "address"
        },
        {
          "internalType": "address",
          "name": "to",
          "type": "address"
        },
        {
          "internalType": "uint256",
          "name": "tokenId",
          "type": "uint256"
        }
      ],
      "name": "transferFrom",
      "outputs": [],
      "stateMutability": "nonpayable",
      "type": "function"
    },
    {
      "inputs": [
        {
          "internalType": "uint256",
          "name": "tokenId",
          "type": "uint256"
        }
      ],
      "name": "userExpires",
      "outputs": [
        {
          "internalType": "uint256",
          "name": "",
          "type": "uint256"
        }
      ],
      "stateMutability": "view",
      "type": "function",
      "constant": true
    },
    {
      "inputs": [
        {
          "internalType": "uint256",
          "name": "tokenId",
          "type": "uint256"
        }
      ],
      "name": "userOf",
      "outputs": [
        {
          "internalType": "address",
          "name": "",
          "type": "address"
        }
      ],
      "stateMutability": "view",
      "type": "function",
      "constant": true
    },
    {
      "inputs": [
        {
          "internalType": "address",
          "name": "recipient",
          "type": "address"
        },
        {
          "internalType": "string",
          "name": "token_uri",
          "type": "string"
        }
      ],
      "name": "mintNFT",
      "outputs": [
        {
          "internalType": "uint256",
          "name": "",
          "type": "uint256"
        }
      ],
      "stateMutability": "nonpayable",
      "type": "function"
    },
    {
      "inputs": [
        {
          "internalType": "uint256",
          "name": "tokenId",
          "type": "uint256"
        }
      ],
      "name": "burn",
      "outputs": [],
      "stateMutability": "nonpayable",
      "type": "function"
    }
  ],
  "bytecode": "0x608060405234801562000010575f80fd5b506040518060400160405280600c81526020017f52656e7461626c655065747300000000000000000000000000000000000000008152506040518060400160405280600281526020017f52500000000000000000000000000000000000000000000000000000000000008152508181815f90816200008f919062000310565b508060019081620000a1919062000310565b5050505050620003f4565b5f81519050919050565b7f4e487b71000000000000000000000000000000000000000000000000000000005f52604160045260245ffd5b7f4e487b71000000000000000000000000000000000000000000000000000000005f52602260045260245ffd5b5f60028204905060018216806200012857607f821691505b6020821081036200013e576200013d620000e3565b5b50919050565b5f819050815f5260205f209050919050565b5f6020601f8301049050919050565b5f82821b905092915050565b5f60088302620001a27fffffffffffffffffffffffffffffffffffffffffffffffffffffffffffffffff8262000165565b620001ae868362000165565b95508019841693508086168417925050509392505050565b5f819050919050565b5f819050919050565b5f620001f8620001f2620001ec84620001c6565b620001cf565b620001c6565b9050919050565b5f819050919050565b6200021383620001d8565b6200022b6200022282620001ff565b84845462000171565b825550505050565b5f90565b6200024162000233565b6200024e81848462000208565b505050565b5b818110156200027557620002695f8262000237565b60018101905062000254565b5050565b601f821115620002c4576200028e8162000144565b620002998462000156565b81016020851015620002a9578190505b620002c1620002b88562000156565b83018262000253565b50505b505050565b5f82821c905092915050565b5f620002e65f1984600802620002c9565b1980831691505092915050565b5f620003008383620002d5565b9150826002028217905092915050565b6200031b82620000ac565b67ffffffffffffffff811115620003375762000336620000b6565b5b62000343825462000110565b6200035082828562000279565b5f60209050601f83116001811462000386575f841562000371578287015190505b6200037d8582620002f3565b865550620003ec565b601f198416620003968662000144565b5f5b82811015620003bf5784890151825560018201915060208501945060208101905062000398565b86831015620003df5784890151620003db601f891682620002d5565b8355505b6001600288020188555050505b505050505050565b612cea80620004025f395ff3fe608060405234801561000f575f80fd5b506004361061012a575f3560e01c806370a08231116100ab578063c2f1f14a1161006f578063c2f1f14a1461033e578063c87b56dd1461036e578063e030565e1461039e578063e985e9c5146103ba578063eacabe14146103ea5761012a565b806370a08231146102885780638fc88c48146102b857806395d89b41146102e8578063a22cb46514610306578063b88d4fde146103225761012a565b806323b872dd116100f257806323b872dd146101e657806342842e0e1461020257806342966c681461021e5780635d8d15851461023a5780636352211e146102585761012a565b806301ffc9a71461012e57806306fdde031461015e578063081812fc1461017c578063095ea7b3146101ac57806318160ddd146101c8575b5f80fd5b61014860048036038101906101439190611e66565b61041a565b6040516101559190611eab565b60405180910390f35b610166610493565b6040516101739190611f4e565b60405180910390f35b61019660048036038101906101919190611fa1565b610522565b6040516101a3919061200b565b60405180910390f35b6101c660048036038101906101c1919061204e565b61053d565b005b6101d0610553565b6040516101dd919061209b565b60405180910390f35b61020060048036038101906101fb91906120b4565b610559565b005b61021c600480360381019061021791906120b4565b610658565b005b61023860048036038101906102339190611fa1565b610677565b005b610242610683565b60405161024f919061220a565b60405180910390f35b610272600480360381019061026d9190611fa1565b610784565b60405161027f919061200b565b60405180910390f35b6102a2600480360381019061029d919061222a565b610795565b6040516102af919061209b565b60405180910390f35b6102d260048036038101906102cd9190611fa1565b61084b565b6040516102df919061209b565b60405180910390f35b6102f0610885565b6040516102fd9190611f4e565b60405180910390f35b610320600480360381019061031b919061227f565b610915565b005b61033c600480360381019061033791906123e9565b61092b565b005b61035860048036038101906103539190611fa1565b610948565b604051610365919061200b565b60405180910390f35b61038860048036038101906103839190611fa1565b6109c4565b6040516103959190611f4e565b60405180910390f35b6103b860048036038101906103b39190612493565b610acf565b005b6103d460048036038101906103cf91906124e3565b610c19565b6040516103e19190611eab565b60405180910390f35b61040460048036038101906103ff91906125bf565b610ca7565b604051610411919061209b565b60405180910390f35b5f7fad092b5c000000000000000000000000000000000000000000000000000000007bffffffffffffffffffffffffffffffffffffffffffffffffffffffff1916827bffffffffffffffffffffffffffffffffffffffffffffffffffffffff1916148061048c575061048b82610ce3565b5b9050919050565b60605f80546104a190612646565b80601f01602080910402602001604051908101604052809291908181526020018280546104cd90612646565b80156105185780601f106104ef57610100808354040283529160200191610518565b820191905f5260205f20905b8154815290600101906020018083116104fb57829003601f168201915b5050505050905090565b5f61052c82610d43565b5061053682610dc9565b9050919050565b61054f828261054a610e02565b610e09565b5050565b60085481565b5f73ffffffffffffffffffffffffffffffffffffffff168273ffffffffffffffffffffffffffffffffffffffff16036105c9575f6040517f64a0ae920000000000000000000000000000000000000000000000000000000081526004016105c0919061200b565b60405180910390fd5b5f6105dc83836105d7610e02565b610e1b565b90508373ffffffffffffffffffffffffffffffffffffffff168173ffffffffffffffffffffffffffffffffffffffff1614610652578382826040517f64283d7b00000000000000000000000000000000000000000000000000000000815260040161064993929190612676565b60405180910390fd5b50505050565b61067283838360405180602001604052805f81525061092b565b505050565b61068081610f77565b50565b6060805f600190505b6008548160ff161161077c5760075f8260ff1681526020019081526020015f206040518060400160405290815f82015f9054906101000a900473ffffffffffffffffffffffffffffffffffffffff1673ffffffffffffffffffffffffffffffffffffffff1673ffffffffffffffffffffffffffffffffffffffff1681526020015f820160149054906101000a900467ffffffffffffffff1667ffffffffffffffff1667ffffffffffffffff16815250508260018361074a91906126e4565b60ff168151811061075e5761075d612718565b5b6020026020010181905250808061077490612745565b91505061068c565b508091505090565b5f61078e82610d43565b9050919050565b5f8073ffffffffffffffffffffffffffffffffffffffff168273ffffffffffffffffffffffffffffffffffffffff1603610806575f6040517f89c62b640000000000000000000000000000000000000000000000000000000081526004016107fd919061200b565b60405180910390fd5b60035f8373ffffffffffffffffffffffffffffffffffffffff1673ffffffffffffffffffffffffffffffffffffffff1681526020019081526020015f20549050919050565b5f60075f8381526020019081526020015f205f0160149054906101000a900467ffffffffffffffff1667ffffffffffffffff169050919050565b60606001805461089490612646565b80601f01602080910402602001604051908101604052809291908181526020018280546108c090612646565b801561090b5780601f106108e25761010080835404028352916020019161090b565b820191905f5260205f20905b8154815290600101906020018083116108ee57829003601f168201915b5050505050905090565b610927610920610e02565b8383610ff9565b5050565b610936848484610559565b61094284848484611162565b50505050565b5f4260075f8481526020019081526020015f205f0160149054906101000a900467ffffffffffffffff1667ffffffffffffffff16106109bb5760075f8381526020019081526020015f205f015f9054906101000a900473ffffffffffffffffffffffffffffffffffffffff1690506109bf565b5f90505b919050565b60606109cf82610d43565b505f60065f8481526020019081526020015f2080546109ed90612646565b80601f0160208091040260200160405190810160405280929190818152602001828054610a1990612646565b8015610a645780601f10610a3b57610100808354040283529160200191610a64565b820191905f5260205f20905b815481529060010190602001808311610a4757829003601f168201915b505050505090505f610a74611314565b90505f815103610a88578192505050610aca565b5f82511115610abc578082604051602001610aa49291906127a7565b60405160208183030381529060405292505050610aca565b610ac58461132a565b925050505b919050565b3373ffffffffffffffffffffffffffffffffffffffff16610aef84611390565b73ffffffffffffffffffffffffffffffffffffffff1614610b45576040517f08c379a0000000000000000000000000000000000000000000000000000000008152600401610b3c9061283a565b60405180910390fd5b5f60075f8581526020019081526020015f20905082815f015f6101000a81548173ffffffffffffffffffffffffffffffffffffffff021916908373ffffffffffffffffffffffffffffffffffffffff16021790555081815f0160146101000a81548167ffffffffffffffff021916908367ffffffffffffffff1602179055508273ffffffffffffffffffffffffffffffffffffffff16847f4e06b4e7000e659094299b3533b47b6aa8ad048e95e872d23d1f4ee55af89cfe84604051610c0b9190612867565b60405180910390a350505050565b5f60055f8473ffffffffffffffffffffffffffffffffffffffff1673ffffffffffffffffffffffffffffffffffffffff1681526020019081526020015f205f8373ffffffffffffffffffffffffffffffffffffffff1673ffffffffffffffffffffffffffffffffffffffff1681526020019081526020015f205f9054906101000a900460ff16905092915050565b5f60095f815480929190610cba90612880565b91905055505f6009549050610ccf84826113c9565b610cd981846113e6565b8091505092915050565b5f634906490660e01b7bffffffffffffffffffffffffffffffffffffffffffffffffffffffff1916827bffffffffffffffffffffffffffffffffffffffffffffffffffffffff19161480610d3c5750610d3b82611440565b5b9050919050565b5f80610d4e83611390565b90505f73ffffffffffffffffffffffffffffffffffffffff168173ffffffffffffffffffffffffffffffffffffffff1603610dc057826040517f7e273289000000000000000000000000000000000000000000000000000000008152600401610db7919061209b565b60405180910390fd5b80915050919050565b5f60045f8381526020019081526020015f205f9054906101000a900473ffffffffffffffffffffffffffffffffffffffff169050919050565b5f33905090565b610e168383836001611521565b505050565b5f80610e288585856116e0565b90508473ffffffffffffffffffffffffffffffffffffffff168173ffffffffffffffffffffffffffffffffffffffff1614158015610ec457505f73ffffffffffffffffffffffffffffffffffffffff1660075f8681526020019081526020015f205f015f9054906101000a900473ffffffffffffffffffffffffffffffffffffffff1673ffffffffffffffffffffffffffffffffffffffff1614155b15610f6c5760075f8581526020019081526020015f205f8082015f6101000a81549073ffffffffffffffffffffffffffffffffffffffff02191690555f820160146101000a81549067ffffffffffffffff021916905550505f73ffffffffffffffffffffffffffffffffffffffff16847f4e06b4e7000e659094299b3533b47b6aa8ad048e95e872d23d1f4ee55af89cfe5f604051610f639190612909565b60405180910390a35b809150509392505050565b5f610f835f835f610e1b565b90505f73ffffffffffffffffffffffffffffffffffffffff168173ffffffffffffffffffffffffffffffffffffffff1603610ff557816040517f7e273289000000000000000000000000000000000000000000000000000000008152600401610fec919061209b565b60405180910390fd5b5050565b5f73ffffffffffffffffffffffffffffffffffffffff168273ffffffffffffffffffffffffffffffffffffffff160361106957816040517f5b08ba18000000000000000000000000000000000000000000000000000000008152600401611060919061200b565b60405180910390fd5b8060055f8573ffffffffffffffffffffffffffffffffffffffff1673ffffffffffffffffffffffffffffffffffffffff1681526020019081526020015f205f8473ffffffffffffffffffffffffffffffffffffffff1673ffffffffffffffffffffffffffffffffffffffff1681526020019081526020015f205f6101000a81548160ff0219169083151502179055508173ffffffffffffffffffffffffffffffffffffffff168373ffffffffffffffffffffffffffffffffffffffff167f17307eab39ab6107e8899845ad3d59bd9653f200f220920489ca2b5937696c31836040516111559190611eab565b60405180910390a3505050565b5f8373ffffffffffffffffffffffffffffffffffffffff163b111561130e578273ffffffffffffffffffffffffffffffffffffffff1663150b7a026111a5610e02565b8685856040518563ffffffff1660e01b81526004016111c79493929190612974565b6020604051808303815f875af192505050801561120257506040513d601f19601f820116820180604052508101906111ff91906129d2565b60015b611283573d805f8114611230576040519150601f19603f3d011682016040523d82523d5f602084013e611235565b606091505b505f81510361127b57836040517f64a0ae92000000000000000000000000000000000000000000000000000000008152600401611272919061200b565b60405180910390fd5b805181602001fd5b63150b7a0260e01b7bffffffffffffffffffffffffffffffffffffffffffffffffffffffff1916817bffffffffffffffffffffffffffffffffffffffffffffffffffffffff19161461130c57836040517f64a0ae92000000000000000000000000000000000000000000000000000000008152600401611303919061200b565b60405180910390fd5b505b50505050565b606060405180602001604052805f815250905090565b606061133582610d43565b505f61133f611314565b90505f81511161135d5760405180602001604052805f815250611388565b80611367846118eb565b6040516020016113789291906127a7565b6040516020818303038152906040525b915050919050565b5f60025f8381526020019081526020015f205f9054906101000a900473ffffffffffffffffffffffffffffffffffffffff169050919050565b6113e2828260405180602001604052805f8152506119b5565b5050565b8060065f8481526020019081526020015f2090816114049190612b91565b507ff8e1a15aba9398e019f0b49df1a4fde98ee17ae345cb5f6b5e2c27f5033e8ce782604051611434919061209b565b60405180910390a15050565b5f7f80ac58cd000000000000000000000000000000000000000000000000000000007bffffffffffffffffffffffffffffffffffffffffffffffffffffffff1916827bffffffffffffffffffffffffffffffffffffffffffffffffffffffff1916148061150a57507f5b5e139f000000000000000000000000000000000000000000000000000000007bffffffffffffffffffffffffffffffffffffffffffffffffffffffff1916827bffffffffffffffffffffffffffffffffffffffffffffffffffffffff1916145b8061151a5750611519826119d0565b5b9050919050565b808061155957505f73ffffffffffffffffffffffffffffffffffffffff168273ffffffffffffffffffffffffffffffffffffffff1614155b1561168b575f61156884610d43565b90505f73ffffffffffffffffffffffffffffffffffffffff168373ffffffffffffffffffffffffffffffffffffffff16141580156115d257508273ffffffffffffffffffffffffffffffffffffffff168173ffffffffffffffffffffffffffffffffffffffff1614155b80156115e557506115e38184610c19565b155b1561162757826040517fa9fbf51f00000000000000000000000000000000000000000000000000000000815260040161161e919061200b565b60405180910390fd5b811561168957838573ffffffffffffffffffffffffffffffffffffffff168273ffffffffffffffffffffffffffffffffffffffff167f8c5be1e5ebec7d5bd14f71427d1e84f3dd0314c0f7b2291e5b200ac8c7c3b92560405160405180910390a45b505b8360045f8581526020019081526020015f205f6101000a81548173ffffffffffffffffffffffffffffffffffffffff021916908373ffffffffffffffffffffffffffffffffffffffff16021790555050505050565b5f806116eb84611390565b90505f73ffffffffffffffffffffffffffffffffffffffff168373ffffffffffffffffffffffffffffffffffffffff161461172c5761172b818486611a39565b5b5f73ffffffffffffffffffffffffffffffffffffffff168173ffffffffffffffffffffffffffffffffffffffff16146117b75761176b5f855f80611521565b600160035f8373ffffffffffffffffffffffffffffffffffffffff1673ffffffffffffffffffffffffffffffffffffffff1681526020019081526020015f205f82825403925050819055505b5f73ffffffffffffffffffffffffffffffffffffffff168573ffffffffffffffffffffffffffffffffffffffff161461183657600160035f8773ffffffffffffffffffffffffffffffffffffffff1673ffffffffffffffffffffffffffffffffffffffff1681526020019081526020015f205f82825401925050819055505b8460025f8681526020019081526020015f205f6101000a81548173ffffffffffffffffffffffffffffffffffffffff021916908373ffffffffffffffffffffffffffffffffffffffff160217905550838573ffffffffffffffffffffffffffffffffffffffff168273ffffffffffffffffffffffffffffffffffffffff167fddf252ad1be2c89b69c2b068fc378daa952ba7f163c4a11628f55a4df523b3ef60405160405180910390a4809150509392505050565b60605f60016118f984611afc565b0190505f8167ffffffffffffffff811115611917576119166122c5565b5b6040519080825280601f01601f1916602001820160405280156119495781602001600182028036833780820191505090505b5090505f82602001820190505b6001156119aa578080600190039150507f3031323334353637383961626364656600000000000000000000000000000000600a86061a8153600a858161199f5761199e612c60565b5b0494505f8503611956575b819350505050919050565b6119bf8383611c4d565b6119cb5f848484611162565b505050565b5f7f01ffc9a7000000000000000000000000000000000000000000000000000000007bffffffffffffffffffffffffffffffffffffffffffffffffffffffff1916827bffffffffffffffffffffffffffffffffffffffffffffffffffffffff1916149050919050565b611a44838383611d40565b611af7575f73ffffffffffffffffffffffffffffffffffffffff168373ffffffffffffffffffffffffffffffffffffffff1603611ab857806040517f7e273289000000000000000000000000000000000000000000000000000000008152600401611aaf919061209b565b60405180910390fd5b81816040517f177e802f000000000000000000000000000000000000000000000000000000008152600401611aee929190612c8d565b60405180910390fd5b505050565b5f805f90507a184f03e93ff9f4daa797ed6e38ed64bf6a1f0100000000000000008310611b58577a184f03e93ff9f4daa797ed6e38ed64bf6a1f0100000000000000008381611b4e57611b4d612c60565b5b0492506040810190505b6d04ee2d6d415b85acef81000000008310611b95576d04ee2d6d415b85acef81000000008381611b8b57611b8a612c60565b5b0492506020810190505b662386f26fc100008310611bc457662386f26fc100008381611bba57611bb9612c60565b5b0492506010810190505b6305f5e1008310611bed576305f5e1008381611be357611be2612c60565b5b0492506008810190505b6127108310611c12576127108381611c0857611c07612c60565b5b0492506004810190505b60648310611c355760648381611c2b57611c2a612c60565b5b0492506002810190505b600a8310611c44576001810190505b80915050919050565b5f73ffffffffffffffffffffffffffffffffffffffff168273ffffffffffffffffffffffffffffffffffffffff1603611cbd575f6040517f64a0ae92000000000000000000000000000000000000000000000000000000008152600401611cb4919061200b565b60405180910390fd5b5f611cc983835f610e1b565b90505f73ffffffffffffffffffffffffffffffffffffffff168173ffffffffffffffffffffffffffffffffffffffff1614611d3b575f6040517f73c6ac6e000000000000000000000000000000000000000000000000000000008152600401611d32919061200b565b60405180910390fd5b505050565b5f8073ffffffffffffffffffffffffffffffffffffffff168373ffffffffffffffffffffffffffffffffffffffff1614158015611df757508273ffffffffffffffffffffffffffffffffffffffff168473ffffffffffffffffffffffffffffffffffffffff161480611db85750611db78484610c19565b5b80611df657508273ffffffffffffffffffffffffffffffffffffffff16611dde83610dc9565b73ffffffffffffffffffffffffffffffffffffffff16145b5b90509392505050565b5f604051905090565b5f80fd5b5f80fd5b5f7fffffffff0000000000000000000000000000000000000000000000000000000082169050919050565b611e4581611e11565b8114611e4f575f80fd5b50565b5f81359050611e6081611e3c565b92915050565b5f60208284031215611e7b57611e7a611e09565b5b5f611e8884828501611e52565b91505092915050565b5f8115159050919050565b611ea581611e91565b82525050565b5f602082019050611ebe5f830184611e9c565b92915050565b5f81519050919050565b5f82825260208201905092915050565b5f5b83811015611efb578082015181840152602081019050611ee0565b5f8484015250505050565b5f601f19601f8301169050919050565b5f611f2082611ec4565b611f2a8185611ece565b9350611f3a818560208601611ede565b611f4381611f06565b840191505092915050565b5f6020820190508181035f830152611f668184611f16565b905092915050565b5f819050919050565b611f8081611f6e565b8114611f8a575f80fd5b50565b5f81359050611f9b81611f77565b92915050565b5f60208284031215611fb657611fb5611e09565b5b5f611fc384828501611f8d565b91505092915050565b5f73ffffffffffffffffffffffffffffffffffffffff82169050919050565b5f611ff582611fcc565b9050919050565b61200581611feb565b82525050565b5f60208201905061201e5f830184611ffc565b92915050565b61202d81611feb565b8114612037575f80fd5b50565b5f8135905061204881612024565b92915050565b5f806040838503121561206457612063611e09565b5b5f6120718582860161203a565b925050602061208285828601611f8d565b9150509250929050565b61209581611f6e565b82525050565b5f6020820190506120ae5f83018461208c565b92915050565b5f805f606084860312156120cb576120ca611e09565b5b5f6120d88682870161203a565b93505060206120e98682870161203a565b92505060406120fa86828701611f8d565b9150509250925092565b5f81519050919050565b5f82825260208201905092915050565b5f819050602082019050919050565b61213681611feb565b82525050565b5f67ffffffffffffffff82169050919050565b6121588161213c565b82525050565b604082015f8201516121725f85018261212d565b506020820151612185602085018261214f565b50505050565b5f612196838361215e565b60408301905092915050565b5f602082019050919050565b5f6121b882612104565b6121c2818561210e565b93506121cd8361211e565b805f5b838110156121fd5781516121e4888261218b565b97506121ef836121a2565b9250506001810190506121d0565b5085935050505092915050565b5f6020820190508181035f83015261222281846121ae565b905092915050565b5f6020828403121561223f5761223e611e09565b5b5f61224c8482850161203a565b91505092915050565b61225e81611e91565b8114612268575f80fd5b50565b5f8135905061227981612255565b92915050565b5f806040838503121561229557612294611e09565b5b5f6122a28582860161203a565b92505060206122b38582860161226b565b9150509250929050565b5f80fd5b5f80fd5b7f4e487b71000000000000000000000000000000000000000000000000000000005f52604160045260245ffd5b6122fb82611f06565b810181811067ffffffffffffffff8211171561231a576123196122c5565b5b80604052505050565b5f61232c611e00565b905061233882826122f2565b919050565b5f67ffffffffffffffff821115612357576123566122c5565b5b61236082611f06565b9050602081019050919050565b828183375f83830152505050565b5f61238d6123888461233d565b612323565b9050828152602081018484840111156123a9576123a86122c1565b5b6123b484828561236d565b509392505050565b5f82601f8301126123d0576123cf6122bd565b5b81356123e084826020860161237b565b91505092915050565b5f805f806080858703121561240157612400611e09565b5b5f61240e8782880161203a565b945050602061241f8782880161203a565b935050604061243087828801611f8d565b925050606085013567ffffffffffffffff81111561245157612450611e0d565b5b61245d878288016123bc565b91505092959194509250565b6124728161213c565b811461247c575f80fd5b50565b5f8135905061248d81612469565b92915050565b5f805f606084860312156124aa576124a9611e09565b5b5f6124b786828701611f8d565b93505060206124c88682870161203a565b92505060406124d98682870161247f565b9150509250925092565b5f80604083850312156124f9576124f8611e09565b5b5f6125068582860161203a565b92505060206125178582860161203a565b9150509250929050565b5f67ffffffffffffffff82111561253b5761253a6122c5565b5b61254482611f06565b9050602081019050919050565b5f61256361255e84612521565b612323565b90508281526020810184848401111561257f5761257e6122c1565b5b61258a84828561236d565b509392505050565b5f82601f8301126125a6576125a56122bd565b5b81356125b6848260208601612551565b91505092915050565b5f80604083850312156125d5576125d4611e09565b5b5f6125e28582860161203a565b925050602083013567ffffffffffffffff81111561260357612602611e0d565b5b61260f85828601612592565b9150509250929050565b7f4e487b71000000000000000000000000000000000000000000000000000000005f52602260045260245ffd5b5f600282049050600182168061265d57607f821691505b6020821081036126705761266f612619565b5b50919050565b5f6060820190506126895f830186611ffc565b612696602083018561208c565b6126a36040830184611ffc565b949350505050565b5f60ff82169050919050565b7f4e487b71000000000000000000000000000000000000000000000000000000005f52601160045260245ffd5b5f6126ee826126ab565b91506126f9836126ab565b9250828203905060ff811115612712576127116126b7565b5b92915050565b7f4e487b71000000000000000000000000000000000000000000000000000000005f52603260045260245ffd5b5f61274f826126ab565b915060ff8203612762576127616126b7565b5b600182019050919050565b5f81905092915050565b5f61278182611ec4565b61278b818561276d565b935061279b818560208601611ede565b80840191505092915050565b5f6127b28285612777565b91506127be8284612777565b91508190509392505050565b7f4552433732313a207472616e736665722063616c6c6572206973206e6f74206f5f8201527f776e6572206e6f7220617070726f766564000000000000000000000000000000602082015250565b5f612824603183611ece565b915061282f826127ca565b604082019050919050565b5f6020820190508181035f83015261285181612818565b9050919050565b6128618161213c565b82525050565b5f60208201905061287a5f830184612858565b92915050565b5f61288a82611f6e565b91507fffffffffffffffffffffffffffffffffffffffffffffffffffffffffffffffff82036128bc576128bb6126b7565b5b600182019050919050565b5f819050919050565b5f819050919050565b5f6128f36128ee6128e9846128c7565b6128d0565b61213c565b9050919050565b612903816128d9565b82525050565b5f60208201905061291c5f8301846128fa565b92915050565b5f81519050919050565b5f82825260208201905092915050565b5f61294682612922565b612950818561292c565b9350612960818560208601611ede565b61296981611f06565b840191505092915050565b5f6080820190506129875f830187611ffc565b6129946020830186611ffc565b6129a1604083018561208c565b81810360608301526129b3818461293c565b905095945050505050565b5f815190506129cc81611e3c565b92915050565b5f602082840312156129e7576129e6611e09565b5b5f6129f4848285016129be565b91505092915050565b5f819050815f5260205f209050919050565b5f6020601f8301049050919050565b5f82821b905092915050565b5f60088302612a597fffffffffffffffffffffffffffffffffffffffffffffffffffffffffffffffff82612a1e565b612a638683612a1e565b95508019841693508086168417925050509392505050565b5f612a95612a90612a8b84611f6e565b6128d0565b611f6e565b9050919050565b5f819050919050565b612aae83612a7b565b612ac2612aba82612a9c565b848454612a2a565b825550505050565b5f90565b612ad6612aca565b612ae1818484612aa5565b505050565b5b81811015612b0457612af95f82612ace565b600181019050612ae7565b5050565b601f821115612b4957612b1a816129fd565b612b2384612a0f565b81016020851015612b32578190505b612b46612b3e85612a0f565b830182612ae6565b50505b505050565b5f82821c905092915050565b5f612b695f1984600802612b4e565b1980831691505092915050565b5f612b818383612b5a565b9150826002028217905092915050565b612b9a82611ec4565b67ffffffffffffffff811115612bb357612bb26122c5565b5b612bbd8254612646565b612bc8828285612b08565b5f60209050601f831160018114612bf9575f8415612be7578287015190505b612bf18582612b76565b865550612c58565b601f198416612c07866129fd565b5f5b82811015612c2e57848901518255600182019150602085019450602081019050612c09565b86831015612c4b5784890151612c47601f891682612b5a565b8355505b6001600288020188555050505b505050505050565b7f4e487b71000000000000000000000000000000000000000000000000000000005f52601260045260245ffd5b5f604082019050612ca05f830185611ffc565b612cad602083018461208c565b939250505056fea2646970667358221220954442b6f82aa2d881add8b419196f0bb234ede2bae05de3ace0e46eb283f48a64736f6c63430008140033",
  "immutableReferences": {},
  "source": "// SPDX-License-Identifier: MIT\npragma solidity >=0.4.22 <0.9.0;\n\nimport \"./ERC4907.sol\";\n\ncontract RentablePets is ERC4907 {\n    uint256 private _tokenIds;\n\n    constructor() ERC4907(\"RentablePets\", \"RP\") {}\n\n    function mintNFT(\n        address recipient,\n        string memory token_uri\n    ) public returns (uint256) {\n        _tokenIds++;\n        uint256 newItemId = _tokenIds;\n\n        _safeMint(recipient, newItemId);\n        _setTokenURI(newItemId, token_uri);\n\n        return newItemId;\n    }\n\n    function burn(uint256 tokenId) public {\n        _burn(tokenId);\n    }\n}\n",
  "sourcePath": "/home/ricardoalmeida/Solidity_projects/solidity_projects/9_rentable-nft/contracts/RentablePets.sol",
  "compiler": {
    "name": "solc",
    "version": "0.8.20+commit.a1b79de6.Emscripten.clang"
  },
  "schemaVersion": "3.4.13",
  "updatedAt": "2023-11-19T21:04:42.506Z",
  "networkType": "ethereum",
  "devdoc": {
    "errors": {
      "ERC721IncorrectOwner(address,uint256,address)": [
        {
          "details": "Indicates an error related to the ownership over a particular token. Used in transfers.",
          "params": {
            "owner": "Address of the current owner of a token.",
            "sender": "Address whose tokens are being transferred.",
            "tokenId": "Identifier number of a token."
          }
        }
      ],
      "ERC721InsufficientApproval(address,uint256)": [
        {
          "details": "Indicates a failure with the `operator`s approval. Used in transfers.",
          "params": {
            "operator": "Address that may be allowed to operate on tokens without being their owner.",
            "tokenId": "Identifier number of a token."
          }
        }
      ],
      "ERC721InvalidApprover(address)": [
        {
          "details": "Indicates a failure with the `approver` of a token to be approved. Used in approvals.",
          "params": {
            "approver": "Address initiating an approval operation."
          }
        }
      ],
      "ERC721InvalidOperator(address)": [
        {
          "details": "Indicates a failure with the `operator` to be approved. Used in approvals.",
          "params": {
            "operator": "Address that may be allowed to operate on tokens without being their owner."
          }
        }
      ],
      "ERC721InvalidOwner(address)": [
        {
          "details": "Indicates that an address can't be an owner. For example, `address(0)` is a forbidden owner in EIP-20. Used in balance queries.",
          "params": {
            "owner": "Address of the current owner of a token."
          }
        }
      ],
      "ERC721InvalidReceiver(address)": [
        {
          "details": "Indicates a failure with the token `receiver`. Used in transfers.",
          "params": {
            "receiver": "Address to which tokens are being transferred."
          }
        }
      ],
      "ERC721InvalidSender(address)": [
        {
          "details": "Indicates a failure with the token `sender`. Used in transfers.",
          "params": {
            "sender": "Address whose tokens are being transferred."
          }
        }
      ],
      "ERC721NonexistentToken(uint256)": [
        {
          "details": "Indicates a `tokenId` whose `owner` is the zero address.",
          "params": {
            "tokenId": "Identifier number of a token."
          }
        }
      ]
    },
    "events": {
      "Approval(address,address,uint256)": {
        "details": "Emitted when `owner` enables `approved` to manage the `tokenId` token."
      },
      "ApprovalForAll(address,address,bool)": {
        "details": "Emitted when `owner` enables or disables (`approved`) `operator` to manage all of its assets."
      },
      "BatchMetadataUpdate(uint256,uint256)": {
        "details": "This event emits when the metadata of a range of tokens is changed. So that the third-party platforms such as NFT market could timely update the images and related attributes of the NFTs."
      },
      "MetadataUpdate(uint256)": {
        "details": "This event emits when the metadata of a token is changed. So that the third-party platforms such as NFT market could timely update the images and related attributes of the NFT."
      },
      "Transfer(address,address,uint256)": {
        "details": "Emitted when `tokenId` token is transferred from `from` to `to`."
      }
    },
    "kind": "dev",
    "methods": {
      "approve(address,uint256)": {
        "details": "See {IERC721-approve}."
      },
      "balanceOf(address)": {
        "details": "See {IERC721-balanceOf}."
      },
      "getApproved(uint256)": {
        "details": "See {IERC721-getApproved}."
      },
      "isApprovedForAll(address,address)": {
        "details": "See {IERC721-isApprovedForAll}."
      },
      "name()": {
        "details": "See {IERC721Metadata-name}."
      },
      "ownerOf(uint256)": {
        "details": "See {IERC721-ownerOf}."
      },
      "safeTransferFrom(address,address,uint256)": {
        "details": "See {IERC721-safeTransferFrom}."
      },
      "safeTransferFrom(address,address,uint256,bytes)": {
        "details": "See {IERC721-safeTransferFrom}."
      },
      "setApprovalForAll(address,bool)": {
        "details": "See {IERC721-setApprovalForAll}."
      },
      "setUser(uint256,address,uint64)": {
        "details": "The zero address indicates there is no user Throws if `tokenId` is not valid NFT",
        "params": {
          "expires": "UNIX timestamp, The new user could use the NFT before expires",
          "user": "The new user of the NFT"
        }
      },
      "supportsInterface(bytes4)": {
        "details": "See {IERC165-supportsInterface}."
      },
      "symbol()": {
        "details": "See {IERC721Metadata-symbol}."
      },
      "tokenURI(uint256)": {
        "details": "See {IERC721Metadata-tokenURI}."
      },
      "transferFrom(address,address,uint256)": {
        "details": "See {IERC721-transferFrom}."
      },
      "userExpires(uint256)": {
        "details": "The zero vakue undicates that there is no user",
        "params": {
          "tokenId": "The NFT to get the user expires for"
        },
        "returns": {
          "_0": "uint256 The user expires for this NFT"
        }
      },
      "userOf(uint256)": {
        "details": "The zero address indicates that there is no user or the user is expired",
        "params": {
          "tokenId": "The NFT to get the user address for"
        },
        "returns": {
          "_0": "The user address from this NFT"
        }
      }
    },
    "version": 1
  },
  "userdoc": {
    "events": {
      "UpdateUser(uint256,address,uint64)": {
        "notice": "Emitted when the `user` of a NFT or the `expires` of the `user` is changed The zero address for user indicates that there is no user address"
      }
    },
    "kind": "user",
    "methods": {
      "setUser(uint256,address,uint64)": {
        "notice": "set the user and expires of a NFT"
      },
      "userExpires(uint256)": {
        "notice": "Get the user expires of a NFT"
      },
      "userOf(uint256)": {
        "notice": "Get the user address of a NFT"
      }
    },
    "version": 1
  }
}