{
  "contractName": "ERC4907",
  "abi": [
    {
      "inputs": [
        {
          "internalType": "string",
          "name": "_name",
          "type": "string"
        },
        {
          "internalType": "string",
          "name": "_symbol",
          "type": "string"
        }
      ],
      "stateMutability": "nonpayable",
      "type": "constructor"
    },
    {
      "inputs": [
        {
          "internalType": "address",
          "name": "sender",
          "type": "address"
        },
        {
          "internalType": "uint256",
          "name": "tokenId",
          "type": "uint256"
        },
        {
          "internalType": "address",
          "name": "owner",
          "type": "address"
        }
      ],
      "name": "ERC721IncorrectOwner",
      "type": "error"
    },
    {
      "inputs": [
        {
          "internalType": "address",
          "name": "operator",
          "type": "address"
        },
        {
          "internalType": "uint256",
          "name": "tokenId",
          "type": "uint256"
        }
      ],
      "name": "ERC721InsufficientApproval",
      "type": "error"
    },
    {
      "inputs": [
        {
          "internalType": "address",
          "name": "approver",
          "type": "address"
        }
      ],
      "name": "ERC721InvalidApprover",
      "type": "error"
    },
    {
      "inputs": [
        {
          "internalType": "address",
          "name": "operator",
          "type": "address"
        }
      ],
      "name": "ERC721InvalidOperator",
      "type": "error"
    },
    {
      "inputs": [
        {
          "internalType": "address",
          "name": "owner",
          "type": "address"
        }
      ],
      "name": "ERC721InvalidOwner",
      "type": "error"
    },
    {
      "inputs": [
        {
          "internalType": "address",
          "name": "receiver",
          "type": "address"
        }
      ],
      "name": "ERC721InvalidReceiver",
      "type": "error"
    },
    {
      "inputs": [
        {
          "internalType": "address",
          "name": "sender",
          "type": "address"
        }
      ],
      "name": "ERC721InvalidSender",
      "type": "error"
    },
    {
      "inputs": [
        {
          "internalType": "uint256",
          "name": "tokenId",
          "type": "uint256"
        }
      ],
      "name": "ERC721NonexistentToken",
      "type": "error"
    },
    {
      "anonymous": false,
      "inputs": [
        {
          "indexed": true,
          "internalType": "address",
          "name": "owner",
          "type": "address"
        },
        {
          "indexed": true,
          "internalType": "address",
          "name": "approved",
          "type": "address"
        },
        {
          "indexed": true,
          "internalType": "uint256",
          "name": "tokenId",
          "type": "uint256"
        }
      ],
      "name": "Approval",
      "type": "event"
    },
    {
      "anonymous": false,
      "inputs": [
        {
          "indexed": true,
          "internalType": "address",
          "name": "owner",
          "type": "address"
        },
        {
          "indexed": true,
          "internalType": "address",
          "name": "operator",
          "type": "address"
        },
        {
          "indexed": false,
          "internalType": "bool",
          "name": "approved",
          "type": "bool"
        }
      ],
      "name": "ApprovalForAll",
      "type": "event"
    },
    {
      "anonymous": false,
      "inputs": [
        {
          "indexed": false,
          "internalType": "uint256",
          "name": "_fromTokenId",
          "type": "uint256"
        },
        {
          "indexed": false,
          "internalType": "uint256",
          "name": "_toTokenId",
          "type": "uint256"
        }
      ],
      "name": "BatchMetadataUpdate",
      "type": "event"
    },
    {
      "anonymous": false,
      "inputs": [
        {
          "indexed": false,
          "internalType": "uint256",
          "name": "_tokenId",
          "type": "uint256"
        }
      ],
      "name": "MetadataUpdate",
      "type": "event"
    },
    {
      "anonymous": false,
      "inputs": [
        {
          "indexed": true,
          "internalType": "address",
          "name": "from",
          "type": "address"
        },
        {
          "indexed": true,
          "internalType": "address",
          "name": "to",
          "type": "address"
        },
        {
          "indexed": true,
          "internalType": "uint256",
          "name": "tokenId",
          "type": "uint256"
        }
      ],
      "name": "Transfer",
      "type": "event"
    },
    {
      "anonymous": false,
      "inputs": [
        {
          "indexed": true,
          "internalType": "uint256",
          "name": "tokenId",
          "type": "uint256"
        },
        {
          "indexed": true,
          "internalType": "address",
          "name": "user",
          "type": "address"
        },
        {
          "indexed": false,
          "internalType": "uint64",
          "name": "expires",
          "type": "uint64"
        }
      ],
      "name": "UpdateUser",
      "type": "event"
    },
    {
      "inputs": [
        {
          "internalType": "address",
          "name": "to",
          "type": "address"
        },
        {
          "internalType": "uint256",
          "name": "tokenId",
          "type": "uint256"
        }
      ],
      "name": "approve",
      "outputs": [],
      "stateMutability": "nonpayable",
      "type": "function"
    },
    {
      "inputs": [
        {
          "internalType": "address",
          "name": "owner",
          "type": "address"
        }
      ],
      "name": "balanceOf",
      "outputs": [
        {
          "internalType": "uint256",
          "name": "",
          "type": "uint256"
        }
      ],
      "stateMutability": "view",
      "type": "function"
    },
    {
      "inputs": [
        {
          "internalType": "uint256",
          "name": "tokenId",
          "type": "uint256"
        }
      ],
      "name": "getApproved",
      "outputs": [
        {
          "internalType": "address",
          "name": "",
          "type": "address"
        }
      ],
      "stateMutability": "view",
      "type": "function"
    },
    {
      "inputs": [
        {
          "internalType": "address",
          "name": "owner",
          "type": "address"
        },
        {
          "internalType": "address",
          "name": "operator",
          "type": "address"
        }
      ],
      "name": "isApprovedForAll",
      "outputs": [
        {
          "internalType": "bool",
          "name": "",
          "type": "bool"
        }
      ],
      "stateMutability": "view",
      "type": "function"
    },
    {
      "inputs": [],
      "name": "name",
      "outputs": [
        {
          "internalType": "string",
          "name": "",
          "type": "string"
        }
      ],
      "stateMutability": "view",
      "type": "function"
    },
    {
      "inputs": [
        {
          "internalType": "uint256",
          "name": "tokenId",
          "type": "uint256"
        }
      ],
      "name": "ownerOf",
      "outputs": [
        {
          "internalType": "address",
          "name": "",
          "type": "address"
        }
      ],
      "stateMutability": "view",
      "type": "function"
    },
    {
      "inputs": [
        {
          "internalType": "address",
          "name": "from",
          "type": "address"
        },
        {
          "internalType": "address",
          "name": "to",
          "type": "address"
        },
        {
          "internalType": "uint256",
          "name": "tokenId",
          "type": "uint256"
        }
      ],
      "name": "safeTransferFrom",
      "outputs": [],
      "stateMutability": "nonpayable",
      "type": "function"
    },
    {
      "inputs": [
        {
          "internalType": "address",
          "name": "from",
          "type": "address"
        },
        {
          "internalType": "address",
          "name": "to",
          "type": "address"
        },
        {
          "internalType": "uint256",
          "name": "tokenId",
          "type": "uint256"
        },
        {
          "internalType": "bytes",
          "name": "data",
          "type": "bytes"
        }
      ],
      "name": "safeTransferFrom",
      "outputs": [],
      "stateMutability": "nonpayable",
      "type": "function"
    },
    {
      "inputs": [
        {
          "internalType": "address",
          "name": "operator",
          "type": "address"
        },
        {
          "internalType": "bool",
          "name": "approved",
          "type": "bool"
        }
      ],
      "name": "setApprovalForAll",
      "outputs": [],
      "stateMutability": "nonpayable",
      "type": "function"
    },
    {
      "inputs": [],
      "name": "symbol",
      "outputs": [
        {
          "internalType": "string",
          "name": "",
          "type": "string"
        }
      ],
      "stateMutability": "view",
      "type": "function"
    },
    {
      "inputs": [
        {
          "internalType": "uint256",
          "name": "tokenId",
          "type": "uint256"
        }
      ],
      "name": "tokenURI",
      "outputs": [
        {
          "internalType": "string",
          "name": "",
          "type": "string"
        }
      ],
      "stateMutability": "view",
      "type": "function"
    },
    {
      "inputs": [],
      "name": "totalSupply",
      "outputs": [
        {
          "internalType": "uint256",
          "name": "",
          "type": "uint256"
        }
      ],
      "stateMutability": "view",
      "type": "function"
    },
    {
      "inputs": [
        {
          "internalType": "address",
          "name": "from",
          "type": "address"
        },
        {
          "internalType": "address",
          "name": "to",
          "type": "address"
        },
        {
          "internalType": "uint256",
          "name": "tokenId",
          "type": "uint256"
        }
      ],
      "name": "transferFrom",
      "outputs": [],
      "stateMutability": "nonpayable",
      "type": "function"
    },
    {
      "inputs": [],
      "name": "getUserInfo",
      "outputs": [
        {
          "components": [
            {
              "internalType": "address",
              "name": "user",
              "type": "address"
            },
            {
              "internalType": "uint64",
              "name": "expires",
              "type": "uint64"
            }
          ],
          "internalType": "struct ERC4907.UserInfo[]",
          "name": "",
          "type": "tuple[]"
        }
      ],
      "stateMutability": "view",
      "type": "function"
    },
    {
      "inputs": [
        {
          "internalType": "uint256",
          "name": "tokenId",
          "type": "uint256"
        },
        {
          "internalType": "address",
          "name": "user",
          "type": "address"
        },
        {
          "internalType": "uint64",
          "name": "expires",
          "type": "uint64"
        }
      ],
      "name": "setUser",
      "outputs": [],
      "stateMutability": "nonpayable",
      "type": "function"
    },
    {
      "inputs": [
        {
          "internalType": "uint256",
          "name": "tokenId",
          "type": "uint256"
        }
      ],
      "name": "userOf",
      "outputs": [
        {
          "internalType": "address",
          "name": "",
          "type": "address"
        }
      ],
      "stateMutability": "view",
      "type": "function"
    },
    {
      "inputs": [
        {
          "internalType": "uint256",
          "name": "tokenId",
          "type": "uint256"
        }
      ],
      "name": "userExpires",
      "outputs": [
        {
          "internalType": "uint256",
          "name": "",
          "type": "uint256"
        }
      ],
      "stateMutability": "view",
      "type": "function"
    },
    {
      "inputs": [
        {
          "internalType": "bytes4",
          "name": "interfaceId",
          "type": "bytes4"
        }
      ],
      "name": "supportsInterface",
      "outputs": [
        {
          "internalType": "bool",
          "name": "",
          "type": "bool"
        }
      ],
      "stateMutability": "view",
      "type": "function"
    }
  ],
  "bytecode": "0x608060405234801562000010575f80fd5b5060405162002c2d38038062002c2d8339818101604052810190620000369190620001ea565b8181815f9081620000489190620004a4565b5080600190816200005a9190620004a4565b505050505062000588565b5f604051905090565b5f80fd5b5f80fd5b5f80fd5b5f80fd5b5f601f19601f8301169050919050565b7f4e487b71000000000000000000000000000000000000000000000000000000005f52604160045260245ffd5b620000c6826200007e565b810181811067ffffffffffffffff82111715620000e857620000e76200008e565b5b80604052505050565b5f620000fc62000065565b90506200010a8282620000bb565b919050565b5f67ffffffffffffffff8211156200012c576200012b6200008e565b5b62000137826200007e565b9050602081019050919050565b5f5b838110156200016357808201518184015260208101905062000146565b5f8484015250505050565b5f620001846200017e846200010f565b620000f1565b905082815260208101848484011115620001a357620001a26200007a565b5b620001b084828562000144565b509392505050565b5f82601f830112620001cf57620001ce62000076565b5b8151620001e18482602086016200016e565b91505092915050565b5f80604083850312156200020357620002026200006e565b5b5f83015167ffffffffffffffff81111562000223576200022262000072565b5b6200023185828601620001b8565b925050602083015167ffffffffffffffff81111562000255576200025462000072565b5b6200026385828601620001b8565b9150509250929050565b5f81519050919050565b7f4e487b71000000000000000000000000000000000000000000000000000000005f52602260045260245ffd5b5f6002820490506001821680620002bc57607f821691505b602082108103620002d257620002d162000277565b5b50919050565b5f819050815f5260205f209050919050565b5f6020601f8301049050919050565b5f82821b905092915050565b5f60088302620003367fffffffffffffffffffffffffffffffffffffffffffffffffffffffffffffffff82620002f9565b620003428683620002f9565b95508019841693508086168417925050509392505050565b5f819050919050565b5f819050919050565b5f6200038c6200038662000380846200035a565b62000363565b6200035a565b9050919050565b5f819050919050565b620003a7836200036c565b620003bf620003b68262000393565b84845462000305565b825550505050565b5f90565b620003d5620003c7565b620003e28184846200039c565b505050565b5b818110156200040957620003fd5f82620003cb565b600181019050620003e8565b5050565b601f82111562000458576200042281620002d8565b6200042d84620002ea565b810160208510156200043d578190505b620004556200044c85620002ea565b830182620003e7565b50505b505050565b5f82821c905092915050565b5f6200047a5f19846008026200045d565b1980831691505092915050565b5f62000494838362000469565b9150826002028217905092915050565b620004af826200026d565b67ffffffffffffffff811115620004cb57620004ca6200008e565b5b620004d78254620002a4565b620004e48282856200040d565b5f60209050601f8311600181146200051a575f841562000505578287015190505b62000511858262000487565b86555062000580565b601f1984166200052a86620002d8565b5f5b8281101562000553578489015182556001820191506020850194506020810190506200052c565b868310156200057357848901516200056f601f89168262000469565b8355505b6001600288020188555050505b505050505050565b61269780620005965f395ff3fe608060405234801561000f575f80fd5b5060043610610114575f3560e01c806370a08231116100a0578063b88d4fde1161006f578063b88d4fde146102f0578063c2f1f14a1461030c578063c87b56dd1461033c578063e030565e1461036c578063e985e9c51461038857610114565b806370a08231146102565780638fc88c481461028657806395d89b41146102b6578063a22cb465146102d457610114565b806318160ddd116100e757806318160ddd146101b257806323b872dd146101d057806342842e0e146101ec5780635d8d1585146102085780636352211e1461022657610114565b806301ffc9a71461011857806306fdde0314610148578063081812fc14610166578063095ea7b314610196575b5f80fd5b610132600480360381019061012d9190611bb5565b6103b8565b60405161013f9190611bfa565b60405180910390f35b610150610431565b60405161015d9190611c9d565b60405180910390f35b610180600480360381019061017b9190611cf0565b6104c0565b60405161018d9190611d5a565b60405180910390f35b6101b060048036038101906101ab9190611d9d565b6104db565b005b6101ba6104f1565b6040516101c79190611dea565b60405180910390f35b6101ea60048036038101906101e59190611e03565b6104f7565b005b61020660048036038101906102019190611e03565b6105f6565b005b610210610615565b60405161021d9190611f59565b60405180910390f35b610240600480360381019061023b9190611cf0565b610716565b60405161024d9190611d5a565b60405180910390f35b610270600480360381019061026b9190611f79565b610727565b60405161027d9190611dea565b60405180910390f35b6102a0600480360381019061029b9190611cf0565b6107dd565b6040516102ad9190611dea565b60405180910390f35b6102be610817565b6040516102cb9190611c9d565b60405180910390f35b6102ee60048036038101906102e99190611fce565b6108a7565b005b61030a60048036038101906103059190612138565b6108bd565b005b61032660048036038101906103219190611cf0565b6108da565b6040516103339190611d5a565b60405180910390f35b61035660048036038101906103519190611cf0565b610956565b6040516103639190611c9d565b60405180910390f35b610386600480360381019061038191906121e2565b610a61565b005b6103a2600480360381019061039d9190612232565b610bab565b6040516103af9190611bfa565b60405180910390f35b5f7fad092b5c000000000000000000000000000000000000000000000000000000007bffffffffffffffffffffffffffffffffffffffffffffffffffffffff1916827bffffffffffffffffffffffffffffffffffffffffffffffffffffffff1916148061042a575061042982610c39565b5b9050919050565b60605f805461043f9061229d565b80601f016020809104026020016040519081016040528092919081815260200182805461046b9061229d565b80156104b65780601f1061048d576101008083540402835291602001916104b6565b820191905f5260205f20905b81548152906001019060200180831161049957829003601f168201915b5050505050905090565b5f6104ca82610c99565b506104d482610d1f565b9050919050565b6104ed82826104e8610d58565b610d5f565b5050565b60085481565b5f73ffffffffffffffffffffffffffffffffffffffff168273ffffffffffffffffffffffffffffffffffffffff1603610567575f6040517f64a0ae9200000000000000000000000000000000000000000000000000000000815260040161055e9190611d5a565b60405180910390fd5b5f61057a8383610575610d58565b610d71565b90508373ffffffffffffffffffffffffffffffffffffffff168173ffffffffffffffffffffffffffffffffffffffff16146105f0578382826040517f64283d7b0000000000000000000000000000000000000000000000000000000081526004016105e7939291906122cd565b60405180910390fd5b50505050565b61061083838360405180602001604052805f8152506108bd565b505050565b6060805f600190505b6008548160ff161161070e5760075f8260ff1681526020019081526020015f206040518060400160405290815f82015f9054906101000a900473ffffffffffffffffffffffffffffffffffffffff1673ffffffffffffffffffffffffffffffffffffffff1673ffffffffffffffffffffffffffffffffffffffff1681526020015f820160149054906101000a900467ffffffffffffffff1667ffffffffffffffff1667ffffffffffffffff1681525050826001836106dc919061233b565b60ff16815181106106f0576106ef61236f565b5b602002602001018190525080806107069061239c565b91505061061e565b508091505090565b5f61072082610c99565b9050919050565b5f8073ffffffffffffffffffffffffffffffffffffffff168273ffffffffffffffffffffffffffffffffffffffff1603610798575f6040517f89c62b6400000000000000000000000000000000000000000000000000000000815260040161078f9190611d5a565b60405180910390fd5b60035f8373ffffffffffffffffffffffffffffffffffffffff1673ffffffffffffffffffffffffffffffffffffffff1681526020019081526020015f20549050919050565b5f60075f8381526020019081526020015f205f0160149054906101000a900467ffffffffffffffff1667ffffffffffffffff169050919050565b6060600180546108269061229d565b80601f01602080910402602001604051908101604052809291908181526020018280546108529061229d565b801561089d5780601f106108745761010080835404028352916020019161089d565b820191905f5260205f20905b81548152906001019060200180831161088057829003601f168201915b5050505050905090565b6108b96108b2610d58565b8383610ecd565b5050565b6108c88484846104f7565b6108d484848484611036565b50505050565b5f4260075f8481526020019081526020015f205f0160149054906101000a900467ffffffffffffffff1667ffffffffffffffff161061094d5760075f8381526020019081526020015f205f015f9054906101000a900473ffffffffffffffffffffffffffffffffffffffff169050610951565b5f90505b919050565b606061096182610c99565b505f60065f8481526020019081526020015f20805461097f9061229d565b80601f01602080910402602001604051908101604052809291908181526020018280546109ab9061229d565b80156109f65780601f106109cd576101008083540402835291602001916109f6565b820191905f5260205f20905b8154815290600101906020018083116109d957829003601f168201915b505050505090505f610a066111e8565b90505f815103610a1a578192505050610a5c565b5f82511115610a4e578082604051602001610a369291906123fe565b60405160208183030381529060405292505050610a5c565b610a57846111fe565b925050505b919050565b3373ffffffffffffffffffffffffffffffffffffffff16610a8184611264565b73ffffffffffffffffffffffffffffffffffffffff1614610ad7576040517f08c379a0000000000000000000000000000000000000000000000000000000008152600401610ace90612491565b60405180910390fd5b5f60075f8581526020019081526020015f20905082815f015f6101000a81548173ffffffffffffffffffffffffffffffffffffffff021916908373ffffffffffffffffffffffffffffffffffffffff16021790555081815f0160146101000a81548167ffffffffffffffff021916908367ffffffffffffffff1602179055508273ffffffffffffffffffffffffffffffffffffffff16847f4e06b4e7000e659094299b3533b47b6aa8ad048e95e872d23d1f4ee55af89cfe84604051610b9d91906124be565b60405180910390a350505050565b5f60055f8473ffffffffffffffffffffffffffffffffffffffff1673ffffffffffffffffffffffffffffffffffffffff1681526020019081526020015f205f8373ffffffffffffffffffffffffffffffffffffffff1673ffffffffffffffffffffffffffffffffffffffff1681526020019081526020015f205f9054906101000a900460ff16905092915050565b5f634906490660e01b7bffffffffffffffffffffffffffffffffffffffffffffffffffffffff1916827bffffffffffffffffffffffffffffffffffffffffffffffffffffffff19161480610c925750610c918261129d565b5b9050919050565b5f80610ca483611264565b90505f73ffffffffffffffffffffffffffffffffffffffff168173ffffffffffffffffffffffffffffffffffffffff1603610d1657826040517f7e273289000000000000000000000000000000000000000000000000000000008152600401610d0d9190611dea565b60405180910390fd5b80915050919050565b5f60045f8381526020019081526020015f205f9054906101000a900473ffffffffffffffffffffffffffffffffffffffff169050919050565b5f33905090565b610d6c838383600161137e565b505050565b5f80610d7e85858561153d565b90508473ffffffffffffffffffffffffffffffffffffffff168173ffffffffffffffffffffffffffffffffffffffff1614158015610e1a57505f73ffffffffffffffffffffffffffffffffffffffff1660075f8681526020019081526020015f205f015f9054906101000a900473ffffffffffffffffffffffffffffffffffffffff1673ffffffffffffffffffffffffffffffffffffffff1614155b15610ec25760075f8581526020019081526020015f205f8082015f6101000a81549073ffffffffffffffffffffffffffffffffffffffff02191690555f820160146101000a81549067ffffffffffffffff021916905550505f73ffffffffffffffffffffffffffffffffffffffff16847f4e06b4e7000e659094299b3533b47b6aa8ad048e95e872d23d1f4ee55af89cfe5f604051610eb99190612519565b60405180910390a35b809150509392505050565b5f73ffffffffffffffffffffffffffffffffffffffff168273ffffffffffffffffffffffffffffffffffffffff1603610f3d57816040517f5b08ba18000000000000000000000000000000000000000000000000000000008152600401610f349190611d5a565b60405180910390fd5b8060055f8573ffffffffffffffffffffffffffffffffffffffff1673ffffffffffffffffffffffffffffffffffffffff1681526020019081526020015f205f8473ffffffffffffffffffffffffffffffffffffffff1673ffffffffffffffffffffffffffffffffffffffff1681526020019081526020015f205f6101000a81548160ff0219169083151502179055508173ffffffffffffffffffffffffffffffffffffffff168373ffffffffffffffffffffffffffffffffffffffff167f17307eab39ab6107e8899845ad3d59bd9653f200f220920489ca2b5937696c31836040516110299190611bfa565b60405180910390a3505050565b5f8373ffffffffffffffffffffffffffffffffffffffff163b11156111e2578273ffffffffffffffffffffffffffffffffffffffff1663150b7a02611079610d58565b8685856040518563ffffffff1660e01b815260040161109b9493929190612584565b6020604051808303815f875af19250505080156110d657506040513d601f19601f820116820180604052508101906110d391906125e2565b60015b611157573d805f8114611104576040519150601f19603f3d011682016040523d82523d5f602084013e611109565b606091505b505f81510361114f57836040517f64a0ae920000000000000000000000000000000000000000000000000000000081526004016111469190611d5a565b60405180910390fd5b805181602001fd5b63150b7a0260e01b7bffffffffffffffffffffffffffffffffffffffffffffffffffffffff1916817bffffffffffffffffffffffffffffffffffffffffffffffffffffffff1916146111e057836040517f64a0ae920000000000000000000000000000000000000000000000000000000081526004016111d79190611d5a565b60405180910390fd5b505b50505050565b606060405180602001604052805f815250905090565b606061120982610c99565b505f6112136111e8565b90505f8151116112315760405180602001604052805f81525061125c565b8061123b84611748565b60405160200161124c9291906123fe565b6040516020818303038152906040525b915050919050565b5f60025f8381526020019081526020015f205f9054906101000a900473ffffffffffffffffffffffffffffffffffffffff169050919050565b5f7f80ac58cd000000000000000000000000000000000000000000000000000000007bffffffffffffffffffffffffffffffffffffffffffffffffffffffff1916827bffffffffffffffffffffffffffffffffffffffffffffffffffffffff1916148061136757507f5b5e139f000000000000000000000000000000000000000000000000000000007bffffffffffffffffffffffffffffffffffffffffffffffffffffffff1916827bffffffffffffffffffffffffffffffffffffffffffffffffffffffff1916145b80611377575061137682611812565b5b9050919050565b80806113b657505f73ffffffffffffffffffffffffffffffffffffffff168273ffffffffffffffffffffffffffffffffffffffff1614155b156114e8575f6113c584610c99565b90505f73ffffffffffffffffffffffffffffffffffffffff168373ffffffffffffffffffffffffffffffffffffffff161415801561142f57508273ffffffffffffffffffffffffffffffffffffffff168173ffffffffffffffffffffffffffffffffffffffff1614155b801561144257506114408184610bab565b155b1561148457826040517fa9fbf51f00000000000000000000000000000000000000000000000000000000815260040161147b9190611d5a565b60405180910390fd5b81156114e657838573ffffffffffffffffffffffffffffffffffffffff168273ffffffffffffffffffffffffffffffffffffffff167f8c5be1e5ebec7d5bd14f71427d1e84f3dd0314c0f7b2291e5b200ac8c7c3b92560405160405180910390a45b505b8360045f8581526020019081526020015f205f6101000a81548173ffffffffffffffffffffffffffffffffffffffff021916908373ffffffffffffffffffffffffffffffffffffffff16021790555050505050565b5f8061154884611264565b90505f73ffffffffffffffffffffffffffffffffffffffff168373ffffffffffffffffffffffffffffffffffffffff16146115895761158881848661187b565b5b5f73ffffffffffffffffffffffffffffffffffffffff168173ffffffffffffffffffffffffffffffffffffffff1614611614576115c85f855f8061137e565b600160035f8373ffffffffffffffffffffffffffffffffffffffff1673ffffffffffffffffffffffffffffffffffffffff1681526020019081526020015f205f82825403925050819055505b5f73ffffffffffffffffffffffffffffffffffffffff168573ffffffffffffffffffffffffffffffffffffffff161461169357600160035f8773ffffffffffffffffffffffffffffffffffffffff1673ffffffffffffffffffffffffffffffffffffffff1681526020019081526020015f205f82825401925050819055505b8460025f8681526020019081526020015f205f6101000a81548173ffffffffffffffffffffffffffffffffffffffff021916908373ffffffffffffffffffffffffffffffffffffffff160217905550838573ffffffffffffffffffffffffffffffffffffffff168273ffffffffffffffffffffffffffffffffffffffff167fddf252ad1be2c89b69c2b068fc378daa952ba7f163c4a11628f55a4df523b3ef60405160405180910390a4809150509392505050565b60605f60016117568461193e565b0190505f8167ffffffffffffffff81111561177457611773612014565b5b6040519080825280601f01601f1916602001820160405280156117a65781602001600182028036833780820191505090505b5090505f82602001820190505b600115611807578080600190039150507f3031323334353637383961626364656600000000000000000000000000000000600a86061a8153600a85816117fc576117fb61260d565b5b0494505f85036117b3575b819350505050919050565b5f7f01ffc9a7000000000000000000000000000000000000000000000000000000007bffffffffffffffffffffffffffffffffffffffffffffffffffffffff1916827bffffffffffffffffffffffffffffffffffffffffffffffffffffffff1916149050919050565b611886838383611a8f565b611939575f73ffffffffffffffffffffffffffffffffffffffff168373ffffffffffffffffffffffffffffffffffffffff16036118fa57806040517f7e2732890000000000000000000000000000000000000000000000000000000081526004016118f19190611dea565b60405180910390fd5b81816040517f177e802f00000000000000000000000000000000000000000000000000000000815260040161193092919061263a565b60405180910390fd5b505050565b5f805f90507a184f03e93ff9f4daa797ed6e38ed64bf6a1f010000000000000000831061199a577a184f03e93ff9f4daa797ed6e38ed64bf6a1f01000000000000000083816119905761198f61260d565b5b0492506040810190505b6d04ee2d6d415b85acef810000000083106119d7576d04ee2d6d415b85acef810000000083816119cd576119cc61260d565b5b0492506020810190505b662386f26fc100008310611a0657662386f26fc1000083816119fc576119fb61260d565b5b0492506010810190505b6305f5e1008310611a2f576305f5e1008381611a2557611a2461260d565b5b0492506008810190505b6127108310611a54576127108381611a4a57611a4961260d565b5b0492506004810190505b60648310611a775760648381611a6d57611a6c61260d565b5b0492506002810190505b600a8310611a86576001810190505b80915050919050565b5f8073ffffffffffffffffffffffffffffffffffffffff168373ffffffffffffffffffffffffffffffffffffffff1614158015611b4657508273ffffffffffffffffffffffffffffffffffffffff168473ffffffffffffffffffffffffffffffffffffffff161480611b075750611b068484610bab565b5b80611b4557508273ffffffffffffffffffffffffffffffffffffffff16611b2d83610d1f565b73ffffffffffffffffffffffffffffffffffffffff16145b5b90509392505050565b5f604051905090565b5f80fd5b5f80fd5b5f7fffffffff0000000000000000000000000000000000000000000000000000000082169050919050565b611b9481611b60565b8114611b9e575f80fd5b50565b5f81359050611baf81611b8b565b92915050565b5f60208284031215611bca57611bc9611b58565b5b5f611bd784828501611ba1565b91505092915050565b5f8115159050919050565b611bf481611be0565b82525050565b5f602082019050611c0d5f830184611beb565b92915050565b5f81519050919050565b5f82825260208201905092915050565b5f5b83811015611c4a578082015181840152602081019050611c2f565b5f8484015250505050565b5f601f19601f8301169050919050565b5f611c6f82611c13565b611c798185611c1d565b9350611c89818560208601611c2d565b611c9281611c55565b840191505092915050565b5f6020820190508181035f830152611cb58184611c65565b905092915050565b5f819050919050565b611ccf81611cbd565b8114611cd9575f80fd5b50565b5f81359050611cea81611cc6565b92915050565b5f60208284031215611d0557611d04611b58565b5b5f611d1284828501611cdc565b91505092915050565b5f73ffffffffffffffffffffffffffffffffffffffff82169050919050565b5f611d4482611d1b565b9050919050565b611d5481611d3a565b82525050565b5f602082019050611d6d5f830184611d4b565b92915050565b611d7c81611d3a565b8114611d86575f80fd5b50565b5f81359050611d9781611d73565b92915050565b5f8060408385031215611db357611db2611b58565b5b5f611dc085828601611d89565b9250506020611dd185828601611cdc565b9150509250929050565b611de481611cbd565b82525050565b5f602082019050611dfd5f830184611ddb565b92915050565b5f805f60608486031215611e1a57611e19611b58565b5b5f611e2786828701611d89565b9350506020611e3886828701611d89565b9250506040611e4986828701611cdc565b9150509250925092565b5f81519050919050565b5f82825260208201905092915050565b5f819050602082019050919050565b611e8581611d3a565b82525050565b5f67ffffffffffffffff82169050919050565b611ea781611e8b565b82525050565b604082015f820151611ec15f850182611e7c565b506020820151611ed46020850182611e9e565b50505050565b5f611ee58383611ead565b60408301905092915050565b5f602082019050919050565b5f611f0782611e53565b611f118185611e5d565b9350611f1c83611e6d565b805f5b83811015611f4c578151611f338882611eda565b9750611f3e83611ef1565b925050600181019050611f1f565b5085935050505092915050565b5f6020820190508181035f830152611f718184611efd565b905092915050565b5f60208284031215611f8e57611f8d611b58565b5b5f611f9b84828501611d89565b91505092915050565b611fad81611be0565b8114611fb7575f80fd5b50565b5f81359050611fc881611fa4565b92915050565b5f8060408385031215611fe457611fe3611b58565b5b5f611ff185828601611d89565b925050602061200285828601611fba565b9150509250929050565b5f80fd5b5f80fd5b7f4e487b71000000000000000000000000000000000000000000000000000000005f52604160045260245ffd5b61204a82611c55565b810181811067ffffffffffffffff8211171561206957612068612014565b5b80604052505050565b5f61207b611b4f565b90506120878282612041565b919050565b5f67ffffffffffffffff8211156120a6576120a5612014565b5b6120af82611c55565b9050602081019050919050565b828183375f83830152505050565b5f6120dc6120d78461208c565b612072565b9050828152602081018484840111156120f8576120f7612010565b5b6121038482856120bc565b509392505050565b5f82601f83011261211f5761211e61200c565b5b813561212f8482602086016120ca565b91505092915050565b5f805f80608085870312156121505761214f611b58565b5b5f61215d87828801611d89565b945050602061216e87828801611d89565b935050604061217f87828801611cdc565b925050606085013567ffffffffffffffff8111156121a05761219f611b5c565b5b6121ac8782880161210b565b91505092959194509250565b6121c181611e8b565b81146121cb575f80fd5b50565b5f813590506121dc816121b8565b92915050565b5f805f606084860312156121f9576121f8611b58565b5b5f61220686828701611cdc565b935050602061221786828701611d89565b9250506040612228868287016121ce565b9150509250925092565b5f806040838503121561224857612247611b58565b5b5f61225585828601611d89565b925050602061226685828601611d89565b9150509250929050565b7f4e487b71000000000000000000000000000000000000000000000000000000005f52602260045260245ffd5b5f60028204905060018216806122b457607f821691505b6020821081036122c7576122c6612270565b5b50919050565b5f6060820190506122e05f830186611d4b565b6122ed6020830185611ddb565b6122fa6040830184611d4b565b949350505050565b5f60ff82169050919050565b7f4e487b71000000000000000000000000000000000000000000000000000000005f52601160045260245ffd5b5f61234582612302565b915061235083612302565b9250828203905060ff8111156123695761236861230e565b5b92915050565b7f4e487b71000000000000000000000000000000000000000000000000000000005f52603260045260245ffd5b5f6123a682612302565b915060ff82036123b9576123b861230e565b5b600182019050919050565b5f81905092915050565b5f6123d882611c13565b6123e281856123c4565b93506123f2818560208601611c2d565b80840191505092915050565b5f61240982856123ce565b915061241582846123ce565b91508190509392505050565b7f4552433732313a207472616e736665722063616c6c6572206973206e6f74206f5f8201527f776e6572206e6f7220617070726f766564000000000000000000000000000000602082015250565b5f61247b603183611c1d565b915061248682612421565b604082019050919050565b5f6020820190508181035f8301526124a88161246f565b9050919050565b6124b881611e8b565b82525050565b5f6020820190506124d15f8301846124af565b92915050565b5f819050919050565b5f819050919050565b5f6125036124fe6124f9846124d7565b6124e0565b611e8b565b9050919050565b612513816124e9565b82525050565b5f60208201905061252c5f83018461250a565b92915050565b5f81519050919050565b5f82825260208201905092915050565b5f61255682612532565b612560818561253c565b9350612570818560208601611c2d565b61257981611c55565b840191505092915050565b5f6080820190506125975f830187611d4b565b6125a46020830186611d4b565b6125b16040830185611ddb565b81810360608301526125c3818461254c565b905095945050505050565b5f815190506125dc81611b8b565b92915050565b5f602082840312156125f7576125f6611b58565b5b5f612604848285016125ce565b91505092915050565b7f4e487b71000000000000000000000000000000000000000000000000000000005f52601260045260245ffd5b5f60408201905061264d5f830185611d4b565b61265a6020830184611ddb565b939250505056fea26469706673582212201bacdf814b7640f74c201c2449055c9b47f8569a2a796722212bb6e20fdd699964736f6c63430008140033",
  "immutableReferences": {},
  "source": "// SPDX-License-Identifier: MIT\npragma solidity >=0.4.22 <0.9.0;\n\nimport \"@openzeppelin/contracts/token/ERC721/extensions/ERC721URIStorage.sol\";\nimport \"@openzeppelin/contracts/token/ERC721/IERC721.sol\";\nimport \"./IERC4907.sol\";\n\ncontract ERC4907 is ERC721URIStorage, IERC4907 {\n    constructor(\n        string memory _name,\n        string memory _symbol\n    ) ERC721(_name, _symbol) {}\n\n    struct UserInfo {\n        address user; // Address of user role\n        uint64 expires; // UNIX timestamp, user expires\n    }\n\n    mapping(uint256 => UserInfo) internal _users;\n    uint256 public totalSupply;\n\n    // Simple function to expose the internal UserInfo mapping (for debug purposes only)\n    function getUserInfo() public view returns (UserInfo[] memory) {\n        UserInfo[] memory my_users;\n\n        for (uint8 i = 1; i <= totalSupply; i++) {\n            my_users[i - 1] = _users[i];\n        }\n\n        return my_users;\n    }\n\n    /// @notice set the user and expires of a NFT\n    /// @dev The zero address indicates there is no user\n    /// Throws if `tokenId` is not valid NFT\n    /// @param user The new user of the NFT\n    /// @param expires UNIX timestamp, The new user could use the NFT before expires\n    function setUser(\n        uint256 tokenId,\n        address user,\n        uint64 expires\n    ) public virtual override {\n        require(\n            _ownerOf(tokenId) == msg.sender,\n            \"ERC721: transfer caller is not owner nor approved\"\n        );\n\n        UserInfo storage info = _users[tokenId];\n        info.user = user;\n        info.expires = expires;\n        emit UpdateUser(tokenId, user, expires);\n    }\n\n    /// @notice Get the user address of a NFT\n    /// @dev The zero address indicates that there is no user or the user is expired\n    /// @param tokenId The NFT to get the user address for\n    /// @return The user address from this NFT\n    function userOf(\n        uint256 tokenId\n    ) public view virtual override returns (address) {\n        if (uint256(_users[tokenId].expires) >= block.timestamp) {\n            return _users[tokenId].user;\n        } else {\n            return address(0);\n        }\n    }\n\n    /// @notice Get the user expires of a NFT\n    /// @dev The zero vakue undicates that there is no user\n    /// @param tokenId The NFT to get the user expires for\n    /// @return uint256 The user expires for this NFT\n    function userExpires(\n        uint256 tokenId\n    ) public view virtual override returns (uint256) {\n        return _users[tokenId].expires;\n    }\n\n    /// @dev See {IERC165-supportsInterface}.\n    function supportsInterface(\n        bytes4 interfaceId\n    ) public view virtual override returns (bool) {\n        return\n            interfaceId == type(IERC4907).interfaceId ||\n            super.supportsInterface(interfaceId);\n    }\n\n    // function transferFrom(\n    //     address from,\n    //     address to,\n    //     uint256 tokenId\n    // ) public virtual override(ERC721, IERC721) {\n    //     super.transferFrom(from, to, tokenId);\n\n    //     if (from != to && _users[tokenId].user != address(0)) {\n    //         delete _users[tokenId];\n    //         emit UpdateUser(tokenId, address(0), 0);\n    //     }\n    // }\n    function _update(\n        address to,\n        uint256 tokenId,\n        address auth\n    ) internal virtual override returns (address) {\n        address from = super._update(to, tokenId, auth);\n\n        if (from != to && _users[tokenId].user != address(0)) {\n            delete _users[tokenId];\n            emit UpdateUser(tokenId, address(0), 0);\n        }\n\n        return from;\n    }\n}\n",
  "sourcePath": "/home/ricardoalmeida/Solidity_projects/solidity_projects/9_rentable-nft/contracts/ERC4907.sol",
  "compiler": {
    "name": "solc",
    "version": "0.8.20+commit.a1b79de6.Emscripten.clang"
  },
  "schemaVersion": "3.4.13",
  "updatedAt": "2023-11-19T20:55:21.893Z",
  "devdoc": {
    "errors": {
      "ERC721IncorrectOwner(address,uint256,address)": [
        {
          "details": "Indicates an error related to the ownership over a particular token. Used in transfers.",
          "params": {
            "owner": "Address of the current owner of a token.",
            "sender": "Address whose tokens are being transferred.",
            "tokenId": "Identifier number of a token."
          }
        }
      ],
      "ERC721InsufficientApproval(address,uint256)": [
        {
          "details": "Indicates a failure with the `operator`s approval. Used in transfers.",
          "params": {
            "operator": "Address that may be allowed to operate on tokens without being their owner.",
            "tokenId": "Identifier number of a token."
          }
        }
      ],
      "ERC721InvalidApprover(address)": [
        {
          "details": "Indicates a failure with the `approver` of a token to be approved. Used in approvals.",
          "params": {
            "approver": "Address initiating an approval operation."
          }
        }
      ],
      "ERC721InvalidOperator(address)": [
        {
          "details": "Indicates a failure with the `operator` to be approved. Used in approvals.",
          "params": {
            "operator": "Address that may be allowed to operate on tokens without being their owner."
          }
        }
      ],
      "ERC721InvalidOwner(address)": [
        {
          "details": "Indicates that an address can't be an owner. For example, `address(0)` is a forbidden owner in EIP-20. Used in balance queries.",
          "params": {
            "owner": "Address of the current owner of a token."
          }
        }
      ],
      "ERC721InvalidReceiver(address)": [
        {
          "details": "Indicates a failure with the token `receiver`. Used in transfers.",
          "params": {
            "receiver": "Address to which tokens are being transferred."
          }
        }
      ],
      "ERC721InvalidSender(address)": [
        {
          "details": "Indicates a failure with the token `sender`. Used in transfers.",
          "params": {
            "sender": "Address whose tokens are being transferred."
          }
        }
      ],
      "ERC721NonexistentToken(uint256)": [
        {
          "details": "Indicates a `tokenId` whose `owner` is the zero address.",
          "params": {
            "tokenId": "Identifier number of a token."
          }
        }
      ]
    },
    "events": {
      "Approval(address,address,uint256)": {
        "details": "Emitted when `owner` enables `approved` to manage the `tokenId` token."
      },
      "ApprovalForAll(address,address,bool)": {
        "details": "Emitted when `owner` enables or disables (`approved`) `operator` to manage all of its assets."
      },
      "BatchMetadataUpdate(uint256,uint256)": {
        "details": "This event emits when the metadata of a range of tokens is changed. So that the third-party platforms such as NFT market could timely update the images and related attributes of the NFTs."
      },
      "MetadataUpdate(uint256)": {
        "details": "This event emits when the metadata of a token is changed. So that the third-party platforms such as NFT market could timely update the images and related attributes of the NFT."
      },
      "Transfer(address,address,uint256)": {
        "details": "Emitted when `tokenId` token is transferred from `from` to `to`."
      }
    },
    "kind": "dev",
    "methods": {
      "approve(address,uint256)": {
        "details": "See {IERC721-approve}."
      },
      "balanceOf(address)": {
        "details": "See {IERC721-balanceOf}."
      },
      "getApproved(uint256)": {
        "details": "See {IERC721-getApproved}."
      },
      "isApprovedForAll(address,address)": {
        "details": "See {IERC721-isApprovedForAll}."
      },
      "name()": {
        "details": "See {IERC721Metadata-name}."
      },
      "ownerOf(uint256)": {
        "details": "See {IERC721-ownerOf}."
      },
      "safeTransferFrom(address,address,uint256)": {
        "details": "See {IERC721-safeTransferFrom}."
      },
      "safeTransferFrom(address,address,uint256,bytes)": {
        "details": "See {IERC721-safeTransferFrom}."
      },
      "setApprovalForAll(address,bool)": {
        "details": "See {IERC721-setApprovalForAll}."
      },
      "setUser(uint256,address,uint64)": {
        "details": "The zero address indicates there is no user Throws if `tokenId` is not valid NFT",
        "params": {
          "expires": "UNIX timestamp, The new user could use the NFT before expires",
          "user": "The new user of the NFT"
        }
      },
      "supportsInterface(bytes4)": {
        "details": "See {IERC165-supportsInterface}."
      },
      "symbol()": {
        "details": "See {IERC721Metadata-symbol}."
      },
      "tokenURI(uint256)": {
        "details": "See {IERC721Metadata-tokenURI}."
      },
      "transferFrom(address,address,uint256)": {
        "details": "See {IERC721-transferFrom}."
      },
      "userExpires(uint256)": {
        "details": "The zero vakue undicates that there is no user",
        "params": {
          "tokenId": "The NFT to get the user expires for"
        },
        "returns": {
          "_0": "uint256 The user expires for this NFT"
        }
      },
      "userOf(uint256)": {
        "details": "The zero address indicates that there is no user or the user is expired",
        "params": {
          "tokenId": "The NFT to get the user address for"
        },
        "returns": {
          "_0": "The user address from this NFT"
        }
      }
    },
    "version": 1
  },
  "userdoc": {
    "events": {
      "UpdateUser(uint256,address,uint64)": {
        "notice": "Emitted when the `user` of a NFT or the `expires` of the `user` is changed The zero address for user indicates that there is no user address"
      }
    },
    "kind": "user",
    "methods": {
      "setUser(uint256,address,uint64)": {
        "notice": "set the user and expires of a NFT"
      },
      "userExpires(uint256)": {
        "notice": "Get the user expires of a NFT"
      },
      "userOf(uint256)": {
        "notice": "Get the user address of a NFT"
      }
    },
    "version": 1
  }
}