{
  "contractName": "RoyalPets",
  "abi": [
    {
      "inputs": [
        {
          "internalType": "address",
          "name": "initialOwner",
          "type": "address"
        }
      ],
      "stateMutability": "nonpayable",
      "type": "constructor"
    },
    {
      "inputs": [
        {
          "internalType": "uint256",
          "name": "numerator",
          "type": "uint256"
        },
        {
          "internalType": "uint256",
          "name": "denominator",
          "type": "uint256"
        }
      ],
      "name": "ERC2981InvalidDefaultRoyalty",
      "type": "error"
    },
    {
      "inputs": [
        {
          "internalType": "address",
          "name": "receiver",
          "type": "address"
        }
      ],
      "name": "ERC2981InvalidDefaultRoyaltyReceiver",
      "type": "error"
    },
    {
      "inputs": [
        {
          "internalType": "uint256",
          "name": "tokenId",
          "type": "uint256"
        },
        {
          "internalType": "uint256",
          "name": "numerator",
          "type": "uint256"
        },
        {
          "internalType": "uint256",
          "name": "denominator",
          "type": "uint256"
        }
      ],
      "name": "ERC2981InvalidTokenRoyalty",
      "type": "error"
    },
    {
      "inputs": [
        {
          "internalType": "uint256",
          "name": "tokenId",
          "type": "uint256"
        },
        {
          "internalType": "address",
          "name": "receiver",
          "type": "address"
        }
      ],
      "name": "ERC2981InvalidTokenRoyaltyReceiver",
      "type": "error"
    },
    {
      "inputs": [
        {
          "internalType": "address",
          "name": "sender",
          "type": "address"
        },
        {
          "internalType": "uint256",
          "name": "tokenId",
          "type": "uint256"
        },
        {
          "internalType": "address",
          "name": "owner",
          "type": "address"
        }
      ],
      "name": "ERC721IncorrectOwner",
      "type": "error"
    },
    {
      "inputs": [
        {
          "internalType": "address",
          "name": "operator",
          "type": "address"
        },
        {
          "internalType": "uint256",
          "name": "tokenId",
          "type": "uint256"
        }
      ],
      "name": "ERC721InsufficientApproval",
      "type": "error"
    },
    {
      "inputs": [
        {
          "internalType": "address",
          "name": "approver",
          "type": "address"
        }
      ],
      "name": "ERC721InvalidApprover",
      "type": "error"
    },
    {
      "inputs": [
        {
          "internalType": "address",
          "name": "operator",
          "type": "address"
        }
      ],
      "name": "ERC721InvalidOperator",
      "type": "error"
    },
    {
      "inputs": [
        {
          "internalType": "address",
          "name": "owner",
          "type": "address"
        }
      ],
      "name": "ERC721InvalidOwner",
      "type": "error"
    },
    {
      "inputs": [
        {
          "internalType": "address",
          "name": "receiver",
          "type": "address"
        }
      ],
      "name": "ERC721InvalidReceiver",
      "type": "error"
    },
    {
      "inputs": [
        {
          "internalType": "address",
          "name": "sender",
          "type": "address"
        }
      ],
      "name": "ERC721InvalidSender",
      "type": "error"
    },
    {
      "inputs": [
        {
          "internalType": "uint256",
          "name": "tokenId",
          "type": "uint256"
        }
      ],
      "name": "ERC721NonexistentToken",
      "type": "error"
    },
    {
      "inputs": [
        {
          "internalType": "address",
          "name": "owner",
          "type": "address"
        }
      ],
      "name": "OwnableInvalidOwner",
      "type": "error"
    },
    {
      "inputs": [
        {
          "internalType": "address",
          "name": "account",
          "type": "address"
        }
      ],
      "name": "OwnableUnauthorizedAccount",
      "type": "error"
    },
    {
      "anonymous": false,
      "inputs": [
        {
          "indexed": true,
          "internalType": "address",
          "name": "owner",
          "type": "address"
        },
        {
          "indexed": true,
          "internalType": "address",
          "name": "approved",
          "type": "address"
        },
        {
          "indexed": true,
          "internalType": "uint256",
          "name": "tokenId",
          "type": "uint256"
        }
      ],
      "name": "Approval",
      "type": "event"
    },
    {
      "anonymous": false,
      "inputs": [
        {
          "indexed": true,
          "internalType": "address",
          "name": "owner",
          "type": "address"
        },
        {
          "indexed": true,
          "internalType": "address",
          "name": "operator",
          "type": "address"
        },
        {
          "indexed": false,
          "internalType": "bool",
          "name": "approved",
          "type": "bool"
        }
      ],
      "name": "ApprovalForAll",
      "type": "event"
    },
    {
      "anonymous": false,
      "inputs": [
        {
          "indexed": false,
          "internalType": "uint256",
          "name": "_fromTokenId",
          "type": "uint256"
        },
        {
          "indexed": false,
          "internalType": "uint256",
          "name": "_toTokenId",
          "type": "uint256"
        }
      ],
      "name": "BatchMetadataUpdate",
      "type": "event"
    },
    {
      "anonymous": false,
      "inputs": [
        {
          "indexed": false,
          "internalType": "uint256",
          "name": "_tokenId",
          "type": "uint256"
        }
      ],
      "name": "MetadataUpdate",
      "type": "event"
    },
    {
      "anonymous": false,
      "inputs": [
        {
          "indexed": true,
          "internalType": "address",
          "name": "previousOwner",
          "type": "address"
        },
        {
          "indexed": true,
          "internalType": "address",
          "name": "newOwner",
          "type": "address"
        }
      ],
      "name": "OwnershipTransferred",
      "type": "event"
    },
    {
      "anonymous": false,
      "inputs": [
        {
          "indexed": true,
          "internalType": "address",
          "name": "from",
          "type": "address"
        },
        {
          "indexed": true,
          "internalType": "address",
          "name": "to",
          "type": "address"
        },
        {
          "indexed": true,
          "internalType": "uint256",
          "name": "tokenId",
          "type": "uint256"
        }
      ],
      "name": "Transfer",
      "type": "event"
    },
    {
      "inputs": [
        {
          "internalType": "address",
          "name": "to",
          "type": "address"
        },
        {
          "internalType": "uint256",
          "name": "tokenId",
          "type": "uint256"
        }
      ],
      "name": "approve",
      "outputs": [],
      "stateMutability": "nonpayable",
      "type": "function"
    },
    {
      "inputs": [
        {
          "internalType": "address",
          "name": "owner",
          "type": "address"
        }
      ],
      "name": "balanceOf",
      "outputs": [
        {
          "internalType": "uint256",
          "name": "",
          "type": "uint256"
        }
      ],
      "stateMutability": "view",
      "type": "function",
      "constant": true
    },
    {
      "inputs": [
        {
          "internalType": "uint256",
          "name": "tokenId",
          "type": "uint256"
        }
      ],
      "name": "getApproved",
      "outputs": [
        {
          "internalType": "address",
          "name": "",
          "type": "address"
        }
      ],
      "stateMutability": "view",
      "type": "function",
      "constant": true
    },
    {
      "inputs": [
        {
          "internalType": "address",
          "name": "owner",
          "type": "address"
        },
        {
          "internalType": "address",
          "name": "operator",
          "type": "address"
        }
      ],
      "name": "isApprovedForAll",
      "outputs": [
        {
          "internalType": "bool",
          "name": "",
          "type": "bool"
        }
      ],
      "stateMutability": "view",
      "type": "function",
      "constant": true
    },
    {
      "inputs": [],
      "name": "name",
      "outputs": [
        {
          "internalType": "string",
          "name": "",
          "type": "string"
        }
      ],
      "stateMutability": "view",
      "type": "function",
      "constant": true
    },
    {
      "inputs": [],
      "name": "owner",
      "outputs": [
        {
          "internalType": "address",
          "name": "",
          "type": "address"
        }
      ],
      "stateMutability": "view",
      "type": "function",
      "constant": true
    },
    {
      "inputs": [
        {
          "internalType": "uint256",
          "name": "tokenId",
          "type": "uint256"
        }
      ],
      "name": "ownerOf",
      "outputs": [
        {
          "internalType": "address",
          "name": "",
          "type": "address"
        }
      ],
      "stateMutability": "view",
      "type": "function",
      "constant": true
    },
    {
      "inputs": [],
      "name": "renounceOwnership",
      "outputs": [],
      "stateMutability": "nonpayable",
      "type": "function"
    },
    {
      "inputs": [
        {
          "internalType": "uint256",
          "name": "tokenId",
          "type": "uint256"
        },
        {
          "internalType": "uint256",
          "name": "salePrice",
          "type": "uint256"
        }
      ],
      "name": "royaltyInfo",
      "outputs": [
        {
          "internalType": "address",
          "name": "",
          "type": "address"
        },
        {
          "internalType": "uint256",
          "name": "",
          "type": "uint256"
        }
      ],
      "stateMutability": "view",
      "type": "function",
      "constant": true
    },
    {
      "inputs": [
        {
          "internalType": "address",
          "name": "from",
          "type": "address"
        },
        {
          "internalType": "address",
          "name": "to",
          "type": "address"
        },
        {
          "internalType": "uint256",
          "name": "tokenId",
          "type": "uint256"
        }
      ],
      "name": "safeTransferFrom",
      "outputs": [],
      "stateMutability": "nonpayable",
      "type": "function"
    },
    {
      "inputs": [
        {
          "internalType": "address",
          "name": "from",
          "type": "address"
        },
        {
          "internalType": "address",
          "name": "to",
          "type": "address"
        },
        {
          "internalType": "uint256",
          "name": "tokenId",
          "type": "uint256"
        },
        {
          "internalType": "bytes",
          "name": "data",
          "type": "bytes"
        }
      ],
      "name": "safeTransferFrom",
      "outputs": [],
      "stateMutability": "nonpayable",
      "type": "function"
    },
    {
      "inputs": [
        {
          "internalType": "address",
          "name": "operator",
          "type": "address"
        },
        {
          "internalType": "bool",
          "name": "approved",
          "type": "bool"
        }
      ],
      "name": "setApprovalForAll",
      "outputs": [],
      "stateMutability": "nonpayable",
      "type": "function"
    },
    {
      "inputs": [],
      "name": "symbol",
      "outputs": [
        {
          "internalType": "string",
          "name": "",
          "type": "string"
        }
      ],
      "stateMutability": "view",
      "type": "function",
      "constant": true
    },
    {
      "inputs": [
        {
          "internalType": "address",
          "name": "from",
          "type": "address"
        },
        {
          "internalType": "address",
          "name": "to",
          "type": "address"
        },
        {
          "internalType": "uint256",
          "name": "tokenId",
          "type": "uint256"
        }
      ],
      "name": "transferFrom",
      "outputs": [],
      "stateMutability": "nonpayable",
      "type": "function"
    },
    {
      "inputs": [
        {
          "internalType": "address",
          "name": "newOwner",
          "type": "address"
        }
      ],
      "name": "transferOwnership",
      "outputs": [],
      "stateMutability": "nonpayable",
      "type": "function"
    },
    {
      "inputs": [
        {
          "internalType": "bytes4",
          "name": "interfaceId",
          "type": "bytes4"
        }
      ],
      "name": "supportsInterface",
      "outputs": [
        {
          "internalType": "bool",
          "name": "",
          "type": "bool"
        }
      ],
      "stateMutability": "view",
      "type": "function",
      "constant": true
    },
    {
      "inputs": [
        {
          "internalType": "uint256",
          "name": "tokenId",
          "type": "uint256"
        }
      ],
      "name": "burnNFT",
      "outputs": [],
      "stateMutability": "nonpayable",
      "type": "function"
    },
    {
      "inputs": [
        {
          "internalType": "address",
          "name": "recipient",
          "type": "address"
        },
        {
          "internalType": "string",
          "name": "token_uri",
          "type": "string"
        }
      ],
      "name": "mintNFT",
      "outputs": [
        {
          "internalType": "uint256",
          "name": "",
          "type": "uint256"
        }
      ],
      "stateMutability": "nonpayable",
      "type": "function"
    },
    {
      "inputs": [
        {
          "internalType": "address",
          "name": "recipient",
          "type": "address"
        },
        {
          "internalType": "string",
          "name": "token_uri",
          "type": "string"
        },
        {
          "internalType": "address",
          "name": "royaltyReceiver",
          "type": "address"
        },
        {
          "internalType": "uint96",
          "name": "feeNumerator",
          "type": "uint96"
        }
      ],
      "name": "mintNFTWithRoyalty",
      "outputs": [
        {
          "internalType": "uint256",
          "name": "",
          "type": "uint256"
        }
      ],
      "stateMutability": "nonpayable",
      "type": "function"
    },
    {
      "inputs": [
        {
          "internalType": "uint256",
          "name": "tokenId",
          "type": "uint256"
        }
      ],
      "name": "tokenURI",
      "outputs": [
        {
          "internalType": "string",
          "name": "",
          "type": "string"
        }
      ],
      "stateMutability": "view",
      "type": "function",
      "constant": true
    }
  ],
  "bytecode": "0x608060405234801562000010575f80fd5b506040516200361538038062003615833981810160405281019062000036919062000441565b806040518060400160405280600981526020017f526f79616c5065747300000000000000000000000000000000000000000000008152506040518060400160405280600281526020017f5250000000000000000000000000000000000000000000000000000000000000815250815f9081620000b39190620006d5565b508060019081620000c59190620006d5565b5050505f73ffffffffffffffffffffffffffffffffffffffff168173ffffffffffffffffffffffffffffffffffffffff16036200013b575f6040517f1e4fbdf7000000000000000000000000000000000000000000000000000000008152600401620001329190620007ca565b60405180910390fd5b6200014c816200016760201b60201c565b50620001603360646200022a60201b60201c565b5062000870565b5f60095f9054906101000a900473ffffffffffffffffffffffffffffffffffffffff1690508160095f6101000a81548173ffffffffffffffffffffffffffffffffffffffff021916908373ffffffffffffffffffffffffffffffffffffffff1602179055508173ffffffffffffffffffffffffffffffffffffffff168173ffffffffffffffffffffffffffffffffffffffff167f8be0079c531659141344cd1fd0a4f28419497f9722a3daafe3b4186f6b6457e060405160405180910390a35050565b5f6200023b620003d360201b60201c565b6bffffffffffffffffffffffff16905080826bffffffffffffffffffffffff161115620002a35781816040517f6f483d090000000000000000000000000000000000000000000000000000000081526004016200029a92919062000845565b60405180910390fd5b5f73ffffffffffffffffffffffffffffffffffffffff168373ffffffffffffffffffffffffffffffffffffffff160362000316575f6040517fb6d9900a0000000000000000000000000000000000000000000000000000000081526004016200030d9190620007ca565b60405180910390fd5b60405180604001604052808473ffffffffffffffffffffffffffffffffffffffff168152602001836bffffffffffffffffffffffff1681525060065f820151815f015f6101000a81548173ffffffffffffffffffffffffffffffffffffffff021916908373ffffffffffffffffffffffffffffffffffffffff1602179055506020820151815f0160146101000a8154816bffffffffffffffffffffffff02191690836bffffffffffffffffffffffff160217905550905050505050565b5f612710905090565b5f80fd5b5f73ffffffffffffffffffffffffffffffffffffffff82169050919050565b5f6200040b82620003e0565b9050919050565b6200041d81620003ff565b811462000428575f80fd5b50565b5f815190506200043b8162000412565b92915050565b5f60208284031215620004595762000458620003dc565b5b5f62000468848285016200042b565b91505092915050565b5f81519050919050565b7f4e487b71000000000000000000000000000000000000000000000000000000005f52604160045260245ffd5b7f4e487b71000000000000000000000000000000000000000000000000000000005f52602260045260245ffd5b5f6002820490506001821680620004ed57607f821691505b602082108103620005035762000502620004a8565b5b50919050565b5f819050815f5260205f209050919050565b5f6020601f8301049050919050565b5f82821b905092915050565b5f60088302620005677fffffffffffffffffffffffffffffffffffffffffffffffffffffffffffffffff826200052a565b6200057386836200052a565b95508019841693508086168417925050509392505050565b5f819050919050565b5f819050919050565b5f620005bd620005b7620005b1846200058b565b62000594565b6200058b565b9050919050565b5f819050919050565b620005d8836200059d565b620005f0620005e782620005c4565b84845462000536565b825550505050565b5f90565b62000606620005f8565b62000613818484620005cd565b505050565b5b818110156200063a576200062e5f82620005fc565b60018101905062000619565b5050565b601f8211156200068957620006538162000509565b6200065e846200051b565b810160208510156200066e578190505b620006866200067d856200051b565b83018262000618565b50505b505050565b5f82821c905092915050565b5f620006ab5f19846008026200068e565b1980831691505092915050565b5f620006c583836200069a565b9150826002028217905092915050565b620006e08262000471565b67ffffffffffffffff811115620006fc57620006fb6200047b565b5b620007088254620004d5565b620007158282856200063e565b5f60209050601f8311600181146200074b575f841562000736578287015190505b620007428582620006b8565b865550620007b1565b601f1984166200075b8662000509565b5f5b8281101562000784578489015182556001820191506020850194506020810190506200075d565b86831015620007a45784890151620007a0601f8916826200069a565b8355505b6001600288020188555050505b505050505050565b620007c481620003ff565b82525050565b5f602082019050620007df5f830184620007b9565b92915050565b5f6bffffffffffffffffffffffff82169050919050565b5f6200081c620008166200081084620007e5565b62000594565b6200058b565b9050919050565b6200082e81620007fc565b82525050565b6200083f816200058b565b82525050565b5f6040820190506200085a5f83018562000823565b62000869602083018462000834565b9392505050565b612d97806200087e5f395ff3fe608060405234801561000f575f80fd5b506004361061012a575f3560e01c8063715018a6116100ab578063b88d4fde1161006f578063b88d4fde1461033f578063c87b56dd1461035b578063e985e9c51461038b578063eacabe14146103bb578063f2fde38b146103eb5761012a565b8063715018a6146102ad57806375eacc20146102b75780638da5cb5b146102e757806395d89b4114610305578063a22cb465146103235761012a565b80632890e0d7116100f25780632890e0d7146101e45780632a55205a1461020057806342842e0e146102315780636352211e1461024d57806370a082311461027d5761012a565b806301ffc9a71461012e57806306fdde031461015e578063081812fc1461017c578063095ea7b3146101ac57806323b872dd146101c8575b5f80fd5b61014860048036038101906101439190612054565b610407565b6040516101559190612099565b60405180910390f35b610166610418565b604051610173919061213c565b60405180910390f35b6101966004803603810190610191919061218f565b6104a7565b6040516101a391906121f9565b60405180910390f35b6101c660048036038101906101c1919061223c565b6104c2565b005b6101e260048036038101906101dd919061227a565b6104d8565b005b6101fe60048036038101906101f9919061218f565b6105d7565b005b61021a600480360381019061021591906122ca565b6105e3565b604051610228929190612317565b60405180910390f35b61024b6004803603810190610246919061227a565b6107bf565b005b6102676004803603810190610262919061218f565b6107de565b60405161027491906121f9565b60405180910390f35b6102976004803603810190610292919061233e565b6107ef565b6040516102a49190612369565b60405180910390f35b6102b56108a5565b005b6102d160048036038101906102cc91906124ef565b6108b8565b6040516102de9190612369565b60405180910390f35b6102ef6108e5565b6040516102fc91906121f9565b60405180910390f35b61030d61090d565b60405161031a919061213c565b60405180910390f35b61033d60048036038101906103389190612599565b61099d565b005b61035960048036038101906103549190612675565b6109b3565b005b6103756004803603810190610370919061218f565b6109d0565b604051610382919061213c565b60405180910390f35b6103a560048036038101906103a091906126f5565b6109e2565b6040516103b29190612099565b60405180910390f35b6103d560048036038101906103d09190612733565b610a70565b6040516103e29190612369565b60405180910390f35b6104056004803603810190610400919061233e565b610ab4565b005b5f61041182610b38565b9050919050565b60605f8054610426906127ba565b80601f0160208091040260200160405190810160405280929190818152602001828054610452906127ba565b801561049d5780601f106104745761010080835404028352916020019161049d565b820191905f5260205f20905b81548152906001019060200180831161048057829003601f168201915b5050505050905090565b5f6104b182610b98565b506104bb82610c1e565b9050919050565b6104d482826104cf610c57565b610c5e565b5050565b5f73ffffffffffffffffffffffffffffffffffffffff168273ffffffffffffffffffffffffffffffffffffffff1603610548575f6040517f64a0ae9200000000000000000000000000000000000000000000000000000000815260040161053f91906121f9565b60405180910390fd5b5f61055b8383610556610c57565b610c70565b90508373ffffffffffffffffffffffffffffffffffffffff168173ffffffffffffffffffffffffffffffffffffffff16146105d1578382826040517f64283d7b0000000000000000000000000000000000000000000000000000000081526004016105c8939291906127ea565b60405180910390fd5b50505050565b6105e081610e7b565b50565b5f805f60075f8681526020019081526020015f206040518060400160405290815f82015f9054906101000a900473ffffffffffffffffffffffffffffffffffffffff1673ffffffffffffffffffffffffffffffffffffffff1673ffffffffffffffffffffffffffffffffffffffff1681526020015f820160149054906101000a90046bffffffffffffffffffffffff166bffffffffffffffffffffffff166bffffffffffffffffffffffff168152505090505f73ffffffffffffffffffffffffffffffffffffffff16815f015173ffffffffffffffffffffffffffffffffffffffff160361076c5760066040518060400160405290815f82015f9054906101000a900473ffffffffffffffffffffffffffffffffffffffff1673ffffffffffffffffffffffffffffffffffffffff1673ffffffffffffffffffffffffffffffffffffffff1681526020015f820160149054906101000a90046bffffffffffffffffffffffff166bffffffffffffffffffffffff166bffffffffffffffffffffffff168152505090505b5f610775610e90565b6bffffffffffffffffffffffff1682602001516bffffffffffffffffffffffff16866107a1919061284c565b6107ab91906128ba565b9050815f0151819350935050509250929050565b6107d983838360405180602001604052805f8152506109b3565b505050565b5f6107e882610b98565b9050919050565b5f8073ffffffffffffffffffffffffffffffffffffffff168273ffffffffffffffffffffffffffffffffffffffff1603610860575f6040517f89c62b6400000000000000000000000000000000000000000000000000000000815260040161085791906121f9565b60405180910390fd5b60035f8373ffffffffffffffffffffffffffffffffffffffff1673ffffffffffffffffffffffffffffffffffffffff1681526020019081526020015f20549050919050565b6108ad610e99565b6108b65f610f20565b565b5f6108c1610e99565b5f6108cc8686610a70565b90506108d9818585610fe3565b80915050949350505050565b5f60095f9054906101000a900473ffffffffffffffffffffffffffffffffffffffff16905090565b60606001805461091c906127ba565b80601f0160208091040260200160405190810160405280929190818152602001828054610948906127ba565b80156109935780601f1061096a57610100808354040283529160200191610993565b820191905f5260205f20905b81548152906001019060200180831161097657829003601f168201915b5050505050905090565b6109af6109a8610c57565b8383611192565b5050565b6109be8484846104d8565b6109ca848484846112fb565b50505050565b60606109db826114ad565b9050919050565b5f60055f8473ffffffffffffffffffffffffffffffffffffffff1673ffffffffffffffffffffffffffffffffffffffff1681526020019081526020015f205f8373ffffffffffffffffffffffffffffffffffffffff1673ffffffffffffffffffffffffffffffffffffffff1681526020019081526020015f205f9054906101000a900460ff16905092915050565b5f610a79610e99565b600a5f815480929190610a8b906128ea565b91905055505f600a549050610aa084826115b8565b610aaa81846115d5565b8091505092915050565b610abc610e99565b5f73ffffffffffffffffffffffffffffffffffffffff168173ffffffffffffffffffffffffffffffffffffffff1603610b2c575f6040517f1e4fbdf7000000000000000000000000000000000000000000000000000000008152600401610b2391906121f9565b60405180910390fd5b610b3581610f20565b50565b5f634906490660e01b7bffffffffffffffffffffffffffffffffffffffffffffffffffffffff1916827bffffffffffffffffffffffffffffffffffffffffffffffffffffffff19161480610b915750610b908261162f565b5b9050919050565b5f80610ba3836116a8565b90505f73ffffffffffffffffffffffffffffffffffffffff168173ffffffffffffffffffffffffffffffffffffffff1603610c1557826040517f7e273289000000000000000000000000000000000000000000000000000000008152600401610c0c9190612369565b60405180910390fd5b80915050919050565b5f60045f8381526020019081526020015f205f9054906101000a900473ffffffffffffffffffffffffffffffffffffffff169050919050565b5f33905090565b610c6b83838360016116e1565b505050565b5f80610c7b846116a8565b90505f73ffffffffffffffffffffffffffffffffffffffff168373ffffffffffffffffffffffffffffffffffffffff1614610cbc57610cbb8184866118a0565b5b5f73ffffffffffffffffffffffffffffffffffffffff168173ffffffffffffffffffffffffffffffffffffffff1614610d4757610cfb5f855f806116e1565b600160035f8373ffffffffffffffffffffffffffffffffffffffff1673ffffffffffffffffffffffffffffffffffffffff1681526020019081526020015f205f82825403925050819055505b5f73ffffffffffffffffffffffffffffffffffffffff168573ffffffffffffffffffffffffffffffffffffffff1614610dc657600160035f8773ffffffffffffffffffffffffffffffffffffffff1673ffffffffffffffffffffffffffffffffffffffff1681526020019081526020015f205f82825401925050819055505b8460025f8681526020019081526020015f205f6101000a81548173ffffffffffffffffffffffffffffffffffffffff021916908373ffffffffffffffffffffffffffffffffffffffff160217905550838573ffffffffffffffffffffffffffffffffffffffff168273ffffffffffffffffffffffffffffffffffffffff167fddf252ad1be2c89b69c2b068fc378daa952ba7f163c4a11628f55a4df523b3ef60405160405180910390a4809150509392505050565b610e8481611963565b610e8d816119e5565b50565b5f612710905090565b610ea1610c57565b73ffffffffffffffffffffffffffffffffffffffff16610ebf6108e5565b73ffffffffffffffffffffffffffffffffffffffff1614610f1e57610ee2610c57565b6040517f118cdaa7000000000000000000000000000000000000000000000000000000008152600401610f1591906121f9565b60405180910390fd5b565b5f60095f9054906101000a900473ffffffffffffffffffffffffffffffffffffffff1690508160095f6101000a81548173ffffffffffffffffffffffffffffffffffffffff021916908373ffffffffffffffffffffffffffffffffffffffff1602179055508173ffffffffffffffffffffffffffffffffffffffff168173ffffffffffffffffffffffffffffffffffffffff167f8be0079c531659141344cd1fd0a4f28419497f9722a3daafe3b4186f6b6457e060405160405180910390a35050565b5f610fec610e90565b6bffffffffffffffffffffffff16905080826bffffffffffffffffffffffff161115611053578382826040517fdfd1fc1b00000000000000000000000000000000000000000000000000000000815260040161104a9392919061296a565b60405180910390fd5b5f73ffffffffffffffffffffffffffffffffffffffff168373ffffffffffffffffffffffffffffffffffffffff16036110c557835f6040517f969f08520000000000000000000000000000000000000000000000000000000081526004016110bc92919061299f565b60405180910390fd5b60405180604001604052808473ffffffffffffffffffffffffffffffffffffffff168152602001836bffffffffffffffffffffffff1681525060075f8681526020019081526020015f205f820151815f015f6101000a81548173ffffffffffffffffffffffffffffffffffffffff021916908373ffffffffffffffffffffffffffffffffffffffff1602179055506020820151815f0160146101000a8154816bffffffffffffffffffffffff02191690836bffffffffffffffffffffffff16021790555090505050505050565b5f73ffffffffffffffffffffffffffffffffffffffff168273ffffffffffffffffffffffffffffffffffffffff160361120257816040517f5b08ba180000000000000000000000000000000000000000000000000000000081526004016111f991906121f9565b60405180910390fd5b8060055f8573ffffffffffffffffffffffffffffffffffffffff1673ffffffffffffffffffffffffffffffffffffffff1681526020019081526020015f205f8473ffffffffffffffffffffffffffffffffffffffff1673ffffffffffffffffffffffffffffffffffffffff1681526020019081526020015f205f6101000a81548160ff0219169083151502179055508173ffffffffffffffffffffffffffffffffffffffff168373ffffffffffffffffffffffffffffffffffffffff167f17307eab39ab6107e8899845ad3d59bd9653f200f220920489ca2b5937696c31836040516112ee9190612099565b60405180910390a3505050565b5f8373ffffffffffffffffffffffffffffffffffffffff163b11156114a7578273ffffffffffffffffffffffffffffffffffffffff1663150b7a0261133e610c57565b8685856040518563ffffffff1660e01b81526004016113609493929190612a18565b6020604051808303815f875af192505050801561139b57506040513d601f19601f820116820180604052508101906113989190612a76565b60015b61141c573d805f81146113c9576040519150601f19603f3d011682016040523d82523d5f602084013e6113ce565b606091505b505f81510361141457836040517f64a0ae9200000000000000000000000000000000000000000000000000000000815260040161140b91906121f9565b60405180910390fd5b805181602001fd5b63150b7a0260e01b7bffffffffffffffffffffffffffffffffffffffffffffffffffffffff1916817bffffffffffffffffffffffffffffffffffffffffffffffffffffffff1916146114a557836040517f64a0ae9200000000000000000000000000000000000000000000000000000000815260040161149c91906121f9565b60405180910390fd5b505b50505050565b60606114b882610b98565b505f60085f8481526020019081526020015f2080546114d6906127ba565b80601f0160208091040260200160405190810160405280929190818152602001828054611502906127ba565b801561154d5780601f106115245761010080835404028352916020019161154d565b820191905f5260205f20905b81548152906001019060200180831161153057829003601f168201915b505050505090505f61155d611a3f565b90505f8151036115715781925050506115b3565b5f825111156115a557808260405160200161158d929190612adb565b604051602081830303815290604052925050506115b3565b6115ae84611a55565b925050505b919050565b6115d1828260405180602001604052805f815250611abb565b5050565b8060085f8481526020019081526020015f2090816115f39190612c92565b507ff8e1a15aba9398e019f0b49df1a4fde98ee17ae345cb5f6b5e2c27f5033e8ce7826040516116239190612369565b60405180910390a15050565b5f7f2a55205a000000000000000000000000000000000000000000000000000000007bffffffffffffffffffffffffffffffffffffffffffffffffffffffff1916827bffffffffffffffffffffffffffffffffffffffffffffffffffffffff191614806116a157506116a082611ad6565b5b9050919050565b5f60025f8381526020019081526020015f205f9054906101000a900473ffffffffffffffffffffffffffffffffffffffff169050919050565b808061171957505f73ffffffffffffffffffffffffffffffffffffffff168273ffffffffffffffffffffffffffffffffffffffff1614155b1561184b575f61172884610b98565b90505f73ffffffffffffffffffffffffffffffffffffffff168373ffffffffffffffffffffffffffffffffffffffff161415801561179257508273ffffffffffffffffffffffffffffffffffffffff168173ffffffffffffffffffffffffffffffffffffffff1614155b80156117a557506117a381846109e2565b155b156117e757826040517fa9fbf51f0000000000000000000000000000000000000000000000000000000081526004016117de91906121f9565b60405180910390fd5b811561184957838573ffffffffffffffffffffffffffffffffffffffff168273ffffffffffffffffffffffffffffffffffffffff167f8c5be1e5ebec7d5bd14f71427d1e84f3dd0314c0f7b2291e5b200ac8c7c3b92560405160405180910390a45b505b8360045f8581526020019081526020015f205f6101000a81548173ffffffffffffffffffffffffffffffffffffffff021916908373ffffffffffffffffffffffffffffffffffffffff16021790555050505050565b6118ab838383611bb7565b61195e575f73ffffffffffffffffffffffffffffffffffffffff168373ffffffffffffffffffffffffffffffffffffffff160361191f57806040517f7e2732890000000000000000000000000000000000000000000000000000000081526004016119169190612369565b60405180910390fd5b81816040517f177e802f000000000000000000000000000000000000000000000000000000008152600401611955929190612317565b60405180910390fd5b505050565b5f61196f5f835f610c70565b90505f73ffffffffffffffffffffffffffffffffffffffff168173ffffffffffffffffffffffffffffffffffffffff16036119e157816040517f7e2732890000000000000000000000000000000000000000000000000000000081526004016119d89190612369565b60405180910390fd5b5050565b60075f8281526020019081526020015f205f8082015f6101000a81549073ffffffffffffffffffffffffffffffffffffffff02191690555f820160146101000a8154906bffffffffffffffffffffffff0219169055505050565b606060405180602001604052805f815250905090565b6060611a6082610b98565b505f611a6a611a3f565b90505f815111611a885760405180602001604052805f815250611ab3565b80611a9284611c77565b604051602001611aa3929190612adb565b6040516020818303038152906040525b915050919050565b611ac58383611d41565b611ad15f8484846112fb565b505050565b5f7f80ac58cd000000000000000000000000000000000000000000000000000000007bffffffffffffffffffffffffffffffffffffffffffffffffffffffff1916827bffffffffffffffffffffffffffffffffffffffffffffffffffffffff19161480611ba057507f5b5e139f000000000000000000000000000000000000000000000000000000007bffffffffffffffffffffffffffffffffffffffffffffffffffffffff1916827bffffffffffffffffffffffffffffffffffffffffffffffffffffffff1916145b80611bb05750611baf82611e34565b5b9050919050565b5f8073ffffffffffffffffffffffffffffffffffffffff168373ffffffffffffffffffffffffffffffffffffffff1614158015611c6e57508273ffffffffffffffffffffffffffffffffffffffff168473ffffffffffffffffffffffffffffffffffffffff161480611c2f5750611c2e84846109e2565b5b80611c6d57508273ffffffffffffffffffffffffffffffffffffffff16611c5583610c1e565b73ffffffffffffffffffffffffffffffffffffffff16145b5b90509392505050565b60605f6001611c8584611e9d565b0190505f8167ffffffffffffffff811115611ca357611ca261238a565b5b6040519080825280601f01601f191660200182016040528015611cd55781602001600182028036833780820191505090505b5090505f82602001820190505b600115611d36578080600190039150507f3031323334353637383961626364656600000000000000000000000000000000600a86061a8153600a8581611d2b57611d2a61288d565b5b0494505f8503611ce2575b819350505050919050565b5f73ffffffffffffffffffffffffffffffffffffffff168273ffffffffffffffffffffffffffffffffffffffff1603611db1575f6040517f64a0ae92000000000000000000000000000000000000000000000000000000008152600401611da891906121f9565b60405180910390fd5b5f611dbd83835f610c70565b90505f73ffffffffffffffffffffffffffffffffffffffff168173ffffffffffffffffffffffffffffffffffffffff1614611e2f575f6040517f73c6ac6e000000000000000000000000000000000000000000000000000000008152600401611e2691906121f9565b60405180910390fd5b505050565b5f7f01ffc9a7000000000000000000000000000000000000000000000000000000007bffffffffffffffffffffffffffffffffffffffffffffffffffffffff1916827bffffffffffffffffffffffffffffffffffffffffffffffffffffffff1916149050919050565b5f805f90507a184f03e93ff9f4daa797ed6e38ed64bf6a1f0100000000000000008310611ef9577a184f03e93ff9f4daa797ed6e38ed64bf6a1f0100000000000000008381611eef57611eee61288d565b5b0492506040810190505b6d04ee2d6d415b85acef81000000008310611f36576d04ee2d6d415b85acef81000000008381611f2c57611f2b61288d565b5b0492506020810190505b662386f26fc100008310611f6557662386f26fc100008381611f5b57611f5a61288d565b5b0492506010810190505b6305f5e1008310611f8e576305f5e1008381611f8457611f8361288d565b5b0492506008810190505b6127108310611fb3576127108381611fa957611fa861288d565b5b0492506004810190505b60648310611fd65760648381611fcc57611fcb61288d565b5b0492506002810190505b600a8310611fe5576001810190505b80915050919050565b5f604051905090565b5f80fd5b5f80fd5b5f7fffffffff0000000000000000000000000000000000000000000000000000000082169050919050565b61203381611fff565b811461203d575f80fd5b50565b5f8135905061204e8161202a565b92915050565b5f6020828403121561206957612068611ff7565b5b5f61207684828501612040565b91505092915050565b5f8115159050919050565b6120938161207f565b82525050565b5f6020820190506120ac5f83018461208a565b92915050565b5f81519050919050565b5f82825260208201905092915050565b5f5b838110156120e95780820151818401526020810190506120ce565b5f8484015250505050565b5f601f19601f8301169050919050565b5f61210e826120b2565b61211881856120bc565b93506121288185602086016120cc565b612131816120f4565b840191505092915050565b5f6020820190508181035f8301526121548184612104565b905092915050565b5f819050919050565b61216e8161215c565b8114612178575f80fd5b50565b5f8135905061218981612165565b92915050565b5f602082840312156121a4576121a3611ff7565b5b5f6121b18482850161217b565b91505092915050565b5f73ffffffffffffffffffffffffffffffffffffffff82169050919050565b5f6121e3826121ba565b9050919050565b6121f3816121d9565b82525050565b5f60208201905061220c5f8301846121ea565b92915050565b61221b816121d9565b8114612225575f80fd5b50565b5f8135905061223681612212565b92915050565b5f806040838503121561225257612251611ff7565b5b5f61225f85828601612228565b92505060206122708582860161217b565b9150509250929050565b5f805f6060848603121561229157612290611ff7565b5b5f61229e86828701612228565b93505060206122af86828701612228565b92505060406122c08682870161217b565b9150509250925092565b5f80604083850312156122e0576122df611ff7565b5b5f6122ed8582860161217b565b92505060206122fe8582860161217b565b9150509250929050565b6123118161215c565b82525050565b5f60408201905061232a5f8301856121ea565b6123376020830184612308565b9392505050565b5f6020828403121561235357612352611ff7565b5b5f61236084828501612228565b91505092915050565b5f60208201905061237c5f830184612308565b92915050565b5f80fd5b5f80fd5b7f4e487b71000000000000000000000000000000000000000000000000000000005f52604160045260245ffd5b6123c0826120f4565b810181811067ffffffffffffffff821117156123df576123de61238a565b5b80604052505050565b5f6123f1611fee565b90506123fd82826123b7565b919050565b5f67ffffffffffffffff82111561241c5761241b61238a565b5b612425826120f4565b9050602081019050919050565b828183375f83830152505050565b5f61245261244d84612402565b6123e8565b90508281526020810184848401111561246e5761246d612386565b5b612479848285612432565b509392505050565b5f82601f83011261249557612494612382565b5b81356124a5848260208601612440565b91505092915050565b5f6bffffffffffffffffffffffff82169050919050565b6124ce816124ae565b81146124d8575f80fd5b50565b5f813590506124e9816124c5565b92915050565b5f805f806080858703121561250757612506611ff7565b5b5f61251487828801612228565b945050602085013567ffffffffffffffff81111561253557612534611ffb565b5b61254187828801612481565b935050604061255287828801612228565b9250506060612563878288016124db565b91505092959194509250565b6125788161207f565b8114612582575f80fd5b50565b5f813590506125938161256f565b92915050565b5f80604083850312156125af576125ae611ff7565b5b5f6125bc85828601612228565b92505060206125cd85828601612585565b9150509250929050565b5f67ffffffffffffffff8211156125f1576125f061238a565b5b6125fa826120f4565b9050602081019050919050565b5f612619612614846125d7565b6123e8565b90508281526020810184848401111561263557612634612386565b5b612640848285612432565b509392505050565b5f82601f83011261265c5761265b612382565b5b813561266c848260208601612607565b91505092915050565b5f805f806080858703121561268d5761268c611ff7565b5b5f61269a87828801612228565b94505060206126ab87828801612228565b93505060406126bc8782880161217b565b925050606085013567ffffffffffffffff8111156126dd576126dc611ffb565b5b6126e987828801612648565b91505092959194509250565b5f806040838503121561270b5761270a611ff7565b5b5f61271885828601612228565b925050602061272985828601612228565b9150509250929050565b5f806040838503121561274957612748611ff7565b5b5f61275685828601612228565b925050602083013567ffffffffffffffff81111561277757612776611ffb565b5b61278385828601612481565b9150509250929050565b7f4e487b71000000000000000000000000000000000000000000000000000000005f52602260045260245ffd5b5f60028204905060018216806127d157607f821691505b6020821081036127e4576127e361278d565b5b50919050565b5f6060820190506127fd5f8301866121ea565b61280a6020830185612308565b61281760408301846121ea565b949350505050565b7f4e487b71000000000000000000000000000000000000000000000000000000005f52601160045260245ffd5b5f6128568261215c565b91506128618361215c565b925082820261286f8161215c565b915082820484148315176128865761288561281f565b5b5092915050565b7f4e487b71000000000000000000000000000000000000000000000000000000005f52601260045260245ffd5b5f6128c48261215c565b91506128cf8361215c565b9250826128df576128de61288d565b5b828204905092915050565b5f6128f48261215c565b91507fffffffffffffffffffffffffffffffffffffffffffffffffffffffffffffffff82036129265761292561281f565b5b600182019050919050565b5f819050919050565b5f61295461294f61294a846124ae565b612931565b61215c565b9050919050565b6129648161293a565b82525050565b5f60608201905061297d5f830186612308565b61298a602083018561295b565b6129976040830184612308565b949350505050565b5f6040820190506129b25f830185612308565b6129bf60208301846121ea565b9392505050565b5f81519050919050565b5f82825260208201905092915050565b5f6129ea826129c6565b6129f481856129d0565b9350612a048185602086016120cc565b612a0d816120f4565b840191505092915050565b5f608082019050612a2b5f8301876121ea565b612a3860208301866121ea565b612a456040830185612308565b8181036060830152612a5781846129e0565b905095945050505050565b5f81519050612a708161202a565b92915050565b5f60208284031215612a8b57612a8a611ff7565b5b5f612a9884828501612a62565b91505092915050565b5f81905092915050565b5f612ab5826120b2565b612abf8185612aa1565b9350612acf8185602086016120cc565b80840191505092915050565b5f612ae68285612aab565b9150612af28284612aab565b91508190509392505050565b5f819050815f5260205f209050919050565b5f6020601f8301049050919050565b5f82821b905092915050565b5f60088302612b5a7fffffffffffffffffffffffffffffffffffffffffffffffffffffffffffffffff82612b1f565b612b648683612b1f565b95508019841693508086168417925050509392505050565b5f612b96612b91612b8c8461215c565b612931565b61215c565b9050919050565b5f819050919050565b612baf83612b7c565b612bc3612bbb82612b9d565b848454612b2b565b825550505050565b5f90565b612bd7612bcb565b612be2818484612ba6565b505050565b5b81811015612c0557612bfa5f82612bcf565b600181019050612be8565b5050565b601f821115612c4a57612c1b81612afe565b612c2484612b10565b81016020851015612c33578190505b612c47612c3f85612b10565b830182612be7565b50505b505050565b5f82821c905092915050565b5f612c6a5f1984600802612c4f565b1980831691505092915050565b5f612c828383612c5b565b9150826002028217905092915050565b612c9b826120b2565b67ffffffffffffffff811115612cb457612cb361238a565b5b612cbe82546127ba565b612cc9828285612c09565b5f60209050601f831160018114612cfa575f8415612ce8578287015190505b612cf28582612c77565b865550612d59565b601f198416612d0886612afe565b5f5b82811015612d2f57848901518255600182019150602085019450602081019050612d0a565b86831015612d4c5784890151612d48601f891682612c5b565b8355505b6001600288020188555050505b50505050505056fea26469706673582212205f1b674e2dbb48084508846e54023023ab9f964f39558be1accd6ad09466a8b264736f6c63430008140033",
  "immutableReferences": {},
  "source": "// SPDX-License-Identifier: MIT\npragma solidity >=0.4.22 <0.9.0;\n\nimport \"@openzeppelin/contracts/token/common/ERC2981.sol\";\nimport \"@openzeppelin/contracts/token/ERC721/extensions/ERC721URIStorage.sol\";\nimport \"@openzeppelin/contracts/access/Ownable.sol\";\nimport \"@openzeppelin/contracts/token/ERC721/ERC721.sol\";\n\ncontract RoyalPets is ERC721, ERC2981, ERC721URIStorage, Ownable {\n    uint256 private _tokenIds;\n    address initalOwner;\n\n    constructor(\n        address initialOwner\n    ) Ownable(initialOwner) ERC721(\"RoyalPets\", \"RP\") {\n        _setDefaultRoyalty(msg.sender, 100);\n    }\n\n    // function _burn(uint256 tokenId) internal virtual override(ERC721) {\n    //     super._burn(tokenId);\n    //     _resetTokenRoyalty(tokenId);\n    // }\n\n    function royal_burn(uint256 tokenId) internal {\n        ERC721._burn(tokenId);\n        _resetTokenRoyalty(tokenId);\n    }\n\n    function supportsInterface(\n        bytes4 interfaceId\n    )\n        public\n        view\n        virtual\n        override(ERC721, ERC2981, ERC721URIStorage)\n        returns (bool)\n    {\n        return super.supportsInterface(interfaceId);\n    }\n\n    function burnNFT(uint256 tokenId) public {\n        // _burn(tokenId);\n        royal_burn(tokenId);\n    }\n\n    function mintNFT(\n        address recipient,\n        string memory token_uri\n    ) public onlyOwner returns (uint256) {\n        _tokenIds++;\n        uint256 newItemId = _tokenIds;\n\n        _safeMint(recipient, newItemId);\n        _setTokenURI(newItemId, token_uri);\n\n        return newItemId;\n    }\n\n    function mintNFTWithRoyalty(\n        address recipient,\n        string memory token_uri,\n        address royaltyReceiver,\n        uint96 feeNumerator\n    ) public onlyOwner returns (uint256) {\n        uint256 tokenId = mintNFT(recipient, token_uri);\n        _setTokenRoyalty(tokenId, royaltyReceiver, feeNumerator);\n\n        return tokenId;\n    }\n\n    function tokenURI(\n        uint256 tokenId\n    )\n        public\n        view\n        virtual\n        override(ERC721, ERC721URIStorage)\n        returns (string memory)\n    {\n        // I'm making an executive decision here: the function tokenURI is defined diferently in two of the inherited contracts (ERC721 and ERC721URIStorage). Given that the\n        // ERC721URIStorage is more complete, I'm simpling invoking this one with the input arguments and returning its output too.\n\n        return ERC721URIStorage.tokenURI(tokenId);\n    }\n}\n",
  "sourcePath": "/home/ricardoalmeida/Solidity_projects/solidity_projects/8_nft-royalty/contracts/RoyalPets.sol",
  "compiler": {
    "name": "solc",
    "version": "0.8.20+commit.a1b79de6.Emscripten.clang"
  },
  "schemaVersion": "3.4.13",
  "updatedAt": "2023-11-15T20:08:38.284Z",
  "networkType": "ethereum",
  "devdoc": {
    "errors": {
      "ERC2981InvalidDefaultRoyalty(uint256,uint256)": [
        {
          "details": "The default royalty set is invalid (eg. (numerator / denominator) >= 1)."
        }
      ],
      "ERC2981InvalidDefaultRoyaltyReceiver(address)": [
        {
          "details": "The default royalty receiver is invalid."
        }
      ],
      "ERC2981InvalidTokenRoyalty(uint256,uint256,uint256)": [
        {
          "details": "The royalty set for an specific `tokenId` is invalid (eg. (numerator / denominator) >= 1)."
        }
      ],
      "ERC2981InvalidTokenRoyaltyReceiver(uint256,address)": [
        {
          "details": "The royalty receiver for `tokenId` is invalid."
        }
      ],
      "ERC721IncorrectOwner(address,uint256,address)": [
        {
          "details": "Indicates an error related to the ownership over a particular token. Used in transfers.",
          "params": {
            "owner": "Address of the current owner of a token.",
            "sender": "Address whose tokens are being transferred.",
            "tokenId": "Identifier number of a token."
          }
        }
      ],
      "ERC721InsufficientApproval(address,uint256)": [
        {
          "details": "Indicates a failure with the `operator`s approval. Used in transfers.",
          "params": {
            "operator": "Address that may be allowed to operate on tokens without being their owner.",
            "tokenId": "Identifier number of a token."
          }
        }
      ],
      "ERC721InvalidApprover(address)": [
        {
          "details": "Indicates a failure with the `approver` of a token to be approved. Used in approvals.",
          "params": {
            "approver": "Address initiating an approval operation."
          }
        }
      ],
      "ERC721InvalidOperator(address)": [
        {
          "details": "Indicates a failure with the `operator` to be approved. Used in approvals.",
          "params": {
            "operator": "Address that may be allowed to operate on tokens without being their owner."
          }
        }
      ],
      "ERC721InvalidOwner(address)": [
        {
          "details": "Indicates that an address can't be an owner. For example, `address(0)` is a forbidden owner in EIP-20. Used in balance queries.",
          "params": {
            "owner": "Address of the current owner of a token."
          }
        }
      ],
      "ERC721InvalidReceiver(address)": [
        {
          "details": "Indicates a failure with the token `receiver`. Used in transfers.",
          "params": {
            "receiver": "Address to which tokens are being transferred."
          }
        }
      ],
      "ERC721InvalidSender(address)": [
        {
          "details": "Indicates a failure with the token `sender`. Used in transfers.",
          "params": {
            "sender": "Address whose tokens are being transferred."
          }
        }
      ],
      "ERC721NonexistentToken(uint256)": [
        {
          "details": "Indicates a `tokenId` whose `owner` is the zero address.",
          "params": {
            "tokenId": "Identifier number of a token."
          }
        }
      ],
      "OwnableInvalidOwner(address)": [
        {
          "details": "The owner is not a valid owner account. (eg. `address(0)`)"
        }
      ],
      "OwnableUnauthorizedAccount(address)": [
        {
          "details": "The caller account is not authorized to perform an operation."
        }
      ]
    },
    "events": {
      "Approval(address,address,uint256)": {
        "details": "Emitted when `owner` enables `approved` to manage the `tokenId` token."
      },
      "ApprovalForAll(address,address,bool)": {
        "details": "Emitted when `owner` enables or disables (`approved`) `operator` to manage all of its assets."
      },
      "BatchMetadataUpdate(uint256,uint256)": {
        "details": "This event emits when the metadata of a range of tokens is changed. So that the third-party platforms such as NFT market could timely update the images and related attributes of the NFTs."
      },
      "MetadataUpdate(uint256)": {
        "details": "This event emits when the metadata of a token is changed. So that the third-party platforms such as NFT market could timely update the images and related attributes of the NFT."
      },
      "Transfer(address,address,uint256)": {
        "details": "Emitted when `tokenId` token is transferred from `from` to `to`."
      }
    },
    "kind": "dev",
    "methods": {
      "approve(address,uint256)": {
        "details": "See {IERC721-approve}."
      },
      "balanceOf(address)": {
        "details": "See {IERC721-balanceOf}."
      },
      "getApproved(uint256)": {
        "details": "See {IERC721-getApproved}."
      },
      "isApprovedForAll(address,address)": {
        "details": "See {IERC721-isApprovedForAll}."
      },
      "name()": {
        "details": "See {IERC721Metadata-name}."
      },
      "owner()": {
        "details": "Returns the address of the current owner."
      },
      "ownerOf(uint256)": {
        "details": "See {IERC721-ownerOf}."
      },
      "renounceOwnership()": {
        "details": "Leaves the contract without owner. It will not be possible to call `onlyOwner` functions. Can only be called by the current owner. NOTE: Renouncing ownership will leave the contract without an owner, thereby disabling any functionality that is only available to the owner."
      },
      "royaltyInfo(uint256,uint256)": {
        "details": "Returns how much royalty is owed and to whom, based on a sale price that may be denominated in any unit of exchange. The royalty amount is denominated and should be paid in that same unit of exchange."
      },
      "safeTransferFrom(address,address,uint256)": {
        "details": "See {IERC721-safeTransferFrom}."
      },
      "safeTransferFrom(address,address,uint256,bytes)": {
        "details": "See {IERC721-safeTransferFrom}."
      },
      "setApprovalForAll(address,bool)": {
        "details": "See {IERC721-setApprovalForAll}."
      },
      "symbol()": {
        "details": "See {IERC721Metadata-symbol}."
      },
      "transferFrom(address,address,uint256)": {
        "details": "See {IERC721-transferFrom}."
      },
      "transferOwnership(address)": {
        "details": "Transfers ownership of the contract to a new account (`newOwner`). Can only be called by the current owner."
      }
    },
    "version": 1
  },
  "userdoc": {
    "kind": "user",
    "methods": {},
    "version": 1
  }
}