{
  "address": "0x6d66597Bb1d8B83a9cC05681f576eeF19c05e8C7",
  "abi": [
    {
      "inputs": [
        {
          "internalType": "address",
          "name": "priceFeedAddress",
          "type": "address"
        }
      ],
      "stateMutability": "nonpayable",
      "type": "constructor"
    },
    {
      "inputs": [
        {
          "internalType": "uint256",
          "name": "fundProvided",
          "type": "uint256"
        },
        {
          "internalType": "uint256",
          "name": "minimumFunds",
          "type": "uint256"
        }
      ],
      "name": "FundMeHelper__InvalidFunds",
      "type": "error"
    },
    {
      "inputs": [],
      "name": "MINIMUM_ETH",
      "outputs": [
        {
          "internalType": "uint256",
          "name": "",
          "type": "uint256"
        }
      ],
      "stateMutability": "view",
      "type": "function"
    },
    {
      "inputs": [],
      "name": "fundMeContract",
      "outputs": [
        {
          "internalType": "contract FundMe",
          "name": "",
          "type": "address"
        }
      ],
      "stateMutability": "view",
      "type": "function"
    },
    {
      "inputs": [],
      "name": "helperWithdraw",
      "outputs": [],
      "stateMutability": "nonpayable",
      "type": "function"
    },
    {
      "inputs": [],
      "name": "initialFund",
      "outputs": [],
      "stateMutability": "payable",
      "type": "function"
    }
  ],
  "transactionHash": "0xc756372125abf935ef0085576c6a921a13ca0326428c7018e362f57da3bfb2f6",
  "args": [
    "0x694AA1769357215DE4FAC081bf1f309aDC325306"
  ],
  "numDeployments": 2,
  "solcInputHash": "b96b4037a67d67b55eb6c56b347b70f5",
  "bytecode": "0x608060405234801561001057600080fd5b50604051611a7c380380611a7c8339818101604052810190610032919061011b565b8060405161003f906100ab565b6100499190610157565b604051809103906000f080158015610065573d6000803e3d6000fd5b506000806101000a81548173ffffffffffffffffffffffffffffffffffffffff021916908373ffffffffffffffffffffffffffffffffffffffff16021790555050610172565b6116098061047383390190565b600080fd5b600073ffffffffffffffffffffffffffffffffffffffff82169050919050565b60006100e8826100bd565b9050919050565b6100f8816100dd565b811461010357600080fd5b50565b600081519050610115816100ef565b92915050565b600060208284031215610131576101306100b8565b5b600061013f84828501610106565b91505092915050565b610151816100dd565b82525050565b600060208201905061016c6000830184610148565b92915050565b6102f2806101816000396000f3fe60806040526004361061003f5760003560e01c8063106ad23614610044578063965cc6c71461006f578063d5e3af4514610086578063e25c3f65146100b1575b600080fd5b34801561005057600080fd5b506100596100bb565b6040516100669190610244565b60405180910390f35b34801561007b57600080fd5b506100846100df565b005b34801561009257600080fd5b5061009b610161565b6040516100a89190610278565b60405180910390f35b6100b961016d565b005b60008054906101000a900473ffffffffffffffffffffffffffffffffffffffff1681565b60008054906101000a900473ffffffffffffffffffffffffffffffffffffffff1673ffffffffffffffffffffffffffffffffffffffff16633ccfd60b6040518163ffffffff1660e01b8152600401600060405180830381600087803b15801561014757600080fd5b505af115801561015b573d6000803e3d6000fd5b50505050565b6706f05b59d3b2000081565b6706f05b59d3b2000034116101c357346706f05b59d3b200006040517ff977a0e00000000000000000000000000000000000000000000000000000000081526004016101ba929190610293565b60405180910390fd5b565b600073ffffffffffffffffffffffffffffffffffffffff82169050919050565b6000819050919050565b600061020a610205610200846101c5565b6101e5565b6101c5565b9050919050565b600061021c826101ef565b9050919050565b600061022e82610211565b9050919050565b61023e81610223565b82525050565b60006020820190506102596000830184610235565b92915050565b6000819050919050565b6102728161025f565b82525050565b600060208201905061028d6000830184610269565b92915050565b60006040820190506102a86000830185610269565b6102b56020830184610269565b939250505056fea264697066735822122087090584e72814790f8fddc68a1b9ac637bf2735e85fbd54e95517c745e9b90f64736f6c6343000818003360a06040523480156200001157600080fd5b50604051620016093803806200160983398181016040528101906200003791906200011d565b3373ffffffffffffffffffffffffffffffffffffffff1660808173ffffffffffffffffffffffffffffffffffffffff168152505080600260006101000a81548173ffffffffffffffffffffffffffffffffffffffff021916908373ffffffffffffffffffffffffffffffffffffffff160217905550506200014f565b600080fd5b600073ffffffffffffffffffffffffffffffffffffffff82169050919050565b6000620000e582620000b8565b9050919050565b620000f781620000d8565b81146200010357600080fd5b50565b6000815190506200011781620000ec565b92915050565b600060208284031215620001365762000135620000b3565b5b6000620001468482850162000106565b91505092915050565b6080516114906200017960003960008181610589015281816107c7015261081701526114906000f3fe60806040526004361061008a5760003560e01c80636b69a592116100595780636b69a5921461015f578063893d20e81461018a5780639e87a5cd146101b5578063b60d4288146101e0578063be2693f0146101ea57610099565b80630343fb25146100a35780630d8e6e2c146100e05780633bcb43f31461010b5780633ccfd60b1461014857610099565b36610099576100976101f4565b005b6100a16101f4565b005b3480156100af57600080fd5b506100ca60048036038101906100c59190610e9c565b610421565b6040516100d79190610ee2565b60405180910390f35b3480156100ec57600080fd5b506100f5610469565b6040516101029190610ee2565b60405180910390f35b34801561011757600080fd5b50610132600480360381019061012d9190610f29565b61053f565b60405161013f9190610f65565b60405180910390f35b34801561015457600080fd5b5061015d610587565b005b34801561016b57600080fd5b506101746107b8565b6040516101819190610ee2565b60405180910390f35b34801561019657600080fd5b5061019f6107c3565b6040516101ac9190610f65565b60405180910390f35b3480156101c157600080fd5b506101ca6107eb565b6040516101d79190610fdf565b60405180910390f35b6101e86101f4565b005b6101f2610815565b005b600061022b600260009054906101000a900473ffffffffffffffffffffffffffffffffffffffff1634610aaa90919063ffffffff16565b905066b1a2bc2ec500008111610281578066b1a2bc2ec500006040517ffcf39499000000000000000000000000000000000000000000000000000000008152600401610278929190610ffa565b60405180910390fd5b346000803373ffffffffffffffffffffffffffffffffffffffff1673ffffffffffffffffffffffffffffffffffffffff16815260200190815260200160002060008282546102cf9190611052565b925050819055506001339080600181540180825580915050600190039060005260206000200160009091909190916101000a81548173ffffffffffffffffffffffffffffffffffffffff021916908373ffffffffffffffffffffffffffffffffffffffff1602179055506000670de0b6b3a76400003461034f91906110b5565b905061038f6040518060400160405280600881526020017f4163636f756e7420000000000000000000000000000000000000000000000000815250610ae6565b61039833610b7f565b6103d66040518060400160405280601b81526020017f2066756e646564207468697320636f6e74726163742077697468200000000000815250610ae6565b6103df81610c18565b61041d6040518060400160405280600481526020017f2045544800000000000000000000000000000000000000000000000000000000815250610ae6565b5050565b60008060008373ffffffffffffffffffffffffffffffffffffffff1673ffffffffffffffffffffffffffffffffffffffff168152602001908152602001600020549050919050565b60006104a96040518060400160405280601c81526020017f67657456657273696f6e2066756e6374696f6e20696e766f6b65642100000000815250610ae6565b600260009054906101000a900473ffffffffffffffffffffffffffffffffffffffff1673ffffffffffffffffffffffffffffffffffffffff166354fd4d506040518163ffffffff1660e01b8152600401602060405180830381865afa158015610516573d6000803e3d6000fd5b505050506040513d601f19601f8201168201806040525081019061053a91906110fb565b905090565b60006001828154811061055557610554611128565b5b9060005260206000200160009054906101000a900473ffffffffffffffffffffffffffffffffffffffff169050919050565b7f000000000000000000000000000000000000000000000000000000000000000073ffffffffffffffffffffffffffffffffffffffff163373ffffffffffffffffffffffffffffffffffffffff161461060c576040517f579610db00000000000000000000000000000000000000000000000000000000815260040160405180910390fd5b60005b6001805490508110156106b15760006001828154811061063257610631611128565b5b9060005260206000200160009054906101000a900473ffffffffffffffffffffffffffffffffffffffff16905060008060008373ffffffffffffffffffffffffffffffffffffffff1673ffffffffffffffffffffffffffffffffffffffff1681526020019081526020016000208190555050808060010191505061060f565b50600067ffffffffffffffff8111156106cd576106cc611157565b5b6040519080825280602002602001820160405280156106fb5781602001602082028036833780820191505090505b5060019080519060200190610711929190610d88565b5060003373ffffffffffffffffffffffffffffffffffffffff1647604051610738906111b7565b60006040518083038185875af1925050503d8060008114610775576040519150601f19603f3d011682016040523d82523d6000602084013e61077a565b606091505b50509050806107b5576040517fa6139a6400000000000000000000000000000000000000000000000000000000815260040160405180910390fd5b50565b66b1a2bc2ec5000081565b60007f0000000000000000000000000000000000000000000000000000000000000000905090565b6000600260009054906101000a900473ffffffffffffffffffffffffffffffffffffffff16905090565b7f000000000000000000000000000000000000000000000000000000000000000073ffffffffffffffffffffffffffffffffffffffff163373ffffffffffffffffffffffffffffffffffffffff161461089a576040517f579610db00000000000000000000000000000000000000000000000000000000815260040160405180910390fd5b6000600180548060200260200160405190810160405280929190818152602001828054801561091e57602002820191906000526020600020905b8160009054906101000a900473ffffffffffffffffffffffffffffffffffffffff1673ffffffffffffffffffffffffffffffffffffffff16815260200190600101908083116108d4575b5050505050905060005b81518110156109a257600082828151811061094657610945611128565b5b6020026020010151905060008060008373ffffffffffffffffffffffffffffffffffffffff1673ffffffffffffffffffffffffffffffffffffffff16815260200190815260200160002081905550508080600101915050610928565b50600067ffffffffffffffff8111156109be576109bd611157565b5b6040519080825280602002602001820160405280156109ec5781602001602082028036833780820191505090505b5060019080519060200190610a02929190610d88565b5060003373ffffffffffffffffffffffffffffffffffffffff1647604051610a29906111b7565b60006040518083038185875af1925050503d8060008114610a66576040519150601f19603f3d011682016040523d82523d6000602084013e610a6b565b606091505b5050905080610aa6576040517fa6139a6400000000000000000000000000000000000000000000000000000000815260040160405180910390fd5b5050565b600080610ab683610cb1565b90506000670de0b6b3a76400008583610acf91906111cc565b610ad991906110b5565b9050809250505092915050565b610b7c81604051602401610afa919061129e565b6040516020818303038152906040527f41304fac000000000000000000000000000000000000000000000000000000007bffffffffffffffffffffffffffffffffffffffffffffffffffffffff19166020820180517bffffffffffffffffffffffffffffffffffffffffffffffffffffffff8381831617835250505050610d42565b50565b610c1581604051602401610b939190610f65565b6040516020818303038152906040527f2c2ecbc2000000000000000000000000000000000000000000000000000000007bffffffffffffffffffffffffffffffffffffffffffffffffffffffff19166020820180517bffffffffffffffffffffffffffffffffffffffffffffffffffffffff8381831617835250505050610d42565b50565b610cae81604051602401610c2c9190610ee2565b6040516020818303038152906040527ff82c50f1000000000000000000000000000000000000000000000000000000007bffffffffffffffffffffffffffffffffffffffffffffffffffffffff19166020820180517bffffffffffffffffffffffffffffffffffffffffffffffffffffffff8381831617835250505050610d42565b50565b6000808273ffffffffffffffffffffffffffffffffffffffff1663feaf968c6040518163ffffffff1660e01b815260040160a060405180830381865afa158015610cff573d6000803e3d6000fd5b505050506040513d601f19601f82011682018060405250810190610d239190611338565b5050509150506402540be40081610d3a91906113b3565b915050919050565b610d5981610d51610d5c610d7d565b63ffffffff16565b50565b60006a636f6e736f6c652e6c6f679050600080835160208501845afa505050565b610e12819050919050565b828054828255906000526020600020908101928215610e01579160200282015b82811115610e005782518260006101000a81548173ffffffffffffffffffffffffffffffffffffffff021916908373ffffffffffffffffffffffffffffffffffffffff16021790555091602001919060010190610da8565b5b509050610e0e9190610e1c565b5090565b610e1a61142b565b565b5b80821115610e35576000816000905550600101610e1d565b5090565b600080fd5b600073ffffffffffffffffffffffffffffffffffffffff82169050919050565b6000610e6982610e3e565b9050919050565b610e7981610e5e565b8114610e8457600080fd5b50565b600081359050610e9681610e70565b92915050565b600060208284031215610eb257610eb1610e39565b5b6000610ec084828501610e87565b91505092915050565b6000819050919050565b610edc81610ec9565b82525050565b6000602082019050610ef76000830184610ed3565b92915050565b610f0681610ec9565b8114610f1157600080fd5b50565b600081359050610f2381610efd565b92915050565b600060208284031215610f3f57610f3e610e39565b5b6000610f4d84828501610f14565b91505092915050565b610f5f81610e5e565b82525050565b6000602082019050610f7a6000830184610f56565b92915050565b6000819050919050565b6000610fa5610fa0610f9b84610e3e565b610f80565b610e3e565b9050919050565b6000610fb782610f8a565b9050919050565b6000610fc982610fac565b9050919050565b610fd981610fbe565b82525050565b6000602082019050610ff46000830184610fd0565b92915050565b600060408201905061100f6000830185610ed3565b61101c6020830184610ed3565b9392505050565b7f4e487b7100000000000000000000000000000000000000000000000000000000600052601160045260246000fd5b600061105d82610ec9565b915061106883610ec9565b92508282019050808211156110805761107f611023565b5b92915050565b7f4e487b7100000000000000000000000000000000000000000000000000000000600052601260045260246000fd5b60006110c082610ec9565b91506110cb83610ec9565b9250826110db576110da611086565b5b828204905092915050565b6000815190506110f581610efd565b92915050565b60006020828403121561111157611110610e39565b5b600061111f848285016110e6565b91505092915050565b7f4e487b7100000000000000000000000000000000000000000000000000000000600052603260045260246000fd5b7f4e487b7100000000000000000000000000000000000000000000000000000000600052604160045260246000fd5b600081905092915050565b50565b60006111a1600083611186565b91506111ac82611191565b600082019050919050565b60006111c282611194565b9150819050919050565b60006111d782610ec9565b91506111e283610ec9565b92508282026111f081610ec9565b9150828204841483151761120757611206611023565b5b5092915050565b600081519050919050565b600082825260208201905092915050565b60005b8381101561124857808201518184015260208101905061122d565b60008484015250505050565b6000601f19601f8301169050919050565b60006112708261120e565b61127a8185611219565b935061128a81856020860161122a565b61129381611254565b840191505092915050565b600060208201905081810360008301526112b88184611265565b905092915050565b600069ffffffffffffffffffff82169050919050565b6112df816112c0565b81146112ea57600080fd5b50565b6000815190506112fc816112d6565b92915050565b6000819050919050565b61131581611302565b811461132057600080fd5b50565b6000815190506113328161130c565b92915050565b600080600080600060a0868803121561135457611353610e39565b5b6000611362888289016112ed565b955050602061137388828901611323565b9450506040611384888289016110e6565b9350506060611395888289016110e6565b92505060806113a6888289016112ed565b9150509295509295909350565b60006113be82611302565b91506113c983611302565b92508282026113d781611302565b91507f8000000000000000000000000000000000000000000000000000000000000000841460008412161561140f5761140e611023565b5b828205841483151761142457611423611023565b5b5092915050565b7f4e487b7100000000000000000000000000000000000000000000000000000000600052605160045260246000fdfea2646970667358221220190306593cc58119c463eec5acfc67442aaaffc2af73cf980b40182a559cdba264736f6c63430008180033",
  "devdoc": {
    "kind": "dev",
    "methods": {},
    "version": 1
  },
  "userdoc": {
    "kind": "user",
    "methods": {},
    "version": 1
  },
  "storageLayout": {
    "storage": [
      {
        "astId": 431,
        "contract": "contracts/FundMeHelper.sol:FundMeHelper",
        "label": "fundMeContract",
        "offset": 0,
        "slot": "0",
        "type": "t_contract(FundMe)411"
      }
    ],
    "types": {
      "t_contract(FundMe)411": {
        "encoding": "inplace",
        "label": "contract FundMe",
        "numberOfBytes": "20"
      }
    }
  }
}