{
  "contractName": "TicTacToe",
  "abi": [
    {
      "anonymous": false,
      "inputs": [
        {
          "indexed": false,
          "internalType": "string",
          "name": "state",
          "type": "string"
        }
      ],
      "name": "Checkpoint",
      "type": "event"
    },
    {
      "anonymous": false,
      "inputs": [
        {
          "indexed": false,
          "internalType": "string",
          "name": "location",
          "type": "string"
        },
        {
          "components": [
            {
              "internalType": "uint256",
              "name": "jackpot",
              "type": "uint256"
            },
            {
              "internalType": "address[2]",
              "name": "payout_addresses",
              "type": "address[2]"
            },
            {
              "internalType": "bool",
              "name": "ended",
              "type": "bool"
            }
          ],
          "indexed": false,
          "internalType": "struct TicTacToe.Game[]",
          "name": "games",
          "type": "tuple[]"
        }
      ],
      "name": "CurrentGames",
      "type": "event"
    },
    {
      "anonymous": false,
      "inputs": [
        {
          "components": [
            {
              "internalType": "uint256",
              "name": "jackpot",
              "type": "uint256"
            },
            {
              "internalType": "address[2]",
              "name": "payout_addresses",
              "type": "address[2]"
            },
            {
              "internalType": "bool",
              "name": "ended",
              "type": "bool"
            }
          ],
          "indexed": false,
          "internalType": "struct TicTacToe.Game",
          "name": "game",
          "type": "tuple"
        }
      ],
      "name": "GameCreated",
      "type": "event"
    },
    {
      "anonymous": false,
      "inputs": [
        {
          "components": [
            {
              "internalType": "uint256",
              "name": "jackpot",
              "type": "uint256"
            },
            {
              "internalType": "address[2]",
              "name": "payout_addresses",
              "type": "address[2]"
            },
            {
              "internalType": "bool",
              "name": "ended",
              "type": "bool"
            }
          ],
          "indexed": false,
          "internalType": "struct TicTacToe.Game",
          "name": "game",
          "type": "tuple"
        }
      ],
      "name": "GameEnded",
      "type": "event"
    },
    {
      "anonymous": false,
      "inputs": [
        {
          "indexed": false,
          "internalType": "uint256",
          "name": "game_id",
          "type": "uint256"
        }
      ],
      "name": "GameStarted",
      "type": "event"
    },
    {
      "anonymous": false,
      "inputs": [
        {
          "indexed": false,
          "internalType": "address",
          "name": "winner",
          "type": "address"
        },
        {
          "indexed": false,
          "internalType": "uint256",
          "name": "amount",
          "type": "uint256"
        }
      ],
      "name": "GameWon",
      "type": "event"
    },
    {
      "inputs": [
        {
          "internalType": "address",
          "name": "dest",
          "type": "address"
        }
      ],
      "name": "payments",
      "outputs": [
        {
          "internalType": "uint256",
          "name": "",
          "type": "uint256"
        }
      ],
      "stateMutability": "view",
      "type": "function",
      "constant": true
    },
    {
      "inputs": [
        {
          "internalType": "address payable",
          "name": "payee",
          "type": "address"
        }
      ],
      "name": "withdrawPayments",
      "outputs": [],
      "stateMutability": "nonpayable",
      "type": "function"
    },
    {
      "inputs": [
        {
          "internalType": "address",
          "name": "payout_x",
          "type": "address"
        },
        {
          "internalType": "address",
          "name": "payout_o",
          "type": "address"
        }
      ],
      "name": "startGame",
      "outputs": [],
      "stateMutability": "payable",
      "type": "function",
      "payable": true
    },
    {
      "inputs": [
        {
          "internalType": "uint256",
          "name": "game_id",
          "type": "uint256"
        },
        {
          "internalType": "uint256",
          "name": "winner",
          "type": "uint256"
        }
      ],
      "name": "endGame",
      "outputs": [],
      "stateMutability": "nonpayable",
      "type": "function"
    },
    {
      "inputs": [],
      "name": "getGamesState",
      "outputs": [
        {
          "components": [
            {
              "internalType": "uint256",
              "name": "jackpot",
              "type": "uint256"
            },
            {
              "internalType": "address[2]",
              "name": "payout_addresses",
              "type": "address[2]"
            },
            {
              "internalType": "bool",
              "name": "ended",
              "type": "bool"
            }
          ],
          "internalType": "struct TicTacToe.Game[]",
          "name": "",
          "type": "tuple[]"
        }
      ],
      "stateMutability": "view",
      "type": "function",
      "constant": true
    }
  ],
  "bytecode": "0x60a060405234801561000f575f80fd5b5060405161001c9061006e565b604051809103905ff080158015610035573d5f803e3d5ffd5b5073ffffffffffffffffffffffffffffffffffffffff1660808173ffffffffffffffffffffffffffffffffffffffff168152505061007b565b610b5080610fde83390190565b608051610f3d6100a15f395f8181610121015281816103db01526107450152610f3d5ff3fe608060405260043610610049575f3560e01c806331b3eb941461004d57806336928ba7146100755780639f98985d1461009f578063e2982c21146100c7578063eb23b56b14610103575b5f80fd5b348015610058575f80fd5b50610073600480360381019061006e91906108c4565b61011f565b005b348015610080575f80fd5b506100896101a8565b6040516100969190610abf565b60405180910390f35b3480156100aa575f80fd5b506100c560048036038101906100c09190610b09565b6102a0565b005b3480156100d2575f80fd5b506100ed60048036038101906100e89190610b71565b6103d8565b6040516100fa9190610bab565b60405180910390f35b61011d60048036038101906101189190610bc4565b610478565b005b7f000000000000000000000000000000000000000000000000000000000000000073ffffffffffffffffffffffffffffffffffffffff166351cff8d9826040518263ffffffff1660e01b81526004016101789190610c11565b5f604051808303815f87803b15801561018f575f80fd5b505af11580156101a1573d5f803e3d5ffd5b5050505050565b60605f805480602002602001604051908101604052809291908181526020015f905b82821015610297578382905f5260205f2090600402016040518060600160405290815f820154815260200160018201600280602002604051908101604052809291908260028015610265576020028201915b815f9054906101000a900473ffffffffffffffffffffffffffffffffffffffff1673ffffffffffffffffffffffffffffffffffffffff168152602001906001019080831161021c575b50505050508152602001600382015f9054906101000a900460ff161515151581525050815260200190600101906101ca565b50505050905090565b5f82815481106102b3576102b2610c2a565b5b905f5260205f2090600402016003015f9054906101000a900460ff16156102d8575f80fd5b5f8083815481106102ec576102eb610c2a565b5b905f5260205f209060040201600101826002811061030d5761030c610c2a565b5b015f9054906101000a900473ffffffffffffffffffffffffffffffffffffffff1690505f80848154811061034457610343610c2a565b5b905f5260205f2090600402015f0154905060015f858154811061036a57610369610c2a565b5b905f5260205f2090600402016003015f6101000a81548160ff0219169083151502179055506103998282610743565b7fdae072d96ce4f8bfc6557d4e8c29e0d1875b50c4efe52b340ab49669ec42ebe682826040516103ca929190610c66565b60405180910390a150505050565b5f7f000000000000000000000000000000000000000000000000000000000000000073ffffffffffffffffffffffffffffffffffffffff1663e3a9db1a836040518263ffffffff1660e01b81526004016104329190610c8d565b602060405180830381865afa15801561044d573d5f803e3d5ffd5b505050506040513d601f19601f820116820180604052508101906104719190610cba565b9050919050565b5f34116104ba576040517f08c379a00000000000000000000000000000000000000000000000000000000081526004016104b190610d3f565b60405180910390fd5b5f73ffffffffffffffffffffffffffffffffffffffff168273ffffffffffffffffffffffffffffffffffffffff1603610528576040517f08c379a000000000000000000000000000000000000000000000000000000000815260040161051f90610dcd565b60405180910390fd5b5f73ffffffffffffffffffffffffffffffffffffffff168173ffffffffffffffffffffffffffffffffffffffff1603610596576040517f08c379a000000000000000000000000000000000000000000000000000000000815260040161058d90610e5b565b60405180910390fd5b8073ffffffffffffffffffffffffffffffffffffffff168273ffffffffffffffffffffffffffffffffffffffff1603610604576040517f08c379a00000000000000000000000000000000000000000000000000000000081526004016105fb90610ee9565b60405180910390fd5b5f808054905090505f60405180604001604052808573ffffffffffffffffffffffffffffffffffffffff1673ffffffffffffffffffffffffffffffffffffffff1681526020018473ffffffffffffffffffffffffffffffffffffffff1673ffffffffffffffffffffffffffffffffffffffff1681525090505f60405180606001604052803481526020018381526020015f151581525090505f81908060018154018082558091505060019003905f5260205f2090600402015f909190919091505f820151815f01556020820151816001019060026106e39291906107cf565b506040820151816003015f6101000a81548160ff02191690831515021790555050507f50ad08f58a27f2851d7e3a1b3a6a46b290f2ce677e99642d30ff639721e77790836040516107349190610bab565b60405180910390a15050505050565b7f000000000000000000000000000000000000000000000000000000000000000073ffffffffffffffffffffffffffffffffffffffff1663f340fa0182846040518363ffffffff1660e01b815260040161079d9190610c8d565b5f604051808303818588803b1580156107b4575f80fd5b505af11580156107c6573d5f803e3d5ffd5b50505050505050565b826002810192821561083a579160200282015b82811115610839578251825f6101000a81548173ffffffffffffffffffffffffffffffffffffffff021916908373ffffffffffffffffffffffffffffffffffffffff160217905550916020019190600101906107e2565b5b509050610847919061084b565b5090565b5b80821115610862575f815f90555060010161084c565b5090565b5f80fd5b5f73ffffffffffffffffffffffffffffffffffffffff82169050919050565b5f6108938261086a565b9050919050565b6108a381610889565b81146108ad575f80fd5b50565b5f813590506108be8161089a565b92915050565b5f602082840312156108d9576108d8610866565b5b5f6108e6848285016108b0565b91505092915050565b5f81519050919050565b5f82825260208201905092915050565b5f819050602082019050919050565b5f819050919050565b61092a81610918565b82525050565b5f60029050919050565b5f81905092915050565b5f819050919050565b5f6109578261086a565b9050919050565b6109678161094d565b82525050565b5f610978838361095e565b60208301905092915050565b5f602082019050919050565b61099981610930565b6109a3818461093a565b92506109ae82610944565b805f5b838110156109de5781516109c5878261096d565b96506109d083610984565b9250506001810190506109b1565b505050505050565b5f8115159050919050565b6109fa816109e6565b82525050565b608082015f820151610a145f850182610921565b506020820151610a276020850182610990565b506040820151610a3a60608501826109f1565b50505050565b5f610a4b8383610a00565b60808301905092915050565b5f602082019050919050565b5f610a6d826108ef565b610a7781856108f9565b9350610a8283610909565b805f5b83811015610ab2578151610a998882610a40565b9750610aa483610a57565b925050600181019050610a85565b5085935050505092915050565b5f6020820190508181035f830152610ad78184610a63565b905092915050565b610ae881610918565b8114610af2575f80fd5b50565b5f81359050610b0381610adf565b92915050565b5f8060408385031215610b1f57610b1e610866565b5b5f610b2c85828601610af5565b9250506020610b3d85828601610af5565b9150509250929050565b610b508161094d565b8114610b5a575f80fd5b50565b5f81359050610b6b81610b47565b92915050565b5f60208284031215610b8657610b85610866565b5b5f610b9384828501610b5d565b91505092915050565b610ba581610918565b82525050565b5f602082019050610bbe5f830184610b9c565b92915050565b5f8060408385031215610bda57610bd9610866565b5b5f610be785828601610b5d565b9250506020610bf885828601610b5d565b9150509250929050565b610c0b81610889565b82525050565b5f602082019050610c245f830184610c02565b92915050565b7f4e487b71000000000000000000000000000000000000000000000000000000005f52603260045260245ffd5b610c608161094d565b82525050565b5f604082019050610c795f830185610c57565b610c866020830184610b9c565b9392505050565b5f602082019050610ca05f830184610c57565b92915050565b5f81519050610cb481610adf565b92915050565b5f60208284031215610ccf57610cce610866565b5b5f610cdc84828501610ca6565b91505092915050565b5f82825260208201905092915050565b7f4a61636b706f74206d7573742062652067726561746572207468616e203021005f82015250565b5f610d29601f83610ce5565b9150610d3482610cf5565b602082019050919050565b5f6020820190508181035f830152610d5681610d1d565b9050919050565b7f506c61796572205820616464726573732063616e6e6f7420626520656d7074795f8201527f2100000000000000000000000000000000000000000000000000000000000000602082015250565b5f610db7602183610ce5565b9150610dc282610d5d565b604082019050919050565b5f6020820190508181035f830152610de481610dab565b9050919050565b7f506c61796572204f20616464726573732063616e6e6f7420626520656d7074795f8201527f2100000000000000000000000000000000000000000000000000000000000000602082015250565b5f610e45602183610ce5565b9150610e5082610deb565b604082019050919050565b5f6020820190508181035f830152610e7281610e39565b9050919050565b7f506c61796572205820616e6420706c61796572204f2063616e6e6f74206861765f8201527f65207468652073616d65207061796f7574206164647265737321000000000000602082015250565b5f610ed3603a83610ce5565b9150610ede82610e79565b604082019050919050565b5f6020820190508181035f830152610f0081610ec7565b905091905056fea26469706673582212203e72158e07c87aab2fecbe41c80f60cffee4e305eec6a2a39e31e5197608eb8f64736f6c63430008140033608060405234801561000f575f80fd5b5061002c61002161003160201b60201c565b61003860201b60201c565b6100f9565b5f33905090565b5f805f9054906101000a900473ffffffffffffffffffffffffffffffffffffffff169050815f806101000a81548173ffffffffffffffffffffffffffffffffffffffff021916908373ffffffffffffffffffffffffffffffffffffffff1602179055508173ffffffffffffffffffffffffffffffffffffffff168173ffffffffffffffffffffffffffffffffffffffff167f8be0079c531659141344cd1fd0a4f28419497f9722a3daafe3b4186f6b6457e060405160405180910390a35050565b610a4a806101065f395ff3fe608060405260043610610054575f3560e01c806351cff8d914610058578063715018a6146100805780638da5cb5b14610096578063e3a9db1a146100c0578063f2fde38b146100fc578063f340fa0114610124575b5f80fd5b348015610063575f80fd5b5061007e6004803603810190610079919061068d565b610140565b005b34801561008b575f80fd5b50610094610246565b005b3480156100a1575f80fd5b506100aa610259565b6040516100b791906106d8565b60405180910390f35b3480156100cb575f80fd5b506100e660048036038101906100e1919061071b565b610280565b6040516100f3919061075e565b60405180910390f35b348015610107575f80fd5b50610122600480360381019061011d919061071b565b6102c6565b005b61013e6004803603810190610139919061071b565b610348565b005b6101486103f9565b5f60015f8373ffffffffffffffffffffffffffffffffffffffff1673ffffffffffffffffffffffffffffffffffffffff1681526020019081526020015f205490505f60015f8473ffffffffffffffffffffffffffffffffffffffff1673ffffffffffffffffffffffffffffffffffffffff1681526020019081526020015f20819055506101f4818373ffffffffffffffffffffffffffffffffffffffff1661047790919063ffffffff16565b8173ffffffffffffffffffffffffffffffffffffffff167f7084f5476618d8e60b11ef0d7d3f06914655adb8793e28ff7f018d4c76d505d58260405161023a919061075e565b60405180910390a25050565b61024e6103f9565b6102575f610567565b565b5f805f9054906101000a900473ffffffffffffffffffffffffffffffffffffffff16905090565b5f60015f8373ffffffffffffffffffffffffffffffffffffffff1673ffffffffffffffffffffffffffffffffffffffff1681526020019081526020015f20549050919050565b6102ce6103f9565b5f73ffffffffffffffffffffffffffffffffffffffff168173ffffffffffffffffffffffffffffffffffffffff160361033c576040517f08c379a0000000000000000000000000000000000000000000000000000000008152600401610333906107f7565b60405180910390fd5b61034581610567565b50565b6103506103f9565b5f3490508060015f8473ffffffffffffffffffffffffffffffffffffffff1673ffffffffffffffffffffffffffffffffffffffff1681526020019081526020015f205f8282546103a09190610842565b925050819055508173ffffffffffffffffffffffffffffffffffffffff167f2da466a7b24304f47e87fa2e1e5a81b9831ce54fec19055ce277ca2f39ba42c4826040516103ed919061075e565b60405180910390a25050565b610401610628565b73ffffffffffffffffffffffffffffffffffffffff1661041f610259565b73ffffffffffffffffffffffffffffffffffffffff1614610475576040517f08c379a000000000000000000000000000000000000000000000000000000000815260040161046c906108bf565b60405180910390fd5b565b804710156104ba576040517f08c379a00000000000000000000000000000000000000000000000000000000081526004016104b190610927565b60405180910390fd5b5f8273ffffffffffffffffffffffffffffffffffffffff16826040516104df90610972565b5f6040518083038185875af1925050503d805f8114610519576040519150601f19603f3d011682016040523d82523d5f602084013e61051e565b606091505b5050905080610562576040517f08c379a0000000000000000000000000000000000000000000000000000000008152600401610559906109f6565b60405180910390fd5b505050565b5f805f9054906101000a900473ffffffffffffffffffffffffffffffffffffffff169050815f806101000a81548173ffffffffffffffffffffffffffffffffffffffff021916908373ffffffffffffffffffffffffffffffffffffffff1602179055508173ffffffffffffffffffffffffffffffffffffffff168173ffffffffffffffffffffffffffffffffffffffff167f8be0079c531659141344cd1fd0a4f28419497f9722a3daafe3b4186f6b6457e060405160405180910390a35050565b5f33905090565b5f80fd5b5f73ffffffffffffffffffffffffffffffffffffffff82169050919050565b5f61065c82610633565b9050919050565b61066c81610652565b8114610676575f80fd5b50565b5f8135905061068781610663565b92915050565b5f602082840312156106a2576106a161062f565b5b5f6106af84828501610679565b91505092915050565b5f6106c282610633565b9050919050565b6106d2816106b8565b82525050565b5f6020820190506106eb5f8301846106c9565b92915050565b6106fa816106b8565b8114610704575f80fd5b50565b5f81359050610715816106f1565b92915050565b5f602082840312156107305761072f61062f565b5b5f61073d84828501610707565b91505092915050565b5f819050919050565b61075881610746565b82525050565b5f6020820190506107715f83018461074f565b92915050565b5f82825260208201905092915050565b7f4f776e61626c653a206e6577206f776e657220697320746865207a65726f20615f8201527f6464726573730000000000000000000000000000000000000000000000000000602082015250565b5f6107e1602683610777565b91506107ec82610787565b604082019050919050565b5f6020820190508181035f83015261080e816107d5565b9050919050565b7f4e487b71000000000000000000000000000000000000000000000000000000005f52601160045260245ffd5b5f61084c82610746565b915061085783610746565b925082820190508082111561086f5761086e610815565b5b92915050565b7f4f776e61626c653a2063616c6c6572206973206e6f7420746865206f776e65725f82015250565b5f6108a9602083610777565b91506108b482610875565b602082019050919050565b5f6020820190508181035f8301526108d68161089d565b9050919050565b7f416464726573733a20696e73756666696369656e742062616c616e63650000005f82015250565b5f610911601d83610777565b915061091c826108dd565b602082019050919050565b5f6020820190508181035f83015261093e81610905565b9050919050565b5f81905092915050565b50565b5f61095d5f83610945565b91506109688261094f565b5f82019050919050565b5f61097c82610952565b9150819050919050565b7f416464726573733a20756e61626c6520746f2073656e642076616c75652c20725f8201527f6563697069656e74206d61792068617665207265766572746564000000000000602082015250565b5f6109e0603a83610777565b91506109eb82610986565b604082019050919050565b5f6020820190508181035f830152610a0d816109d4565b905091905056fea26469706673582212202bbcf305f6000723d64cab6a09736b873d5e8847a4a4f024e9b1514311e3f22364736f6c63430008140033",
  "immutableReferences": {
    "119": [
      {
        "length": 32,
        "start": 289
      },
      {
        "length": 32,
        "start": 987
      },
      {
        "length": 32,
        "start": 1861
      }
    ]
  },
  "source": "// SPDX-License-Identifier: MIT\npragma solidity ^0.8.20;\n\nimport \"@openzeppelin/contracts/security/PullPayment.sol\";\n\ncontract TicTacToe is PullPayment {\n    event GameStarted(uint game_id);\n    event GameWon(address winner, uint amount);\n\n    event GameCreated(Game game);\n    event GameEnded(Game game);\n\n    event Checkpoint(string state);\n    event CurrentGames(string location, Game[] games);\n\n    struct Game {\n        uint jackpot;\n        address[2] payout_addresses;\n        bool ended;\n    }\n\n    Game[] games;\n\n    function startGame(address payout_x, address payout_o) public payable {\n        // Must have some value attached for jackpot\n        require(msg.value > 0, \"Jackpot must be greater than 0!\");\n\n        // All params must be supplied\n        require(payout_x != address(0), \"Player X address cannot be empty!\");\n        require(payout_o != address(0), \"Player O address cannot be empty!\");\n\n        // msg.sender and payout_o cannot be the same address\n        require(\n            payout_x != payout_o,\n            \"Player X and player O cannot have the same payout address!\"\n        );\n\n        uint new_game_id = games.length;\n        address[2] memory payout_addresses = [payout_x, payout_o];\n\n        // The annoyance of developing in a fast changing language: the following statement was valid in early versions of Solidity, but at some point, adding a\n        // new element to an array has to be done via the push instruction now\n\n        // This one now throws an \"Array out of bounds\" Exception\n        // games[new_game_id] = Game(msg.value, payout_addresses, false);\n\n        // This one works for Solidity v0.8.20\n        Game memory newGame = Game(msg.value, payout_addresses, false);\n        games.push(newGame);\n\n        emit GameStarted(new_game_id);\n\n        // games.push(Game(msg.value, payout_addresses, false));\n    }\n\n    function endGame(uint game_id, uint winner) public {\n        // Make sure the game hasn't already ended\n\n        require(!games[game_id].ended);\n\n        address winner_address = games[game_id].payout_addresses[winner];\n        uint jackpot = games[game_id].jackpot;\n\n        games[game_id].ended = true;\n\n        _asyncTransfer(winner_address, jackpot);\n        emit GameWon(winner_address, jackpot);\n    }\n\n    function getGamesState() public view returns (Game[] memory) {\n        return games;\n    }\n}\n",
  "sourcePath": "/home/ricardoalmeida/Solidity_projects/solidity_projects/7_tic_tac_toe_game/truffle/contracts/TicTacToe.sol",
  "compiler": {
    "name": "solc",
    "version": "0.8.20+commit.a1b79de6.Emscripten.clang"
  },
  "schemaVersion": "3.4.13",
  "updatedAt": "2023-11-11T18:07:15.896Z",
  "networkType": "ethereum",
  "devdoc": {
    "kind": "dev",
    "methods": {
      "payments(address)": {
        "details": "Returns the payments owed to an address.",
        "params": {
          "dest": "The creditor's address."
        }
      },
      "withdrawPayments(address)": {
        "details": "Withdraw accumulated payments, forwarding all gas to the recipient. Note that _any_ account can call this function, not just the `payee`. This means that contracts unaware of the `PullPayment` protocol can still receive funds this way, by having a separate account call {withdrawPayments}. WARNING: Forwarding all gas opens the door to reentrancy vulnerabilities. Make sure you trust the recipient, or are either following the checks-effects-interactions pattern or using {ReentrancyGuard}.",
        "params": {
          "payee": "Whose payments will be withdrawn. Causes the `escrow` to emit a {Withdrawn} event."
        }
      }
    },
    "version": 1
  },
  "userdoc": {
    "kind": "user",
    "methods": {},
    "version": 1
  }
}