{
  "contractName": "EventTester",
  "abi": [
    {
      "anonymous": false,
      "inputs": [
        {
          "indexed": false,
          "internalType": "string",
          "name": "old_name",
          "type": "string"
        },
        {
          "indexed": false,
          "internalType": "string",
          "name": "new_name",
          "type": "string"
        },
        {
          "indexed": false,
          "internalType": "address",
          "name": "caller",
          "type": "address"
        }
      ],
      "name": "NameChange",
      "type": "event"
    },
    {
      "anonymous": false,
      "inputs": [
        {
          "indexed": false,
          "internalType": "uint256",
          "name": "old_number",
          "type": "uint256"
        },
        {
          "indexed": false,
          "internalType": "uint256",
          "name": "new_number",
          "type": "uint256"
        },
        {
          "indexed": false,
          "internalType": "address",
          "name": "caller",
          "type": "address"
        }
      ],
      "name": "NumberChange",
      "type": "event"
    },
    {
      "inputs": [],
      "name": "retrieveNumber",
      "outputs": [
        {
          "internalType": "uint256",
          "name": "",
          "type": "uint256"
        }
      ],
      "stateMutability": "view",
      "type": "function",
      "constant": true
    },
    {
      "inputs": [
        {
          "internalType": "uint256",
          "name": "newNumber",
          "type": "uint256"
        }
      ],
      "name": "changeNumber",
      "outputs": [],
      "stateMutability": "nonpayable",
      "type": "function"
    },
    {
      "inputs": [],
      "name": "retrieveName",
      "outputs": [
        {
          "internalType": "string",
          "name": "",
          "type": "string"
        }
      ],
      "stateMutability": "view",
      "type": "function",
      "constant": true
    },
    {
      "inputs": [
        {
          "internalType": "string",
          "name": "newName",
          "type": "string"
        }
      ],
      "name": "changeName",
      "outputs": [],
      "stateMutability": "nonpayable",
      "type": "function"
    }
  ],
  "bytecode": "0x608060405234801561001057600080fd5b506108c1806100206000396000f3fe608060405234801561001057600080fd5b506004361061004c5760003560e01c806307391dd6146100515780630a5eecd71461006d5780635353a2d81461008b578063a009491b146100a7575b600080fd5b61006b6004803603810190610066919061023b565b6100c5565b005b61007561010c565b60405161008291906102f8565b60405180910390f35b6100a560048036038101906100a0919061037f565b61019e565b005b6100af6101f2565b6040516100bc91906103db565b60405180910390f35b7f73a97829383d3c7a431e8085f7f0ab15d9f78cee41d3c5a8ab753bab3e90738360005482336040516100fa93929190610437565b60405180910390a18060008190555050565b60606001805461011b9061049d565b80601f01602080910402602001604051908101604052809291908181526020018280546101479061049d565b80156101945780601f1061016957610100808354040283529160200191610194565b820191906000526020600020905b81548152906001019060200180831161017757829003601f168201915b5050505050905090565b7fdff8f58037c402abd033b776f2f6cd2f88eba5fd5a6b04e34c17a556e4a3f8bb60018383336040516101d494939291906105a3565b60405180910390a18181600191826101ed9291906107bb565b505050565b60008054905090565b600080fd5b600080fd5b6000819050919050565b61021881610205565b811461022357600080fd5b50565b6000813590506102358161020f565b92915050565b600060208284031215610251576102506101fb565b5b600061025f84828501610226565b91505092915050565b600081519050919050565b600082825260208201905092915050565b60005b838110156102a2578082015181840152602081019050610287565b60008484015250505050565b6000601f19601f8301169050919050565b60006102ca82610268565b6102d48185610273565b93506102e4818560208601610284565b6102ed816102ae565b840191505092915050565b6000602082019050818103600083015261031281846102bf565b905092915050565b600080fd5b600080fd5b600080fd5b60008083601f84011261033f5761033e61031a565b5b8235905067ffffffffffffffff81111561035c5761035b61031f565b5b60208301915083600182028301111561037857610377610324565b5b9250929050565b60008060208385031215610396576103956101fb565b5b600083013567ffffffffffffffff8111156103b4576103b3610200565b5b6103c085828601610329565b92509250509250929050565b6103d581610205565b82525050565b60006020820190506103f060008301846103cc565b92915050565b600073ffffffffffffffffffffffffffffffffffffffff82169050919050565b6000610421826103f6565b9050919050565b61043181610416565b82525050565b600060608201905061044c60008301866103cc565b61045960208301856103cc565b6104666040830184610428565b949350505050565b7f4e487b7100000000000000000000000000000000000000000000000000000000600052602260045260246000fd5b600060028204905060018216806104b557607f821691505b6020821081036104c8576104c761046e565b5b50919050565b60008190508160005260206000209050919050565b600081546104f08161049d565b6104fa8186610273565b94506001821660008114610515576001811461052b5761055e565b60ff19831686528115156020028601935061055e565b610534856104ce565b60005b8381101561055657815481890152600182019150602081019050610537565b808801955050505b50505092915050565b82818337600083830152505050565b60006105828385610273565b935061058f838584610567565b610598836102ae565b840190509392505050565b600060608201905081810360008301526105bd81876104e3565b905081810360208301526105d2818587610576565b90506105e16040830184610428565b95945050505050565b600082905092915050565b7f4e487b7100000000000000000000000000000000000000000000000000000000600052604160045260246000fd5b60006020601f8301049050919050565b600082821b905092915050565b6000600883026106717fffffffffffffffffffffffffffffffffffffffffffffffffffffffffffffffff82610634565b61067b8683610634565b95508019841693508086168417925050509392505050565b6000819050919050565b60006106b86106b36106ae84610205565b610693565b610205565b9050919050565b6000819050919050565b6106d28361069d565b6106e66106de826106bf565b848454610641565b825550505050565b600090565b6106fb6106ee565b6107068184846106c9565b505050565b5b8181101561072a5761071f6000826106f3565b60018101905061070c565b5050565b601f82111561076f57610740816104ce565b61074984610624565b81016020851015610758578190505b61076c61076485610624565b83018261070b565b50505b505050565b600082821c905092915050565b600061079260001984600802610774565b1980831691505092915050565b60006107ab8383610781565b9150826002028217905092915050565b6107c583836105ea565b67ffffffffffffffff8111156107de576107dd6105f5565b5b6107e8825461049d565b6107f382828561072e565b6000601f8311600181146108225760008415610810578287013590505b61081a858261079f565b865550610882565b601f198416610830866104ce565b60005b8281101561085857848901358255600182019150602085019450602081019050610833565b868310156108755784890135610871601f891682610781565b8355505b6001600288020188555050505b5050505050505056fea26469706673582212207c790c09a0ec2555f3ea65d676f7196883ffae7e77eee4eef0b4ea19f36015e764736f6c63430008130033",
  "immutableReferences": {},
  "source": "// SPDX-License-Identifier: MIT\npragma solidity >=0.4.22 <0.9.0;\n\ncontract EventTester {\n\tuint256 myNumber;\n\tstring myName;\n\n\tevent NameChange(string old_name, string new_name, address caller);\n\tevent NumberChange(uint256 old_number, uint256 new_number, address caller);\n\n\tfunction retrieveNumber() public view returns (uint256) {\n\t\treturn myNumber;\n\t}\n\n\tfunction changeNumber(uint256 newNumber) public {\n\t\temit NumberChange(myNumber, newNumber, msg.sender);\n\t\tmyNumber = newNumber;\n\t}\n\n\tfunction retrieveName() public view returns (string memory) {\n\t\treturn myName;\n\t}\n\n\tfunction changeName(string calldata newName) public {\n\t\temit NameChange(myName, newName, msg.sender);\n\t\tmyName = newName;\n\t}\n}\n",
  "sourcePath": "D:\\OtherDocuments\\Github_repos\\solidity_projects\\11_event-tester\\contracts\\EventTester.sol",
  "compiler": {
    "name": "solc",
    "version": "0.8.19+commit.7dd6d404.Emscripten.clang"
  },
  "schemaVersion": "3.4.13",
  "updatedAt": "2023-05-30T15:28:17.896Z",
  "networkType": "ethereum",
  "devdoc": {
    "kind": "dev",
    "methods": {},
    "version": 1
  },
  "userdoc": {
    "kind": "user",
    "methods": {},
    "version": 1
  }
}