{
  "contractName": "SimpleStorage",
  "abi": [
    {
      "anonymous": false,
      "inputs": [
        {
          "indexed": true,
          "internalType": "uint256",
          "name": "oldNumber",
          "type": "uint256"
        },
        {
          "indexed": true,
          "internalType": "uint256",
          "name": "newNumber",
          "type": "uint256"
        },
        {
          "indexed": false,
          "internalType": "address",
          "name": "sender",
          "type": "address"
        }
      ],
      "name": "NumberChanged",
      "type": "event"
    },
    {
      "inputs": [
        {
          "internalType": "uint256",
          "name": "newNumber",
          "type": "uint256"
        }
      ],
      "name": "storeNumber",
      "outputs": [],
      "stateMutability": "nonpayable",
      "type": "function"
    },
    {
      "inputs": [],
      "name": "retrieve",
      "outputs": [
        {
          "internalType": "uint256",
          "name": "",
          "type": "uint256"
        }
      ],
      "stateMutability": "view",
      "type": "function",
      "constant": true
    }
  ],
  "bytecode": "0x608060405234801561001057600080fd5b506101ec806100206000396000f3fe608060405234801561001057600080fd5b50600436106100365760003560e01c80632e64cec11461003b578063b633941814610059575b600080fd5b610043610075565b60405161005091906100e1565b60405180910390f35b610073600480360381019061006e919061012d565b61007e565b005b60008054905090565b6000805490508160008190555081817fdba7ef19f2b4e0103786d473d3d310e0ab284d41e20aaaa30470dc9d4fe5b408336040516100bc919061019b565b60405180910390a35050565b6000819050919050565b6100db816100c8565b82525050565b60006020820190506100f660008301846100d2565b92915050565b600080fd5b61010a816100c8565b811461011557600080fd5b50565b60008135905061012781610101565b92915050565b600060208284031215610143576101426100fc565b5b600061015184828501610118565b91505092915050565b600073ffffffffffffffffffffffffffffffffffffffff82169050919050565b60006101858261015a565b9050919050565b6101958161017a565b82525050565b60006020820190506101b0600083018461018c565b9291505056fea264697066735822122090178f5f299646f5f05ecef28bebbe21883610e996bad3c26e36a3bf6ecf822d64736f6c63430008130033",
  "immutableReferences": {},
  "source": "// SPDX-License-Identifier: MIT\npragma solidity >=0.4.22 <0.9.0;\n\ncontract SimpleStorage {\n    uint256 favoriteNumber;\n\n    event NumberChanged(\n        uint256 indexed oldNumber,\n        uint256 indexed newNumber,\n        address sender\n    );\n\n    function storeNumber(uint256 newNumber) public {\n        uint256 oldNumber = favoriteNumber;\n        favoriteNumber = newNumber;\n        emit NumberChanged(oldNumber, newNumber, msg.sender);\n    }\n\n    function retrieve() public view returns (uint256) {\n        return favoriteNumber;\n    }\n}\n",
  "sourcePath": "/home/ricardoalmeida/Solidity_projects/mastering_ethereum/7_truffle_event_listener/contracts/SimpleStorage.sol",
  "compiler": {
    "name": "solc",
    "version": "0.8.19+commit.7dd6d404.Emscripten.clang"
  },
  "schemaVersion": "3.4.13",
  "updatedAt": "2023-06-01T22:11:55.545Z",
  "networkType": "ethereum",
  "devdoc": {
    "kind": "dev",
    "methods": {},
    "version": 1
  },
  "userdoc": {
    "kind": "user",
    "methods": {},
    "version": 1
  }
}