{
  "contractName": "Faucet",
  "abi": [
    {
      "anonymous": false,
      "inputs": [
        {
          "indexed": true,
          "internalType": "address",
          "name": "from",
          "type": "address"
        },
        {
          "indexed": false,
          "internalType": "uint256",
          "name": "amount",
          "type": "uint256"
        }
      ],
      "name": "Deposit",
      "type": "event"
    },
    {
      "anonymous": false,
      "inputs": [
        {
          "indexed": true,
          "internalType": "address",
          "name": "to",
          "type": "address"
        },
        {
          "indexed": false,
          "internalType": "uint256",
          "name": "amount",
          "type": "uint256"
        }
      ],
      "name": "Withdrawal",
      "type": "event"
    },
    {
      "stateMutability": "payable",
      "type": "fallback",
      "payable": true
    },
    {
      "inputs": [],
      "name": "destroy",
      "outputs": [],
      "stateMutability": "nonpayable",
      "type": "function"
    },
    {
      "stateMutability": "payable",
      "type": "receive",
      "payable": true
    },
    {
      "inputs": [
        {
          "internalType": "uint256",
          "name": "withdraw_amount",
          "type": "uint256"
        }
      ],
      "name": "withdraw",
      "outputs": [],
      "stateMutability": "nonpayable",
      "type": "function"
    }
  ],
  "bytecode": "0x608060405234801561001057600080fd5b50336000806101000a81548173ffffffffffffffffffffffffffffffffffffffff021916908373ffffffffffffffffffffffffffffffffffffffff160217905550610478806100606000396000f3fe60806040526004361061002d5760003560e01c80632e1a7d4d1461008457806383197ef0146100ad57610082565b36610082573373ffffffffffffffffffffffffffffffffffffffff167fe1fffcc4923d04b559f4d29a8bfc6cda04eb5b0d3c460751c2402c5c5cc9109c346040516100789190610294565b60405180910390a2005b005b34801561009057600080fd5b506100ab60048036038101906100a691906102e0565b6100c4565b005b3480156100b957600080fd5b506100c26101ea565b005b67016345785d8a000081111561010f576040517f08c379a000000000000000000000000000000000000000000000000000000000815260040161010690610390565b60405180910390fd5b80471015610152576040517f08c379a000000000000000000000000000000000000000000000000000000000815260040161014990610422565b60405180910390fd5b3373ffffffffffffffffffffffffffffffffffffffff166108fc829081150290604051600060405180830381858888f19350505050158015610198573d6000803e3d6000fd5b503373ffffffffffffffffffffffffffffffffffffffff167f7fcf532c15f0a6db0bd6d0e038bea71d30d808c7d98cb3bf7268a95bf5081b65826040516101df9190610294565b60405180910390a250565b60008054906101000a900473ffffffffffffffffffffffffffffffffffffffff1673ffffffffffffffffffffffffffffffffffffffff163373ffffffffffffffffffffffffffffffffffffffff161461024257600080fd5b60008054906101000a900473ffffffffffffffffffffffffffffffffffffffff1673ffffffffffffffffffffffffffffffffffffffff16ff5b6000819050919050565b61028e8161027b565b82525050565b60006020820190506102a96000830184610285565b92915050565b600080fd5b6102bd8161027b565b81146102c857600080fd5b50565b6000813590506102da816102b4565b92915050565b6000602082840312156102f6576102f56102af565b5b6000610304848285016102cb565b91505092915050565b600082825260208201905092915050565b7f4d6178696d756d20616c6c6f776564207769746864726177206973206f66203060008201527f2e31206574686572210000000000000000000000000000000000000000000000602082015250565b600061037a60298361030d565b91506103858261031e565b604082019050919050565b600060208201905081810360008301526103a98161036d565b9050919050565b7f496e73756666696369656e742062616c616e636520696e20746865206661756360008201527f657420666f72207769746864726177616c207265717565737421000000000000602082015250565b600061040c603a8361030d565b9150610417826103b0565b604082019050919050565b6000602082019050818103600083015261043b816103ff565b905091905056fea264697066735822122000d6cfd776ad0bcb3c987cdbe42fa63ee3de7280ae7eb7c5696a529fd96a4ad064736f6c63430008130033",
  "immutableReferences": {},
  "source": "// SPDX-License-Identifier: MIT\npragma solidity >=0.4.22 <0.9.0;\n\nimport \"./mortal.sol\";\n\n// Basic Faucet contract\ncontract Faucet is mortal {\n\tevent Withdrawal(address indexed to, uint amount);\n\tevent Deposit(address indexed from, uint amount);\n\n\t// Withdraw function\n\tfunction withdraw(uint withdraw_amount) public {\n\t\t// Establish the minimal withdraw amount to 0.1 ETH\n\t\trequire(withdraw_amount <= 0.1 ether, \"Maximum allowed withdraw is of 0.1 ether!\");\n\t\trequire(address(this).balance >= withdraw_amount, \"Insufficient balance in the faucet for withdrawal request!\");\n\n\t\t// Transfer the required amount to the account executing this function\n\t\tpayable(msg.sender).transfer(withdraw_amount);\n\n\t\temit Withdrawal(msg.sender, withdraw_amount);\n\t}\n\n\t// Empty receive function just to keep the standards up to date\n\treceive() external payable {\n\t\temit Deposit(msg.sender, msg.value);\n\t}\n\n\t// And the fallback function\n\tfallback() external payable {\n\n\t}\n}",
  "sourcePath": "D:\\OtherDocuments\\Github_repos\\mastering_ethereum\\1_faucet\\contracts\\Faucet.sol",
  "compiler": {
    "name": "solc",
    "version": "0.8.19+commit.7dd6d404.Emscripten.clang"
  },
  "schemaVersion": "3.4.13",
  "updatedAt": "2023-05-16T23:13:23.530Z",
  "networkType": "ethereum",
  "devdoc": {
    "kind": "dev",
    "methods": {},
    "version": 1
  },
  "userdoc": {
    "kind": "user",
    "methods": {},
    "version": 1
  }
}