{
  "contractName": "EventExample",
  "abi": [
    {
      "anonymous": false,
      "inputs": [
        {
          "indexed": false,
          "internalType": "uint256",
          "name": "oldVal",
          "type": "uint256"
        },
        {
          "indexed": true,
          "internalType": "uint256",
          "name": "newVal",
          "type": "uint256"
        },
        {
          "indexed": false,
          "internalType": "address",
          "name": "caller",
          "type": "address"
        }
      ],
      "name": "DataStored",
      "type": "event"
    },
    {
      "inputs": [
        {
          "internalType": "uint256",
          "name": "newVal",
          "type": "uint256"
        }
      ],
      "name": "storeData",
      "outputs": [],
      "stateMutability": "nonpayable",
      "type": "function"
    },
    {
      "inputs": [],
      "name": "retrieveData",
      "outputs": [
        {
          "internalType": "uint256",
          "name": "",
          "type": "uint256"
        }
      ],
      "stateMutability": "view",
      "type": "function",
      "constant": true
    }
  ],
  "bytecode": "0x608060405234801561001057600080fd5b506101fb806100206000396000f3fe608060405234801561001057600080fd5b50600436106100365760003560e01c806316b951761461003b57806351e0556d14610057575b600080fd5b61005560048036038101906100509190610104565b610075565b005b61005f6100c0565b60405161006c9190610140565b60405180910390f35b60008054905081600081905550817f09cf296a7acf148d20149a505c0477c2665709b05368b8cfa2e4eb48d7254d5282336040516100b492919061019c565b60405180910390a25050565b60008054905090565b600080fd5b6000819050919050565b6100e1816100ce565b81146100ec57600080fd5b50565b6000813590506100fe816100d8565b92915050565b60006020828403121561011a576101196100c9565b5b6000610128848285016100ef565b91505092915050565b61013a816100ce565b82525050565b60006020820190506101556000830184610131565b92915050565b600073ffffffffffffffffffffffffffffffffffffffff82169050919050565b60006101868261015b565b9050919050565b6101968161017b565b82525050565b60006040820190506101b16000830185610131565b6101be602083018461018d565b939250505056fea26469706673582212202b779b0063c8f34e9dc17c57a4b6ce7a28a0d8ec7f073a1b5d7e693db0ed7e3c64736f6c63430008130033",
  "immutableReferences": {},
  "source": "// SPDX-License-Identifier: MIT\npragma solidity >=0.4.22 <0.9.0;\n\ncontract EventExample {\n\tevent DataStored(uint256 oldVal, uint256 indexed newVal, address caller);\n\n\tuint256 val;\n\n\tfunction storeData(uint256 newVal) public {\n\t\tuint256 old_val = val;\n\n\t\tval = newVal;\n\n\t\temit DataStored(old_val, newVal, msg.sender);\n\n\t}\n\n\tfunction retrieveData() public view returns (uint256) {\n\t\treturn val;\n\t}\n}\n",
  "sourcePath": "D:\\OtherDocuments\\Github_repos\\solidity_projects\\12_event_example\\contracts\\EventExample.sol",
  "compiler": {
    "name": "solc",
    "version": "0.8.19+commit.7dd6d404.Emscripten.clang"
  },
  "schemaVersion": "3.4.13",
  "updatedAt": "2023-05-30T22:15:49.667Z",
  "networkType": "ethereum",
  "devdoc": {
    "kind": "dev",
    "methods": {},
    "version": 1
  },
  "userdoc": {
    "kind": "user",
    "methods": {},
    "version": 1
  }
}