{
  "contractName": "PseudoRandomGenerator",
  "abi": [
    {
      "inputs": [
        {
          "internalType": "uint256",
          "name": "_modulus",
          "type": "uint256"
        }
      ],
      "name": "generateRandomNumber",
      "outputs": [
        {
          "internalType": "uint256",
          "name": "",
          "type": "uint256"
        }
      ],
      "stateMutability": "nonpayable",
      "type": "function"
    }
  ],
  "bytecode": "0x60806040526000805534801561001457600080fd5b50610223806100246000396000f3fe608060405234801561001057600080fd5b506004361061002b5760003560e01c80634303707e14610030575b600080fd5b61004a600480360381019061004591906100e9565b610060565b6040516100579190610125565b60405180910390f35b6000808242600054604051602001610079929190610161565b6040516020818303038152906040528051906020012060001c61009c91906101bc565b90508060008190555080915050919050565b600080fd5b6000819050919050565b6100c6816100b3565b81146100d157600080fd5b50565b6000813590506100e3816100bd565b92915050565b6000602082840312156100ff576100fe6100ae565b5b600061010d848285016100d4565b91505092915050565b61011f816100b3565b82525050565b600060208201905061013a6000830184610116565b92915050565b6000819050919050565b61015b610156826100b3565b610140565b82525050565b600061016d828561014a565b60208201915061017d828461014a565b6020820191508190509392505050565b7f4e487b7100000000000000000000000000000000000000000000000000000000600052601260045260246000fd5b60006101c7826100b3565b91506101d2836100b3565b9250826101e2576101e161018d565b5b82820690509291505056fea2646970667358221220c38133fb7b620f979d0acf13e47e6df43074338843c5ded95c0ef6963ece7c7164736f6c63430008130033",
  "immutableReferences": {},
  "source": "// SPDX-License-Identifier: MIT\n\n/*\n\tThis contract is used to generate pseudo random numbers mainly based on the time in which this function is called, given that the main input into the random generator function is going to be the current timestamp, here provided using the 'now' function.\n\n\tThis does not generate pure random number given that miners can manipulate the block timestamp, which is used as one of the seeds for the generator, and the internal seed used in this contract is not hard to determine too. But its more than enough for us to use.\n*/\npragma solidity >=0.4.22 <0.9.0;\n\ncontract PseudoRandomGenerator {\n\tuint seed = 0;\n\n\tfunction generateRandomNumber(uint _modulus) public returns (uint) {\n\t\tuint randomVal = uint(keccak256(abi.encodePacked(block.timestamp, seed))) % _modulus;\n\n\t\tseed = randomVal;\n\n\t\treturn randomVal;\n\t}\n}\n",
  "sourcePath": "D:\\OtherDocuments\\Github_repos\\solidity_projects\\9_battleship\\contracts\\PseudoRandomGenerator.sol",
  "compiler": {
    "name": "solc",
    "version": "0.8.19+commit.7dd6d404.Emscripten.clang"
  },
  "schemaVersion": "3.4.13",
  "updatedAt": "2023-05-15T21:52:02.003Z",
  "networkType": "ethereum",
  "devdoc": {
    "kind": "dev",
    "methods": {},
    "version": 1
  },
  "userdoc": {
    "kind": "user",
    "methods": {},
    "version": 1
  }
}